{
    "_format": "hh-sol-artifact-1",
    "contractName": "VoteFactory",
    "sourceName": "contracts/VoteFactory.sol",
    "abi": [
        {
            "anonymous": false,
            "inputs": [
                {
                    "indexed": false,
                    "internalType": "uint256",
                    "name": "sessionId",
                    "type": "uint256"
                },
                {
                    "indexed": false,
                    "internalType": "string",
                    "name": "label",
                    "type": "string"
                },
                {
                    "indexed": false,
                    "internalType": "string",
                    "name": "description",
                    "type": "string"
                },
                {
                    "indexed": false,
                    "internalType": "uint256",
                    "name": "endDateTime",
                    "type": "uint256"
                },
                {
                    "indexed": false,
                    "internalType": "string[]",
                    "name": "choiceIds",
                    "type": "string[]"
                }
            ],
            "name": "NewSession",
            "type": "event"
        },
        {
            "anonymous": false,
            "inputs": [
                {
                    "indexed": false,
                    "internalType": "uint256",
                    "name": "voteId",
                    "type": "uint256"
                },
                {
                    "indexed": false,
                    "internalType": "uint256",
                    "name": "sessionId",
                    "type": "uint256"
                },
                {
                    "indexed": false,
                    "internalType": "uint256[]",
                    "name": "choiceIds",
                    "type": "uint256[]"
                }
            ],
            "name": "NewVote",
            "type": "event"
        },
        {
            "anonymous": false,
            "inputs": [
                {
                    "indexed": true,
                    "internalType": "address",
                    "name": "previousOwner",
                    "type": "address"
                },
                {
                    "indexed": true,
                    "internalType": "address",
                    "name": "newOwner",
                    "type": "address"
                }
            ],
            "name": "OwnershipTransferred",
            "type": "event"
        },
        {
            "inputs": [
                {
                    "internalType": "uint256",
                    "name": "",
                    "type": "uint256"
                }
            ],
            "name": "choices",
            "outputs": [
                {
                    "internalType": "uint256",
                    "name": "choiceId",
                    "type": "uint256"
                },
                {
                    "internalType": "string",
                    "name": "label",
                    "type": "string"
                }
            ],
            "stateMutability": "view",
            "type": "function"
        },
        {
            "inputs": [
                {
                    "internalType": "string",
                    "name": "_label",
                    "type": "string"
                },
                {
                    "internalType": "string",
                    "name": "_description",
                    "type": "string"
                },
                {
                    "internalType": "uint256",
                    "name": "_endDateTime",
                    "type": "uint256"
                },
                {
                    "internalType": "string[]",
                    "name": "_choices",
                    "type": "string[]"
                }
            ],
            "name": "createSession",
            "outputs": [],
            "stateMutability": "nonpayable",
            "type": "function"
        },
        {
            "inputs": [
                {
                    "internalType": "uint256",
                    "name": "_sessionId",
                    "type": "uint256"
                },
                {
                    "internalType": "uint256[]",
                    "name": "_choiceIds",
                    "type": "uint256[]"
                }
            ],
            "name": "createVote",
            "outputs": [],
            "stateMutability": "nonpayable",
            "type": "function"
        },
        {
            "inputs": [
                {
                    "internalType": "uint256",
                    "name": "_sessionId",
                    "type": "uint256"
                }
            ],
            "name": "deleteSession",
            "outputs": [],
            "stateMutability": "nonpayable",
            "type": "function"
        },
        {
            "inputs": [],
            "name": "getOpenedSessions",
            "outputs": [
                {
                    "components": [
                        {
                            "internalType": "uint256",
                            "name": "sessionId",
                            "type": "uint256"
                        },
                        {
                            "internalType": "uint256",
                            "name": "endDateTime",
                            "type": "uint256"
                        },
                        {
                            "internalType": "string",
                            "name": "label",
                            "type": "string"
                        },
                        {
                            "internalType": "string",
                            "name": "description",
                            "type": "string"
                        }
                    ],
                    "internalType": "struct SessionFactory.Session[]",
                    "name": "",
                    "type": "tuple[]"
                }
            ],
            "stateMutability": "view",
            "type": "function"
        },
        {
            "inputs": [],
            "name": "getOpenedSessionsForOwner",
            "outputs": [
                {
                    "components": [
                        {
                            "components": [
                                {
                                    "internalType": "uint256",
                                    "name": "sessionId",
                                    "type": "uint256"
                                },
                                {
                                    "internalType": "uint256",
                                    "name": "endDateTime",
                                    "type": "uint256"
                                },
                                {
                                    "internalType": "string",
                                    "name": "label",
                                    "type": "string"
                                },
                                {
                                    "internalType": "string",
                                    "name": "description",
                                    "type": "string"
                                }
                            ],
                            "internalType": "struct SessionFactory.Session",
                            "name": "session",
                            "type": "tuple"
                        },
                        {
                            "components": [
                                {
                                    "internalType": "uint256",
                                    "name": "choiceId",
                                    "type": "uint256"
                                },
                                {
                                    "internalType": "string",
                                    "name": "label",
                                    "type": "string"
                                }
                            ],
                            "internalType": "struct ChoiceFactory.Choice[]",
                            "name": "choices",
                            "type": "tuple[]"
                        },
                        {
                            "components": [
                                {
                                    "internalType": "uint256",
                                    "name": "sessionId",
                                    "type": "uint256"
                                },
                                {
                                    "internalType": "uint256[]",
                                    "name": "choiceIds",
                                    "type": "uint256[]"
                                }
                            ],
                            "internalType": "struct VoteFactory.Vote",
                            "name": "vote",
                            "type": "tuple"
                        },
                        {
                            "internalType": "bool",
                            "name": "hasVoted",
                            "type": "bool"
                        },
                        {
                            "internalType": "bool",
                            "name": "isClosed",
                            "type": "bool"
                        }
                    ],
                    "internalType": "struct VoteFactory.SessionInfoForOwner[]",
                    "name": "",
                    "type": "tuple[]"
                }
            ],
            "stateMutability": "view",
            "type": "function"
        },
        {
            "inputs": [],
            "name": "getOwnerHistory",
            "outputs": [
                {
                    "components": [
                        {
                            "internalType": "uint256",
                            "name": "sessionId",
                            "type": "uint256"
                        },
                        {
                            "internalType": "uint256",
                            "name": "endDateTime",
                            "type": "uint256"
                        },
                        {
                            "internalType": "string",
                            "name": "label",
                            "type": "string"
                        },
                        {
                            "internalType": "string",
                            "name": "description",
                            "type": "string"
                        }
                    ],
                    "internalType": "struct SessionFactory.Session[]",
                    "name": "",
                    "type": "tuple[]"
                }
            ],
            "stateMutability": "view",
            "type": "function"
        },
        {
            "inputs": [
                {
                    "internalType": "uint256",
                    "name": "_sessionId",
                    "type": "uint256"
                }
            ],
            "name": "getSession",
            "outputs": [
                {
                    "components": [
                        {
                            "components": [
                                {
                                    "internalType": "uint256",
                                    "name": "sessionId",
                                    "type": "uint256"
                                },
                                {
                                    "internalType": "uint256",
                                    "name": "endDateTime",
                                    "type": "uint256"
                                },
                                {
                                    "internalType": "string",
                                    "name": "label",
                                    "type": "string"
                                },
                                {
                                    "internalType": "string",
                                    "name": "description",
                                    "type": "string"
                                }
                            ],
                            "internalType": "struct SessionFactory.Session",
                            "name": "session",
                            "type": "tuple"
                        },
                        {
                            "components": [
                                {
                                    "internalType": "uint256",
                                    "name": "choiceId",
                                    "type": "uint256"
                                },
                                {
                                    "internalType": "string",
                                    "name": "label",
                                    "type": "string"
                                }
                            ],
                            "internalType": "struct ChoiceFactory.Choice[]",
                            "name": "choices",
                            "type": "tuple[]"
                        }
                    ],
                    "internalType": "struct SessionFactory.SessionWithChoice",
                    "name": "",
                    "type": "tuple"
                }
            ],
            "stateMutability": "view",
            "type": "function"
        },
        {
            "inputs": [
                {
                    "internalType": "uint256",
                    "name": "_sessionId",
                    "type": "uint256"
                }
            ],
            "name": "getSessionForOwner",
            "outputs": [
                {
                    "components": [
                        {
                            "components": [
                                {
                                    "internalType": "uint256",
                                    "name": "sessionId",
                                    "type": "uint256"
                                },
                                {
                                    "internalType": "uint256",
                                    "name": "endDateTime",
                                    "type": "uint256"
                                },
                                {
                                    "internalType": "string",
                                    "name": "label",
                                    "type": "string"
                                },
                                {
                                    "internalType": "string",
                                    "name": "description",
                                    "type": "string"
                                }
                            ],
                            "internalType": "struct SessionFactory.Session",
                            "name": "session",
                            "type": "tuple"
                        },
                        {
                            "components": [
                                {
                                    "internalType": "uint256",
                                    "name": "choiceId",
                                    "type": "uint256"
                                },
                                {
                                    "internalType": "string",
                                    "name": "label",
                                    "type": "string"
                                }
                            ],
                            "internalType": "struct ChoiceFactory.Choice[]",
                            "name": "choices",
                            "type": "tuple[]"
                        },
                        {
                            "components": [
                                {
                                    "internalType": "uint256",
                                    "name": "sessionId",
                                    "type": "uint256"
                                },
                                {
                                    "internalType": "uint256[]",
                                    "name": "choiceIds",
                                    "type": "uint256[]"
                                }
                            ],
                            "internalType": "struct VoteFactory.Vote",
                            "name": "vote",
                            "type": "tuple"
                        },
                        {
                            "internalType": "bool",
                            "name": "hasVoted",
                            "type": "bool"
                        },
                        {
                            "internalType": "bool",
                            "name": "isClosed",
                            "type": "bool"
                        }
                    ],
                    "internalType": "struct VoteFactory.SessionInfoForOwner",
                    "name": "",
                    "type": "tuple"
                }
            ],
            "stateMutability": "view",
            "type": "function"
        },
        {
            "inputs": [],
            "name": "getSessions",
            "outputs": [
                {
                    "components": [
                        {
                            "internalType": "uint256",
                            "name": "sessionId",
                            "type": "uint256"
                        },
                        {
                            "internalType": "uint256",
                            "name": "endDateTime",
                            "type": "uint256"
                        },
                        {
                            "internalType": "string",
                            "name": "label",
                            "type": "string"
                        },
                        {
                            "internalType": "string",
                            "name": "description",
                            "type": "string"
                        }
                    ],
                    "internalType": "struct SessionFactory.Session[]",
                    "name": "",
                    "type": "tuple[]"
                }
            ],
            "stateMutability": "view",
            "type": "function"
        },
        {
            "inputs": [
                {
                    "internalType": "uint256",
                    "name": "_sessionId",
                    "type": "uint256"
                }
            ],
            "name": "isOpen",
            "outputs": [
                {
                    "internalType": "bool",
                    "name": "",
                    "type": "bool"
                }
            ],
            "stateMutability": "view",
            "type": "function"
        },
        {
            "inputs": [],
            "name": "owner",
            "outputs": [
                {
                    "internalType": "address",
                    "name": "",
                    "type": "address"
                }
            ],
            "stateMutability": "view",
            "type": "function"
        },
        {
            "inputs": [],
            "name": "renounceOwnership",
            "outputs": [],
            "stateMutability": "nonpayable",
            "type": "function"
        },
        {
            "inputs": [],
            "name": "sessionCount",
            "outputs": [
                {
                    "internalType": "uint256",
                    "name": "",
                    "type": "uint256"
                }
            ],
            "stateMutability": "view",
            "type": "function"
        },
        {
            "inputs": [
                {
                    "internalType": "uint256",
                    "name": "",
                    "type": "uint256"
                },
                {
                    "internalType": "uint256",
                    "name": "",
                    "type": "uint256"
                }
            ],
            "name": "sessionToChoices",
            "outputs": [
                {
                    "internalType": "uint256",
                    "name": "",
                    "type": "uint256"
                }
            ],
            "stateMutability": "view",
            "type": "function"
        },
        {
            "inputs": [
                {
                    "internalType": "uint256",
                    "name": "",
                    "type": "uint256"
                }
            ],
            "name": "sessionToOwner",
            "outputs": [
                {
                    "internalType": "address",
                    "name": "",
                    "type": "address"
                }
            ],
            "stateMutability": "view",
            "type": "function"
        },
        {
            "inputs": [
                {
                    "internalType": "uint256",
                    "name": "",
                    "type": "uint256"
                }
            ],
            "name": "sessions",
            "outputs": [
                {
                    "internalType": "uint256",
                    "name": "sessionId",
                    "type": "uint256"
                },
                {
                    "internalType": "uint256",
                    "name": "endDateTime",
                    "type": "uint256"
                },
                {
                    "internalType": "string",
                    "name": "label",
                    "type": "string"
                },
                {
                    "internalType": "string",
                    "name": "description",
                    "type": "string"
                }
            ],
            "stateMutability": "view",
            "type": "function"
        },
        {
            "inputs": [
                {
                    "internalType": "uint256",
                    "name": "_fee",
                    "type": "uint256"
                }
            ],
            "name": "setCreateSessionFee",
            "outputs": [],
            "stateMutability": "nonpayable",
            "type": "function"
        },
        {
            "inputs": [
                {
                    "internalType": "address",
                    "name": "newOwner",
                    "type": "address"
                }
            ],
            "name": "transferOwnership",
            "outputs": [],
            "stateMutability": "nonpayable",
            "type": "function"
        },
        {
            "inputs": [
                {
                    "internalType": "uint256",
                    "name": "_sessionId",
                    "type": "uint256"
                },
                {
                    "internalType": "string",
                    "name": "label",
                    "type": "string"
                },
                {
                    "internalType": "string",
                    "name": "description",
                    "type": "string"
                },
                {
                    "internalType": "string[]",
                    "name": "choices",
                    "type": "string[]"
                }
            ],
            "name": "updateSession",
            "outputs": [],
            "stateMutability": "nonpayable",
            "type": "function"
        },
        {
            "inputs": [],
            "name": "voteCount",
            "outputs": [
                {
                    "internalType": "uint256",
                    "name": "",
                    "type": "uint256"
                }
            ],
            "stateMutability": "view",
            "type": "function"
        },
        {
            "inputs": [
                {
                    "internalType": "uint256",
                    "name": "",
                    "type": "uint256"
                }
            ],
            "name": "votes",
            "outputs": [
                {
                    "internalType": "uint256",
                    "name": "sessionId",
                    "type": "uint256"
                }
            ],
            "stateMutability": "view",
            "type": "function"
        },
        {
            "inputs": [],
            "name": "withdraw",
            "outputs": [],
            "stateMutability": "nonpayable",
            "type": "function"
        }
    ],
    "bytecode": "0x6080604052600460025566038d7ea4c680006006553480156200002157600080fd5b5062000042620000366200004860201b60201c565b6200005060201b60201c565b62000114565b600033905090565b60008060009054906101000a900473ffffffffffffffffffffffffffffffffffffffff169050816000806101000a81548173ffffffffffffffffffffffffffffffffffffffff021916908373ffffffffffffffffffffffffffffffffffffffff1602179055508173ffffffffffffffffffffffffffffffffffffffff168173ffffffffffffffffffffffffffffffffffffffff167f8be0079c531659141344cd1fd0a4f28419497f9722a3daafe3b4186f6b6457e060405160405180910390a35050565b613bff80620001246000396000f3fe608060405234801561001057600080fd5b506004361061014d5760003560e01c806373cd8336116100c3578063b56879471161007c578063b5687947146103a3578063bc72f075146103c1578063c6384071146103dd578063e2231201146103fb578063f2fde38b14610417578063f6fd7fde146104335761014d565b806373cd8336146102b857806383c4b7a3146102d65780638da5cb5b146103095780639c841e62146103275780639dc4890814610343578063a9faac44146103735761014d565b8063402ff0db11610115578063402ff0db146101e45780634d6861a6146102145780635df813301461024457806361503e451461027457806367677ce514610292578063715018a6146102ae5761014d565b806307c538d0146101525780630ae7c547146101705780630f693caf1461018e5780630f6f8884146101aa5780633ccfd60b146101da575b600080fd5b61015a610464565b6040516101679190612981565b60405180910390f35b610178610569565b6040516101859190612981565b60405180910390f35b6101a860048036038101906101a39190612b2b565b6107bc565b005b6101c460048036038101906101bf9190612b87565b610a5c565b6040516101d19190612e3e565b60405180910390f35b6101e2610ac4565b005b6101fe60048036038101906101f99190612b87565b610b28565b60405161020b9190612ea4565b60405180910390f35b61022e60048036038101906102299190612b87565b610e5c565b60405161023b9190612ed5565b60405180910390f35b61025e60048036038101906102599190612b87565b610e8d565b60405161026b9190612eff565b60405180910390f35b61027c610ebb565b6040516102899190612981565b60405180910390f35b6102ac60048036038101906102a791906130b0565b611052565b005b6102b6611225565b005b6102c0611239565b6040516102cd9190612eff565b60405180910390f35b6102f060048036038101906102eb9190612b87565b611246565b60405161030094939291906131b5565b60405180910390f35b610311611396565b60405161031e9190613249565b60405180910390f35b610341600480360381019061033c9190613264565b6113bf565b005b61035d6004803603810190610358919061331f565b611515565b60405161036a9190612eff565b60405180910390f35b61038d60048036038101906103889190612b87565b611546565b60405161039a9190613249565b60405180910390f35b6103ab611579565b6040516103b891906134a5565b60405180910390f35b6103db60048036038101906103d69190612b87565b6116ef565b005b6103e5611701565b6040516103f29190612eff565b60405180910390f35b61041560048036038101906104109190612b87565b61170e565b005b610431600480360381019061042c91906134f3565b6118c9565b005b61044d60048036038101906104489190612b87565b61194d565b60405161045b929190613520565b60405180910390f35b60606000610470611a09565b90506000815167ffffffffffffffff81111561048f5761048e6129e8565b5b6040519080825280602002602001820160405280156104c857816020015b6104b561249d565b8152602001906001900390816104ad5790505b5090506000805b835181101561055f576104ff8482815181106104ee576104ed613550565b5b602002602001015160000151611c8e565b1561054c5783818151811061051757610516613550565b5b602002602001015183838151811061053257610531613550565b5b60200260200101819052508180610548906135ae565b9250505b8080610557906135ae565b9150506104cf565b5081935050505090565b60606000610575611d72565b67ffffffffffffffff81111561058e5761058d6129e8565b5b6040519080825280602002602001820160405280156105c757816020015b6105b461249d565b8152602001906001900390816105ac5790505b5090506000805b6003805490508110156107b357610609600382815481106105f2576105f1613550565b5b906000526020600020906004020160000154610e5c565b156107a0576003818154811061062257610621613550565b5b9060005260206000209060040201604051806080016040529081600082015481526020016001820154815260200160028201805461065f90613626565b80601f016020809104026020016040519081016040528092919081815260200182805461068b90613626565b80156106d85780601f106106ad576101008083540402835291602001916106d8565b820191906000526020600020905b8154815290600101906020018083116106bb57829003601f168201915b505050505081526020016003820180546106f190613626565b80601f016020809104026020016040519081016040528092919081815260200182805461071d90613626565b801561076a5780601f1061073f5761010080835404028352916020019161076a565b820191906000526020600020905b81548152906001019060200180831161074d57829003601f168201915b50505050508152505083838151811061078657610785613550565b5b6020026020010181905250818061079c906135ae565b9250505b80806107ab906135ae565b9150506105ce565b50819250505090565b81816107c782611de6565b610806576040517f08c379a00000000000000000000000000000000000000000000000000000000081526004016107fd906136a4565b60405180910390fd5b61080f82611df7565b1561084f576040517f08c379a000000000000000000000000000000000000000000000000000000000815260040161084690613710565b60405180910390fd5b6108598282611e0a565b610898576040517f08c379a000000000000000000000000000000000000000000000000000000000815260040161088f906137a2565b60405180910390fd5b6108a182611c8e565b156108e1576040517f08c379a00000000000000000000000000000000000000000000000000000000081526004016108d89061380e565b60405180910390fd5b600760405180604001604052808681526020018581525090806001815401808255809150506001900390600052602060002090600202016000909190919091506000820151816000015560208201518160010190805190602001906109479291906124c5565b5050506000600160078054905061095e919061382e565b9050336008600083815260200190815260200160002060006101000a81548173ffffffffffffffffffffffffffffffffffffffff021916908373ffffffffffffffffffffffffffffffffffffffff1602179055506007600960003373ffffffffffffffffffffffffffffffffffffffff1673ffffffffffffffffffffffffffffffffffffffff168152602001908152602001600020908054610a01929190612512565b5084600a6000838152602001908152602001600020819055507f83f89aa3151a6342b09e093d51aede8abf5947bebe813d3f0c067a7d0236e4bf818686604051610a4d939291906138d1565b60405180910390a15050505050565b610a6461258b565b6000610a6f83610b28565b90506040518060a001604052808260000151815260200182602001518152602001610a9985611edb565b8152602001610aa785611c8e565b15158152602001610ab785611df7565b1515815250915050919050565b610acc611fdb565b60004790506000610adb611396565b90508073ffffffffffffffffffffffffffffffffffffffff166108fc839081150290604051600060405180830381858888f19350505050158015610b23573d6000803e3d6000fd5b505050565b610b306125ca565b600060025467ffffffffffffffff811115610b4e57610b4d6129e8565b5b604051908082528060200260200182016040528015610b8757816020015b610b746125ea565b815260200190600190039081610b6c5790505b50905060005b6005600085815260200190815260200160002080549050811015610cd4576001600560008681526020019081526020016000208281548110610bd257610bd1613550565b5b906000526020600020015481548110610bee57610bed613550565b5b906000526020600020906002020160405180604001604052908160008201548152602001600182018054610c2190613626565b80601f0160208091040260200160405190810160405280929190818152602001828054610c4d90613626565b8015610c9a5780601f10610c6f57610100808354040283529160200191610c9a565b820191906000526020600020905b815481529060010190602001808311610c7d57829003601f168201915b505050505081525050828281518110610cb657610cb5613550565b5b60200260200101819052508080610ccc906135ae565b915050610b8d565b506000604051806040016040528060038681548110610cf657610cf5613550565b5b90600052602060002090600402016040518060800160405290816000820154815260200160018201548152602001600282018054610d3390613626565b80601f0160208091040260200160405190810160405280929190818152602001828054610d5f90613626565b8015610dac5780601f10610d8157610100808354040283529160200191610dac565b820191906000526020600020905b815481529060010190602001808311610d8f57829003601f168201915b50505050508152602001600382018054610dc590613626565b80601f0160208091040260200160405190810160405280929190818152602001828054610df190613626565b8015610e3e5780601f10610e1357610100808354040283529160200191610e3e565b820191906000526020600020905b815481529060010190602001808311610e2157829003601f168201915b50505050508152505081526020018381525090508092505050919050565b60004260038381548110610e7357610e72613550565b5b906000526020600020906004020160010154119050919050565b60078181548110610e9d57600080fd5b90600052602060002090600202016000915090508060000154905081565b60606003805480602002602001604051908101604052809291908181526020016000905b8282101561104957838290600052602060002090600402016040518060800160405290816000820154815260200160018201548152602001600282018054610f2690613626565b80601f0160208091040260200160405190810160405280929190818152602001828054610f5290613626565b8015610f9f5780601f10610f7457610100808354040283529160200191610f9f565b820191906000526020600020905b815481529060010190602001808311610f8257829003601f168201915b50505050508152602001600382018054610fb890613626565b80601f0160208091040260200160405190810160405280929190818152602001828054610fe490613626565b80156110315780601f1061100657610100808354040283529160200191611031565b820191906000526020600020905b81548152906001019060200180831161101457829003601f168201915b50505050508152505081526020019060010190610edf565b50505050905090565b3373ffffffffffffffffffffffffffffffffffffffff166004600086815260200190815260200160002060009054906101000a900473ffffffffffffffffffffffffffffffffffffffff1673ffffffffffffffffffffffffffffffffffffffff16146110f3576040517f08c379a00000000000000000000000000000000000000000000000000000000081526004016110ea90613981565b60405180910390fd5b826003858154811061110857611107613550565b5b9060005260206000209060040201600201908051906020019061112c929190612604565b50816003858154811061114257611141613550565b5b90600052602060002090600402016003019080519060200190611166929190612604565b5060005b600560008681526020019081526020016000208054905081101561121e5781818151811061119b5761119a613550565b5b602002602001015160016005600088815260200190815260200160002083815481106111ca576111c9613550565b5b9060005260206000200154815481106111e6576111e5613550565b5b9060005260206000209060020201600101908051906020019061120a929190612604565b508080611216906135ae565b91505061116a565b5050505050565b61122d611fdb565b6112376000612059565b565b6000600380549050905090565b6003818154811061125657600080fd5b906000526020600020906004020160009150905080600001549080600101549080600201805461128590613626565b80601f01602080910402602001604051908101604052809291908181526020018280546112b190613626565b80156112fe5780601f106112d3576101008083540402835291602001916112fe565b820191906000526020600020905b8154815290600101906020018083116112e157829003601f168201915b50505050509080600301805461131390613626565b80601f016020809104026020016040519081016040528092919081815260200182805461133f90613626565b801561138c5780601f106113615761010080835404028352916020019161138c565b820191906000526020600020905b81548152906001019060200180831161136f57829003601f168201915b5050505050905084565b60008060009054906101000a900473ffffffffffffffffffffffffffffffffffffffff16905090565b600060038054905090506000604051806080016040528083815260200185815260200187815260200186815250905060038190806001815401808255809150506001900390600052602060002090600402016000909190919091506000820151816000015560208201518160010155604082015181600201908051906020019061144a929190612604565b506060820151816003019080519060200190611467929190612604565b505050336004600084815260200190815260200160002060006101000a81548173ffffffffffffffffffffffffffffffffffffffff021916908373ffffffffffffffffffffffffffffffffffffffff1602179055506114c6838361211d565b7fc15b3d50eeeed090d36acebfceb7fba18ecfdb2f92791ec72fb665041f71527c828787876114f4876121a3565b604051611505959493929190613a63565b60405180910390a1505050505050565b6005602052816000526040600020818154811061153157600080fd5b90600052602060002001600091509150505481565b60046020528060005260406000206000915054906101000a900473ffffffffffffffffffffffffffffffffffffffff1681565b606061158361268a565b600061158d610569565b90506000815167ffffffffffffffff8111156115ac576115ab6129e8565b5b6040519080825280602002602001820160405280156115e557816020015b6115d261258b565b8152602001906001900390816115ca5790505b50905060005b82518110156116e5576040518060a0016040528084838151811061161257611611613550565b5b60200260200101518152602001600067ffffffffffffffff81111561163a576116396129e8565b5b60405190808252806020026020018201604052801561167357816020015b6116606125ea565b8152602001906001900390816116585790505b5081526020018581526020016116a685848151811061169557611694613550565b5b602002602001015160000151611c8e565b15158152602001600015158152508282815181106116c7576116c6613550565b5b602002602001018190525080806116dd906135ae565b9150506115eb565b5080935050505090565b6116f7611fdb565b8060068190555050565b6000600780549050905090565b3373ffffffffffffffffffffffffffffffffffffffff166004600083815260200190815260200160002060009054906101000a900473ffffffffffffffffffffffffffffffffffffffff1673ffffffffffffffffffffffffffffffffffffffff16146117af576040517f08c379a00000000000000000000000000000000000000000000000000000000081526004016117a690613981565b60405180910390fd5b60005b600560008381526020019081526020016000208054905081101561181b576118086005600084815260200190815260200160002082815481106117f8576117f7613550565b5b9060005260206000200154612332565b8080611813906135ae565b9150506117b2565b5060056000828152602001908152602001600020600061183b91906126a4565b6004600082815260200190815260200160002060006101000a81549073ffffffffffffffffffffffffffffffffffffffff02191690556003818154811061188557611884613550565b5b906000526020600020906004020160008082016000905560018201600090556002820160006118b491906126c5565b6003820160006118c491906126c5565b505050565b6118d1611fdb565b600073ffffffffffffffffffffffffffffffffffffffff168173ffffffffffffffffffffffffffffffffffffffff161415611941576040517f08c379a000000000000000000000000000000000000000000000000000000000815260040161193890613b3d565b60405180910390fd5b61194a81612059565b50565b6001818154811061195d57600080fd5b906000526020600020906002020160009150905080600001549080600101805461198690613626565b80601f01602080910402602001604051908101604052809291908181526020018280546119b290613626565b80156119ff5780601f106119d4576101008083540402835291602001916119ff565b820191906000526020600020905b8154815290600101906020018083116119e257829003601f168201915b5050505050905082565b60606000611a15612372565b67ffffffffffffffff811115611a2e57611a2d6129e8565b5b604051908082528060200260200182016040528015611a6757816020015b611a5461249d565b815260200190600190039081611a4c5790505b5090506000805b600380549050811015611c8557611aa960038281548110611a9257611a91613550565b5b906000526020600020906004020160000154610e5c565b158015611adb5750600060038281548110611ac757611ac6613550565b5b906000526020600020906004020160010154115b15611c725760038181548110611af457611af3613550565b5b90600052602060002090600402016040518060800160405290816000820154815260200160018201548152602001600282018054611b3190613626565b80601f0160208091040260200160405190810160405280929190818152602001828054611b5d90613626565b8015611baa5780601f10611b7f57610100808354040283529160200191611baa565b820191906000526020600020905b815481529060010190602001808311611b8d57829003601f168201915b50505050508152602001600382018054611bc390613626565b80601f0160208091040260200160405190810160405280929190818152602001828054611bef90613626565b8015611c3c5780601f10611c1157610100808354040283529160200191611c3c565b820191906000526020600020905b815481529060010190602001808311611c1f57829003601f168201915b505050505081525050838381518110611c5857611c57613550565b5b60200260200101819052508180611c6e906135ae565b9250505b8080611c7d906135ae565b915050611a6e565b50819250505090565b600080600090505b600960003373ffffffffffffffffffffffffffffffffffffffff1673ffffffffffffffffffffffffffffffffffffffff16815260200190815260200160002080549050811015611d675782600960003373ffffffffffffffffffffffffffffffffffffffff1673ffffffffffffffffffffffffffffffffffffffff1681526020019081526020016000208281548110611d3257611d31613550565b5b9060005260206000209060020201600001541415611d54576001915050611d6d565b8080611d5f906135ae565b915050611c96565b50600090505b919050565b6000806000905060005b600380549050811015611dde57611db760038281548110611da057611d9f613550565b5b906000526020600020906004020160000154610e5c565b15611dcb578180611dc7906135ae565b9250505b8080611dd6906135ae565b915050611d7c565b508091505090565b600060038054905082109050919050565b6000611e0282610e5c565b159050919050565b600080600090505b8251811015611ecf576000805b6005600087815260200190815260200160002080549050811015611eaa57600560008781526020019081526020016000208181548110611e6257611e61613550565b5b9060005260206000200154858481518110611e8057611e7f613550565b5b60200260200101511415611e975760019150611eaa565b8080611ea2906135ae565b915050611e1f565b5080611ebb57600092505050611ed5565b508080611ec7906135ae565b915050611e12565b50600190505b92915050565b611ee361268a565b611eeb61268a565b60005b600780549050811015611fd1578360078281548110611f1057611f0f613550565b5b9060005260206000209060020201600001541415611fbe5760078181548110611f3c57611f3b613550565b5b90600052602060002090600202016040518060400160405290816000820154815260200160018201805480602002602001604051908101604052809291908181526020018280548015611fae57602002820191906000526020600020905b815481526020019060010190808311611f9a575b5050505050815250509150611fd1565b8080611fc9906135ae565b915050611eee565b5080915050919050565b611fe3612418565b73ffffffffffffffffffffffffffffffffffffffff16612001611396565b73ffffffffffffffffffffffffffffffffffffffff1614612057576040517f08c379a000000000000000000000000000000000000000000000000000000000815260040161204e90613ba9565b60405180910390fd5b565b60008060009054906101000a900473ffffffffffffffffffffffffffffffffffffffff169050816000806101000a81548173ffffffffffffffffffffffffffffffffffffffff021916908373ffffffffffffffffffffffffffffffffffffffff1602179055508173ffffffffffffffffffffffffffffffffffffffff168173ffffffffffffffffffffffffffffffffffffffff167f8be0079c531659141344cd1fd0a4f28419497f9722a3daafe3b4186f6b6457e060405160405180910390a35050565b60005b825181101561219e57600061214e84838151811061214157612140613550565b5b6020026020010151612420565b905060056000848152602001908152602001600020819080600181540180825580915050600190039060005260206000200160009091909190915055508080612196906135ae565b915050612120565b505050565b6060600060025467ffffffffffffffff8111156121c3576121c26129e8565b5b6040519080825280602002602001820160405280156121f657816020015b60608152602001906001900390816121e15790505b50905060005b600560008581526020019081526020016000208054905081101561232857600160056000868152602001908152602001600020828154811061224157612240613550565b5b90600052602060002001548154811061225d5761225c613550565b5b9060005260206000209060020201600101805461227990613626565b80601f01602080910402602001604051908101604052809291908181526020018280546122a590613626565b80156122f25780601f106122c7576101008083540402835291602001916122f2565b820191906000526020600020905b8154815290600101906020018083116122d557829003601f168201915b505050505082828151811061230a57612309613550565b5b60200260200101819052508080612320906135ae565b9150506121fc565b5080915050919050565b6001818154811061234657612345613550565b5b906000526020600020906002020160008082016000905560018201600061236d91906126c5565b505050565b6000806000905060005b600380549050811015612410576123b7600382815481106123a05761239f613550565b5b906000526020600020906004020160000154610e5c565b1580156123e957506000600382815481106123d5576123d4613550565b5b906000526020600020906004020160010154115b156123fd5781806123f9906135ae565b9250505b8080612408906135ae565b91505061237c565b508091505090565b600033905090565b600080600180549050905060016040518060400160405280838152602001858152509080600181540180825580915050600190039060005260206000209060020201600090919091909150600082015181600001556020820151816001019080519060200190612491929190612604565b50505080915050919050565b6040518060800160405280600081526020016000815260200160608152602001606081525090565b828054828255906000526020600020908101928215612501579160200282015b828111156125005782518255916020019190600101906124e5565b5b50905061250e9190612705565b5090565b82805482825590600052602060002090600202810192821561257a5760005260206000209160020282015b82811115612579578282600082015481600001556001820181600101908054612567929190612722565b5050509160020191906002019061253d565b5b5090506125879190612774565b5090565b6040518060a0016040528061259e61249d565b8152602001606081526020016125b261268a565b81526020016000151581526020016000151581525090565b60405180604001604052806125dd61249d565b8152602001606081525090565b604051806040016040528060008152602001606081525090565b82805461261090613626565b90600052602060002090601f0160209004810192826126325760008555612679565b82601f1061264b57805160ff1916838001178555612679565b82800160010185558215612679579182015b8281111561267857825182559160200191906001019061265d565b5b5090506126869190612705565b5090565b604051806040016040528060008152602001606081525090565b50805460008255906000526020600020908101906126c29190612705565b50565b5080546126d190613626565b6000825580601f106126e35750612702565b601f0160209004906000526020600020908101906127019190612705565b5b50565b5b8082111561271e576000816000905550600101612706565b5090565b8280548282559060005260206000209081019282156127635760005260206000209182015b82811115612762578254825591600101919060010190612747565b5b5090506127709190612705565b5090565b5b8082111561279f5760008082016000905560018201600061279691906126a4565b50600201612775565b5090565b600081519050919050565b600082825260208201905092915050565b6000819050602082019050919050565b6000819050919050565b6127e2816127cf565b82525050565b600081519050919050565b600082825260208201905092915050565b60005b83811015612822578082015181840152602081019050612807565b83811115612831576000848401525b50505050565b6000601f19601f8301169050919050565b6000612853826127e8565b61285d81856127f3565b935061286d818560208601612804565b61287681612837565b840191505092915050565b600060808301600083015161289960008601826127d9565b5060208301516128ac60208601826127d9565b50604083015184820360408601526128c48282612848565b915050606083015184820360608601526128de8282612848565b9150508091505092915050565b60006128f78383612881565b905092915050565b6000602082019050919050565b6000612917826127a3565b61292181856127ae565b935083602082028501612933856127bf565b8060005b8581101561296f578484038952815161295085826128eb565b945061295b836128ff565b925060208a01995050600181019050612937565b50829750879550505050505092915050565b6000602082019050818103600083015261299b818461290c565b905092915050565b6000604051905090565b600080fd5b600080fd5b6129c0816127cf565b81146129cb57600080fd5b50565b6000813590506129dd816129b7565b92915050565b600080fd5b7f4e487b7100000000000000000000000000000000000000000000000000000000600052604160045260246000fd5b612a2082612837565b810181811067ffffffffffffffff82111715612a3f57612a3e6129e8565b5b80604052505050565b6000612a526129a3565b9050612a5e8282612a17565b919050565b600067ffffffffffffffff821115612a7e57612a7d6129e8565b5b602082029050602081019050919050565b600080fd5b6000612aa7612aa284612a63565b612a48565b90508083825260208201905060208402830185811115612aca57612ac9612a8f565b5b835b81811015612af35780612adf88826129ce565b845260208401935050602081019050612acc565b5050509392505050565b600082601f830112612b1257612b116129e3565b5b8135612b22848260208601612a94565b91505092915050565b60008060408385031215612b4257612b416129ad565b5b6000612b50858286016129ce565b925050602083013567ffffffffffffffff811115612b7157612b706129b2565b5b612b7d85828601612afd565b9150509250929050565b600060208284031215612b9d57612b9c6129ad565b5b6000612bab848285016129ce565b91505092915050565b600081519050919050565b600082825260208201905092915050565b6000819050602082019050919050565b6000604083016000830151612bf860008601826127d9565b5060208301518482036020860152612c108282612848565b9150508091505092915050565b6000612c298383612be0565b905092915050565b6000602082019050919050565b6000612c4982612bb4565b612c538185612bbf565b935083602082028501612c6585612bd0565b8060005b85811015612ca15784840389528151612c828582612c1d565b9450612c8d83612c31565b925060208a01995050600181019050612c69565b50829750879550505050505092915050565b600081519050919050565b600082825260208201905092915050565b6000819050602082019050919050565b6000612ceb83836127d9565b60208301905092915050565b6000602082019050919050565b6000612d0f82612cb3565b612d198185612cbe565b9350612d2483612ccf565b8060005b83811015612d55578151612d3c8882612cdf565b9750612d4783612cf7565b925050600181019050612d28565b5085935050505092915050565b6000604083016000830151612d7a60008601826127d9565b5060208301518482036020860152612d928282612d04565b9150508091505092915050565b60008115159050919050565b612db481612d9f565b82525050565b600060a0830160008301518482036000860152612dd78282612881565b91505060208301518482036020860152612df18282612c3e565b91505060408301518482036040860152612e0b8282612d62565b9150506060830151612e206060860182612dab565b506080830151612e336080860182612dab565b508091505092915050565b60006020820190508181036000830152612e588184612dba565b905092915050565b60006040830160008301518482036000860152612e7d8282612881565b91505060208301518482036020860152612e978282612c3e565b9150508091505092915050565b60006020820190508181036000830152612ebe8184612e60565b905092915050565b612ecf81612d9f565b82525050565b6000602082019050612eea6000830184612ec6565b92915050565b612ef9816127cf565b82525050565b6000602082019050612f146000830184612ef0565b92915050565b600080fd5b600067ffffffffffffffff821115612f3a57612f396129e8565b5b612f4382612837565b9050602081019050919050565b82818337600083830152505050565b6000612f72612f6d84612f1f565b612a48565b905082815260208101848484011115612f8e57612f8d612f1a565b5b612f99848285612f50565b509392505050565b600082601f830112612fb657612fb56129e3565b5b8135612fc6848260208601612f5f565b91505092915050565b600067ffffffffffffffff821115612fea57612fe96129e8565b5b602082029050602081019050919050565b600061300e61300984612fcf565b612a48565b9050808382526020820190506020840283018581111561303157613030612a8f565b5b835b8181101561307857803567ffffffffffffffff811115613056576130556129e3565b5b8086016130638982612fa1565b85526020850194505050602081019050613033565b5050509392505050565b600082601f830112613097576130966129e3565b5b81356130a7848260208601612ffb565b91505092915050565b600080600080608085870312156130ca576130c96129ad565b5b60006130d8878288016129ce565b945050602085013567ffffffffffffffff8111156130f9576130f86129b2565b5b61310587828801612fa1565b935050604085013567ffffffffffffffff811115613126576131256129b2565b5b61313287828801612fa1565b925050606085013567ffffffffffffffff811115613153576131526129b2565b5b61315f87828801613082565b91505092959194509250565b600082825260208201905092915050565b6000613187826127e8565b613191818561316b565b93506131a1818560208601612804565b6131aa81612837565b840191505092915050565b60006080820190506131ca6000830187612ef0565b6131d76020830186612ef0565b81810360408301526131e9818561317c565b905081810360608301526131fd818461317c565b905095945050505050565b600073ffffffffffffffffffffffffffffffffffffffff82169050919050565b600061323382613208565b9050919050565b61324381613228565b82525050565b600060208201905061325e600083018461323a565b92915050565b6000806000806080858703121561327e5761327d6129ad565b5b600085013567ffffffffffffffff81111561329c5761329b6129b2565b5b6132a887828801612fa1565b945050602085013567ffffffffffffffff8111156132c9576132c86129b2565b5b6132d587828801612fa1565b93505060406132e6878288016129ce565b925050606085013567ffffffffffffffff811115613307576133066129b2565b5b61331387828801613082565b91505092959194509250565b60008060408385031215613336576133356129ad565b5b6000613344858286016129ce565b9250506020613355858286016129ce565b9150509250929050565b600081519050919050565b600082825260208201905092915050565b6000819050602082019050919050565b600060a08301600083015184820360008601526133a88282612881565b915050602083015184820360208601526133c28282612c3e565b915050604083015184820360408601526133dc8282612d62565b91505060608301516133f16060860182612dab565b5060808301516134046080860182612dab565b508091505092915050565b600061341b838361338b565b905092915050565b6000602082019050919050565b600061343b8261335f565b613445818561336a565b9350836020820285016134578561337b565b8060005b858110156134935784840389528151613474858261340f565b945061347f83613423565b925060208a0199505060018101905061345b565b50829750879550505050505092915050565b600060208201905081810360008301526134bf8184613430565b905092915050565b6134d081613228565b81146134db57600080fd5b50565b6000813590506134ed816134c7565b92915050565b600060208284031215613509576135086129ad565b5b6000613517848285016134de565b91505092915050565b60006040820190506135356000830185612ef0565b8181036020830152613547818461317c565b90509392505050565b7f4e487b7100000000000000000000000000000000000000000000000000000000600052603260045260246000fd5b7f4e487b7100000000000000000000000000000000000000000000000000000000600052601160045260246000fd5b60006135b9826127cf565b91507fffffffffffffffffffffffffffffffffffffffffffffffffffffffffffffffff8214156135ec576135eb61357f565b5b600182019050919050565b7f4e487b7100000000000000000000000000000000000000000000000000000000600052602260045260246000fd5b6000600282049050600182168061363e57607f821691505b60208210811415613652576136516135f7565b5b50919050565b7f53657373696f6e20646f6573206e6f742065786973742e000000000000000000600082015250565b600061368e60178361316b565b915061369982613658565b602082019050919050565b600060208201905081810360008301526136bd81613681565b9050919050565b7f53657373696f6e20697320636c6f7365642e0000000000000000000000000000600082015250565b60006136fa60128361316b565b9150613705826136c4565b602082019050919050565b60006020820190508181036000830152613729816136ed565b9050919050565b7f43686f6963652069647320646f206e6f7420657869737420666f72207468697360008201527f2073657373696f6e2e0000000000000000000000000000000000000000000000602082015250565b600061378c60298361316b565b915061379782613730565b604082019050919050565b600060208201905081810360008301526137bb8161377f565b9050919050565b7f596f75206861766520616c726561647920766f7465642e000000000000000000600082015250565b60006137f860178361316b565b9150613803826137c2565b602082019050919050565b60006020820190508181036000830152613827816137eb565b9050919050565b6000613839826127cf565b9150613844836127cf565b9250828210156138575761385661357f565b5b828203905092915050565b600082825260208201905092915050565b600061387e82612cb3565b6138888185613862565b935061389383612ccf565b8060005b838110156138c45781516138ab8882612cdf565b97506138b683612cf7565b925050600181019050613897565b5085935050505092915050565b60006060820190506138e66000830186612ef0565b6138f36020830185612ef0565b81810360408301526139058184613873565b9050949350505050565b7f596f7520617265206e6f7420746865206f776e6572206f66207468697320736560008201527f7373696f6e2e0000000000000000000000000000000000000000000000000000602082015250565b600061396b60268361316b565b91506139768261390f565b604082019050919050565b6000602082019050818103600083015261399a8161395e565b9050919050565b600081519050919050565b600082825260208201905092915050565b6000819050602082019050919050565b60006139d98383612848565b905092915050565b6000602082019050919050565b60006139f9826139a1565b613a0381856139ac565b935083602082028501613a15856139bd565b8060005b85811015613a515784840389528151613a3285826139cd565b9450613a3d836139e1565b925060208a01995050600181019050613a19565b50829750879550505050505092915050565b600060a082019050613a786000830188612ef0565b8181036020830152613a8a818761317c565b90508181036040830152613a9e818661317c565b9050613aad6060830185612ef0565b8181036080830152613abf81846139ee565b90509695505050505050565b7f4f776e61626c653a206e6577206f776e657220697320746865207a65726f206160008201527f6464726573730000000000000000000000000000000000000000000000000000602082015250565b6000613b2760268361316b565b9150613b3282613acb565b604082019050919050565b60006020820190508181036000830152613b5681613b1a565b9050919050565b7f4f776e61626c653a2063616c6c6572206973206e6f7420746865206f776e6572600082015250565b6000613b9360208361316b565b9150613b9e82613b5d565b602082019050919050565b60006020820190508181036000830152613bc281613b86565b905091905056fea2646970667358221220c0bead37d39fb41fbd06b89f855b09c9eb52e22d378292fd7e6024d6f930819b64736f6c63430008090033",
    "linkReferences": {},
    "deployedLinkReferences": {}
}