{
    "_format": "hh-sol-artifact-1",
    "contractName": "VoteFactory",
    "sourceName": "contracts/VoteFactory.sol",
    "abi": [
        {
            "anonymous": false,
            "inputs": [
                {
                    "indexed": false,
                    "internalType": "uint256",
                    "name": "sessionId",
                    "type": "uint256"
                },
                {
                    "indexed": false,
                    "internalType": "string",
                    "name": "label",
                    "type": "string"
                },
                {
                    "indexed": false,
                    "internalType": "string",
                    "name": "description",
                    "type": "string"
                },
                {
                    "indexed": false,
                    "internalType": "uint256",
                    "name": "endDateTime",
                    "type": "uint256"
                },
                {
                    "indexed": false,
                    "internalType": "string[]",
                    "name": "choiceIds",
                    "type": "string[]"
                }
            ],
            "name": "NewSession",
            "type": "event"
        },
        {
            "anonymous": false,
            "inputs": [
                {
                    "indexed": false,
                    "internalType": "uint256",
                    "name": "voteId",
                    "type": "uint256"
                },
                {
                    "indexed": false,
                    "internalType": "uint256",
                    "name": "sessionId",
                    "type": "uint256"
                },
                {
                    "indexed": false,
                    "internalType": "uint256[]",
                    "name": "choiceIds",
                    "type": "uint256[]"
                }
            ],
            "name": "NewVote",
            "type": "event"
        },
        {
            "anonymous": false,
            "inputs": [
                {
                    "indexed": true,
                    "internalType": "address",
                    "name": "previousOwner",
                    "type": "address"
                },
                {
                    "indexed": true,
                    "internalType": "address",
                    "name": "newOwner",
                    "type": "address"
                }
            ],
            "name": "OwnershipTransferred",
            "type": "event"
        },
        {
            "inputs": [
                {
                    "internalType": "uint256",
                    "name": "",
                    "type": "uint256"
                }
            ],
            "name": "choices",
            "outputs": [
                {
                    "internalType": "uint256",
                    "name": "choiceId",
                    "type": "uint256"
                },
                {
                    "internalType": "string",
                    "name": "label",
                    "type": "string"
                }
            ],
            "stateMutability": "view",
            "type": "function"
        },
        {
            "inputs": [
                {
                    "internalType": "string",
                    "name": "_label",
                    "type": "string"
                },
                {
                    "internalType": "string",
                    "name": "_description",
                    "type": "string"
                },
                {
                    "internalType": "uint256",
                    "name": "_endDateTime",
                    "type": "uint256"
                },
                {
                    "internalType": "string[]",
                    "name": "_choices",
                    "type": "string[]"
                }
            ],
            "name": "createSession",
            "outputs": [],
            "stateMutability": "payable",
            "type": "function"
        },
        {
            "inputs": [
                {
                    "internalType": "uint256",
                    "name": "_sessionId",
                    "type": "uint256"
                },
                {
                    "internalType": "uint256[]",
                    "name": "_choiceIds",
                    "type": "uint256[]"
                }
            ],
            "name": "createVote",
            "outputs": [],
            "stateMutability": "nonpayable",
            "type": "function"
        },
        {
            "inputs": [],
            "name": "getOpenedSessions",
            "outputs": [
                {
                    "components": [
                        {
                            "internalType": "uint256",
                            "name": "sessionId",
                            "type": "uint256"
                        },
                        {
                            "internalType": "uint256",
                            "name": "endDateTime",
                            "type": "uint256"
                        },
                        {
                            "internalType": "string",
                            "name": "label",
                            "type": "string"
                        },
                        {
                            "internalType": "string",
                            "name": "description",
                            "type": "string"
                        }
                    ],
                    "internalType": "struct SessionFactory.Session[]",
                    "name": "",
                    "type": "tuple[]"
                }
            ],
            "stateMutability": "view",
            "type": "function"
        },
        {
            "inputs": [],
            "name": "getOwnerHistory",
            "outputs": [
                {
                    "components": [
                        {
                            "internalType": "uint256",
                            "name": "sessionId",
                            "type": "uint256"
                        },
                        {
                            "internalType": "uint256",
                            "name": "endDateTime",
                            "type": "uint256"
                        },
                        {
                            "internalType": "string",
                            "name": "label",
                            "type": "string"
                        },
                        {
                            "internalType": "string",
                            "name": "description",
                            "type": "string"
                        }
                    ],
                    "internalType": "struct SessionFactory.Session[]",
                    "name": "",
                    "type": "tuple[]"
                }
            ],
            "stateMutability": "view",
            "type": "function"
        },
        {
            "inputs": [
                {
                    "internalType": "uint256",
                    "name": "_sessionId",
                    "type": "uint256"
                }
            ],
            "name": "getSession",
            "outputs": [
                {
                    "components": [
                        {
                            "components": [
                                {
                                    "internalType": "uint256",
                                    "name": "sessionId",
                                    "type": "uint256"
                                },
                                {
                                    "internalType": "uint256",
                                    "name": "endDateTime",
                                    "type": "uint256"
                                },
                                {
                                    "internalType": "string",
                                    "name": "label",
                                    "type": "string"
                                },
                                {
                                    "internalType": "string",
                                    "name": "description",
                                    "type": "string"
                                }
                            ],
                            "internalType": "struct SessionFactory.Session",
                            "name": "session",
                            "type": "tuple"
                        },
                        {
                            "components": [
                                {
                                    "internalType": "uint256",
                                    "name": "choiceId",
                                    "type": "uint256"
                                },
                                {
                                    "internalType": "string",
                                    "name": "label",
                                    "type": "string"
                                }
                            ],
                            "internalType": "struct ChoiceFactory.Choice[]",
                            "name": "choices",
                            "type": "tuple[]"
                        }
                    ],
                    "internalType": "struct SessionFactory.SessionWithChoice",
                    "name": "",
                    "type": "tuple"
                }
            ],
            "stateMutability": "view",
            "type": "function"
        },
        {
            "inputs": [],
            "name": "getSessions",
            "outputs": [
                {
                    "components": [
                        {
                            "internalType": "uint256",
                            "name": "sessionId",
                            "type": "uint256"
                        },
                        {
                            "internalType": "uint256",
                            "name": "endDateTime",
                            "type": "uint256"
                        },
                        {
                            "internalType": "string",
                            "name": "label",
                            "type": "string"
                        },
                        {
                            "internalType": "string",
                            "name": "description",
                            "type": "string"
                        }
                    ],
                    "internalType": "struct SessionFactory.Session[]",
                    "name": "",
                    "type": "tuple[]"
                }
            ],
            "stateMutability": "view",
            "type": "function"
        },
        {
            "inputs": [
                {
                    "internalType": "uint256",
                    "name": "_sessionId",
                    "type": "uint256"
                }
            ],
            "name": "isOpen",
            "outputs": [
                {
                    "internalType": "bool",
                    "name": "",
                    "type": "bool"
                }
            ],
            "stateMutability": "view",
            "type": "function"
        },
        {
            "inputs": [],
            "name": "owner",
            "outputs": [
                {
                    "internalType": "address",
                    "name": "",
                    "type": "address"
                }
            ],
            "stateMutability": "view",
            "type": "function"
        },
        {
            "inputs": [],
            "name": "renounceOwnership",
            "outputs": [],
            "stateMutability": "nonpayable",
            "type": "function"
        },
        {
            "inputs": [],
            "name": "sessionCount",
            "outputs": [
                {
                    "internalType": "uint256",
                    "name": "",
                    "type": "uint256"
                }
            ],
            "stateMutability": "view",
            "type": "function"
        },
        {
            "inputs": [
                {
                    "internalType": "uint256",
                    "name": "",
                    "type": "uint256"
                },
                {
                    "internalType": "uint256",
                    "name": "",
                    "type": "uint256"
                }
            ],
            "name": "sessionToChoices",
            "outputs": [
                {
                    "internalType": "uint256",
                    "name": "",
                    "type": "uint256"
                }
            ],
            "stateMutability": "view",
            "type": "function"
        },
        {
            "inputs": [
                {
                    "internalType": "uint256",
                    "name": "",
                    "type": "uint256"
                }
            ],
            "name": "sessionToOwner",
            "outputs": [
                {
                    "internalType": "address",
                    "name": "",
                    "type": "address"
                }
            ],
            "stateMutability": "view",
            "type": "function"
        },
        {
            "inputs": [
                {
                    "internalType": "uint256",
                    "name": "",
                    "type": "uint256"
                }
            ],
            "name": "sessions",
            "outputs": [
                {
                    "internalType": "uint256",
                    "name": "sessionId",
                    "type": "uint256"
                },
                {
                    "internalType": "uint256",
                    "name": "endDateTime",
                    "type": "uint256"
                },
                {
                    "internalType": "string",
                    "name": "label",
                    "type": "string"
                },
                {
                    "internalType": "string",
                    "name": "description",
                    "type": "string"
                }
            ],
            "stateMutability": "view",
            "type": "function"
        },
        {
            "inputs": [
                {
                    "internalType": "uint256",
                    "name": "_fee",
                    "type": "uint256"
                }
            ],
            "name": "setCreateSessionFee",
            "outputs": [],
            "stateMutability": "nonpayable",
            "type": "function"
        },
        {
            "inputs": [
                {
                    "internalType": "address",
                    "name": "newOwner",
                    "type": "address"
                }
            ],
            "name": "transferOwnership",
            "outputs": [],
            "stateMutability": "nonpayable",
            "type": "function"
        },
        {
            "inputs": [],
            "name": "voteCount",
            "outputs": [
                {
                    "internalType": "uint256",
                    "name": "",
                    "type": "uint256"
                }
            ],
            "stateMutability": "view",
            "type": "function"
        },
        {
            "inputs": [
                {
                    "internalType": "uint256",
                    "name": "",
                    "type": "uint256"
                }
            ],
            "name": "votes",
            "outputs": [
                {
                    "internalType": "uint256",
                    "name": "sessionId",
                    "type": "uint256"
                }
            ],
            "stateMutability": "view",
            "type": "function"
        },
        {
            "inputs": [],
            "name": "withdraw",
            "outputs": [],
            "stateMutability": "nonpayable",
            "type": "function"
        }
    ],
    "bytecode": "0x6080604052600460025566038d7ea4c680006006553480156200002157600080fd5b5062000042620000366200004860201b60201c565b6200005060201b60201c565b62000114565b600033905090565b60008060009054906101000a900473ffffffffffffffffffffffffffffffffffffffff169050816000806101000a81548173ffffffffffffffffffffffffffffffffffffffff021916908373ffffffffffffffffffffffffffffffffffffffff1602179055508173ffffffffffffffffffffffffffffffffffffffff168173ffffffffffffffffffffffffffffffffffffffff167f8be0079c531659141344cd1fd0a4f28419497f9722a3daafe3b4186f6b6457e060405160405180910390a35050565b61332980620001246000396000f3fe6080604052600436106101145760003560e01c806373cd8336116100a0578063a9faac4411610064578063a9faac4414610397578063bc72f075146103d4578063c6384071146103fd578063f2fde38b14610428578063f6fd7fde1461045157610114565b806373cd8336146102a857806383c4b7a3146102d35780638da5cb5b146103135780639c841e621461033e5780639dc489081461035a57610114565b8063402ff0db116100e7578063402ff0db146101af5780634d6861a6146101ec5780635df813301461022957806361503e4514610266578063715018a61461029157610114565b806307c538d0146101195780630ae7c547146101445780630f693caf1461016f5780633ccfd60b14610198575b600080fd5b34801561012557600080fd5b5061012e61048f565b60405161013b91906121d9565b60405180910390f35b34801561015057600080fd5b50610159610594565b60405161016691906121d9565b60405180910390f35b34801561017b57600080fd5b5061019660048036038101906101919190612383565b6107e7565b005b3480156101a457600080fd5b506101ad610a87565b005b3480156101bb57600080fd5b506101d660048036038101906101d191906123df565b610aeb565b6040516101e3919061254f565b60405180910390f35b3480156101f857600080fd5b50610213600480360381019061020e91906123df565b610e1f565b604051610220919061258c565b60405180910390f35b34801561023557600080fd5b50610250600480360381019061024b91906123df565b610e50565b60405161025d91906125b6565b60405180910390f35b34801561027257600080fd5b5061027b610e7e565b60405161028891906121d9565b60405180910390f35b34801561029d57600080fd5b506102a6611015565b005b3480156102b457600080fd5b506102bd611029565b6040516102ca91906125b6565b60405180910390f35b3480156102df57600080fd5b506102fa60048036038101906102f591906123df565b611036565b60405161030a949392919061261b565b60405180910390f35b34801561031f57600080fd5b50610328611186565b60405161033591906126af565b60405180910390f35b61035860048036038101906103539190612860565b6111af565b005b34801561036657600080fd5b50610381600480360381019061037c919061291b565b611376565b60405161038e91906125b6565b60405180910390f35b3480156103a357600080fd5b506103be60048036038101906103b991906123df565b6113a7565b6040516103cb91906126af565b60405180910390f35b3480156103e057600080fd5b506103fb60048036038101906103f691906123df565b6113da565b005b34801561040957600080fd5b506104126113ec565b60405161041f91906125b6565b60405180910390f35b34801561043457600080fd5b5061044f600480360381019061044a9190612987565b6113f9565b005b34801561045d57600080fd5b50610478600480360381019061047391906123df565b61147c565b6040516104869291906129b4565b60405180910390f35b6060600061049b611538565b90506000815167ffffffffffffffff8111156104ba576104b9612240565b5b6040519080825280602002602001820160405280156104f357816020015b6104e0611e1d565b8152602001906001900390816104d85790505b5090506000805b835181101561058a5761052a848281518110610519576105186129e4565b5b60200260200101516000015161178a565b1561057757838181518110610542576105416129e4565b5b602002602001015183838151811061055d5761055c6129e4565b5b6020026020010181905250818061057390612a42565b9250505b808061058290612a42565b9150506104fa565b5081935050505090565b606060006105a061186d565b67ffffffffffffffff8111156105b9576105b8612240565b5b6040519080825280602002602001820160405280156105f257816020015b6105df611e1d565b8152602001906001900390816105d75790505b5090506000805b6003805490508110156107de576106346003828154811061061d5761061c6129e4565b5b906000526020600020906004020160000154610e1f565b156107cb576003818154811061064d5761064c6129e4565b5b9060005260206000209060040201604051806080016040529081600082015481526020016001820154815260200160028201805461068a90612ab9565b80601f01602080910402602001604051908101604052809291908181526020018280546106b690612ab9565b80156107035780601f106106d857610100808354040283529160200191610703565b820191906000526020600020905b8154815290600101906020018083116106e657829003601f168201915b5050505050815260200160038201805461071c90612ab9565b80601f016020809104026020016040519081016040528092919081815260200182805461074890612ab9565b80156107955780601f1061076a57610100808354040283529160200191610795565b820191906000526020600020905b81548152906001019060200180831161077857829003601f168201915b5050505050815250508383815181106107b1576107b06129e4565b5b602002602001018190525081806107c790612a42565b9250505b80806107d690612a42565b9150506105f9565b50819250505090565b81816107f2826118e1565b610831576040517f08c379a000000000000000000000000000000000000000000000000000000000815260040161082890612b36565b60405180910390fd5b61083a826118f2565b1561087a576040517f08c379a000000000000000000000000000000000000000000000000000000000815260040161087190612ba2565b60405180910390fd5b6108848282611905565b6108c3576040517f08c379a00000000000000000000000000000000000000000000000000000000081526004016108ba90612c34565b60405180910390fd5b6108cc8261178a565b1561090c576040517f08c379a000000000000000000000000000000000000000000000000000000000815260040161090390612ca0565b60405180910390fd5b60076040518060400160405280868152602001858152509080600181540180825580915050600190039060005260206000209060020201600090919091909150600082015181600001556020820151816001019080519060200190610972929190611e45565b505050600060016007805490506109899190612cc0565b9050336008600083815260200190815260200160002060006101000a81548173ffffffffffffffffffffffffffffffffffffffff021916908373ffffffffffffffffffffffffffffffffffffffff1602179055506007600960003373ffffffffffffffffffffffffffffffffffffffff1673ffffffffffffffffffffffffffffffffffffffff168152602001908152602001600020908054610a2c929190611e92565b5084600a6000838152602001908152602001600020819055507f83f89aa3151a6342b09e093d51aede8abf5947bebe813d3f0c067a7d0236e4bf818686604051610a7893929190612da3565b60405180910390a15050505050565b610a8f6119d5565b60004790506000610a9e611186565b90508073ffffffffffffffffffffffffffffffffffffffff166108fc839081150290604051600060405180830381858888f19350505050158015610ae6573d6000803e3d6000fd5b505050565b610af3611f0b565b600060025467ffffffffffffffff811115610b1157610b10612240565b5b604051908082528060200260200182016040528015610b4a57816020015b610b37611f2b565b815260200190600190039081610b2f5790505b50905060005b6005600085815260200190815260200160002080549050811015610c97576001600560008681526020019081526020016000208281548110610b9557610b946129e4565b5b906000526020600020015481548110610bb157610bb06129e4565b5b906000526020600020906002020160405180604001604052908160008201548152602001600182018054610be490612ab9565b80601f0160208091040260200160405190810160405280929190818152602001828054610c1090612ab9565b8015610c5d5780601f10610c3257610100808354040283529160200191610c5d565b820191906000526020600020905b815481529060010190602001808311610c4057829003601f168201915b505050505081525050828281518110610c7957610c786129e4565b5b60200260200101819052508080610c8f90612a42565b915050610b50565b506000604051806040016040528060038681548110610cb957610cb86129e4565b5b90600052602060002090600402016040518060800160405290816000820154815260200160018201548152602001600282018054610cf690612ab9565b80601f0160208091040260200160405190810160405280929190818152602001828054610d2290612ab9565b8015610d6f5780601f10610d4457610100808354040283529160200191610d6f565b820191906000526020600020905b815481529060010190602001808311610d5257829003601f168201915b50505050508152602001600382018054610d8890612ab9565b80601f0160208091040260200160405190810160405280929190818152602001828054610db490612ab9565b8015610e015780601f10610dd657610100808354040283529160200191610e01565b820191906000526020600020905b815481529060010190602001808311610de457829003601f168201915b50505050508152505081526020018381525090508092505050919050565b60004260038381548110610e3657610e356129e4565b5b906000526020600020906004020160010154119050919050565b60078181548110610e6057600080fd5b90600052602060002090600202016000915090508060000154905081565b60606003805480602002602001604051908101604052809291908181526020016000905b8282101561100c57838290600052602060002090600402016040518060800160405290816000820154815260200160018201548152602001600282018054610ee990612ab9565b80601f0160208091040260200160405190810160405280929190818152602001828054610f1590612ab9565b8015610f625780601f10610f3757610100808354040283529160200191610f62565b820191906000526020600020905b815481529060010190602001808311610f4557829003601f168201915b50505050508152602001600382018054610f7b90612ab9565b80601f0160208091040260200160405190810160405280929190818152602001828054610fa790612ab9565b8015610ff45780601f10610fc957610100808354040283529160200191610ff4565b820191906000526020600020905b815481529060010190602001808311610fd757829003601f168201915b50505050508152505081526020019060010190610ea2565b50505050905090565b61101d6119d5565b6110276000611a53565b565b6000600380549050905090565b6003818154811061104657600080fd5b906000526020600020906004020160009150905080600001549080600101549080600201805461107590612ab9565b80601f01602080910402602001604051908101604052809291908181526020018280546110a190612ab9565b80156110ee5780601f106110c3576101008083540402835291602001916110ee565b820191906000526020600020905b8154815290600101906020018083116110d157829003601f168201915b50505050509080600301805461110390612ab9565b80601f016020809104026020016040519081016040528092919081815260200182805461112f90612ab9565b801561117c5780601f106111515761010080835404028352916020019161117c565b820191906000526020600020905b81548152906001019060200180831161115f57829003601f168201915b5050505050905084565b60008060009054906101000a900473ffffffffffffffffffffffffffffffffffffffff16905090565b6111b7611186565b73ffffffffffffffffffffffffffffffffffffffff163373ffffffffffffffffffffffffffffffffffffffff161461122e57600654341461122d576040517f08c379a000000000000000000000000000000000000000000000000000000000815260040161122490612e2d565b60405180910390fd5b5b60006003805490509050600060405180608001604052808381526020018581526020018781526020018681525090506003819080600181540180825580915050600190039060005260206000209060040201600090919091909150600082015181600001556020820151816001015560408201518160020190816112b29190612ff9565b5060608201518160030190816112c89190612ff9565b505050336004600084815260200190815260200160002060006101000a81548173ffffffffffffffffffffffffffffffffffffffff021916908373ffffffffffffffffffffffffffffffffffffffff1602179055506113278383611b17565b7fc15b3d50eeeed090d36acebfceb7fba18ecfdb2f92791ec72fb665041f71527c8287878761135587611b9d565b60405161136695949392919061318d565b60405180910390a1505050505050565b6005602052816000526040600020818154811061139257600080fd5b90600052602060002001600091509150505481565b60046020528060005260406000206000915054906101000a900473ffffffffffffffffffffffffffffffffffffffff1681565b6113e26119d5565b8060068190555050565b6000600780549050905090565b6114016119d5565b600073ffffffffffffffffffffffffffffffffffffffff168173ffffffffffffffffffffffffffffffffffffffff1603611470576040517f08c379a000000000000000000000000000000000000000000000000000000000815260040161146790613267565b60405180910390fd5b61147981611a53565b50565b6001818154811061148c57600080fd5b90600052602060002090600202016000915090508060000154908060010180546114b590612ab9565b80601f01602080910402602001604051908101604052809291908181526020018280546114e190612ab9565b801561152e5780601f106115035761010080835404028352916020019161152e565b820191906000526020600020905b81548152906001019060200180831161151157829003601f168201915b5050505050905082565b60606000611544611d2c565b67ffffffffffffffff81111561155d5761155c612240565b5b60405190808252806020026020018201604052801561159657816020015b611583611e1d565b81526020019060019003908161157b5790505b5090506000805b600380549050811015611781576115d8600382815481106115c1576115c06129e4565b5b906000526020600020906004020160000154610e1f565b61176e57600381815481106115f0576115ef6129e4565b5b9060005260206000209060040201604051806080016040529081600082015481526020016001820154815260200160028201805461162d90612ab9565b80601f016020809104026020016040519081016040528092919081815260200182805461165990612ab9565b80156116a65780601f1061167b576101008083540402835291602001916116a6565b820191906000526020600020905b81548152906001019060200180831161168957829003601f168201915b505050505081526020016003820180546116bf90612ab9565b80601f01602080910402602001604051908101604052809291908181526020018280546116eb90612ab9565b80156117385780601f1061170d57610100808354040283529160200191611738565b820191906000526020600020905b81548152906001019060200180831161171b57829003601f168201915b505050505081525050838381518110611754576117536129e4565b5b6020026020010181905250818061176a90612a42565b9250505b808061177990612a42565b91505061159d565b50819250505090565b600080600090505b600960003373ffffffffffffffffffffffffffffffffffffffff1673ffffffffffffffffffffffffffffffffffffffff168152602001908152602001600020805490508110156118625782600960003373ffffffffffffffffffffffffffffffffffffffff1673ffffffffffffffffffffffffffffffffffffffff168152602001908152602001600020828154811061182e5761182d6129e4565b5b9060005260206000209060020201600001540361184f576001915050611868565b808061185a90612a42565b915050611792565b50600090505b919050565b6000806000905060005b6003805490508110156118d9576118b26003828154811061189b5761189a6129e4565b5b906000526020600020906004020160000154610e1f565b156118c65781806118c290612a42565b9250505b80806118d190612a42565b915050611877565b508091505090565b600060038054905082109050919050565b60006118fd82610e1f565b159050919050565b600080600090505b82518110156119c9576000805b60056000878152602001908152602001600020805490508110156119a45760056000878152602001908152602001600020818154811061195d5761195c6129e4565b5b906000526020600020015485848151811061197b5761197a6129e4565b5b60200260200101510361199157600191506119a4565b808061199c90612a42565b91505061191a565b50806119b5576000925050506119cf565b5080806119c190612a42565b91505061190d565b50600190505b92915050565b6119dd611d9f565b73ffffffffffffffffffffffffffffffffffffffff166119fb611186565b73ffffffffffffffffffffffffffffffffffffffff1614611a51576040517f08c379a0000000000000000000000000000000000000000000000000000000008152600401611a48906132d3565b60405180910390fd5b565b60008060009054906101000a900473ffffffffffffffffffffffffffffffffffffffff169050816000806101000a81548173ffffffffffffffffffffffffffffffffffffffff021916908373ffffffffffffffffffffffffffffffffffffffff1602179055508173ffffffffffffffffffffffffffffffffffffffff168173ffffffffffffffffffffffffffffffffffffffff167f8be0079c531659141344cd1fd0a4f28419497f9722a3daafe3b4186f6b6457e060405160405180910390a35050565b60005b8251811015611b98576000611b48848381518110611b3b57611b3a6129e4565b5b6020026020010151611da7565b905060056000848152602001908152602001600020819080600181540180825580915050600190039060005260206000200160009091909190915055508080611b9090612a42565b915050611b1a565b505050565b6060600060025467ffffffffffffffff811115611bbd57611bbc612240565b5b604051908082528060200260200182016040528015611bf057816020015b6060815260200190600190039081611bdb5790505b50905060005b6005600085815260200190815260200160002080549050811015611d22576001600560008681526020019081526020016000208281548110611c3b57611c3a6129e4565b5b906000526020600020015481548110611c5757611c566129e4565b5b90600052602060002090600202016001018054611c7390612ab9565b80601f0160208091040260200160405190810160405280929190818152602001828054611c9f90612ab9565b8015611cec5780601f10611cc157610100808354040283529160200191611cec565b820191906000526020600020905b815481529060010190602001808311611ccf57829003601f168201915b5050505050828281518110611d0457611d036129e4565b5b60200260200101819052508080611d1a90612a42565b915050611bf6565b5080915050919050565b6000806000905060005b600380549050811015611d9757611d7160038281548110611d5a57611d596129e4565b5b906000526020600020906004020160000154610e1f565b611d84578180611d8090612a42565b9250505b8080611d8f90612a42565b915050611d36565b508091505090565b600033905090565b600080600180549050905060016040518060400160405280838152602001858152509080600181540180825580915050600190039060005260206000209060020201600090919091909150600082015181600001556020820151816001019081611e119190612ff9565b50505080915050919050565b6040518060800160405280600081526020016000815260200160608152602001606081525090565b828054828255906000526020600020908101928215611e81579160200282015b82811115611e80578251825591602001919060010190611e65565b5b509050611e8e9190611f45565b5090565b828054828255906000526020600020906002028101928215611efa5760005260206000209160020282015b82811115611ef9578282600082015481600001556001820181600101908054611ee7929190611f62565b50505091600201919060020190611ebd565b5b509050611f079190611fb4565b5090565b6040518060400160405280611f1e611e1d565b8152602001606081525090565b604051806040016040528060008152602001606081525090565b5b80821115611f5e576000816000905550600101611f46565b5090565b828054828255906000526020600020908101928215611fa35760005260206000209182015b82811115611fa2578254825591600101919060010190611f87565b5b509050611fb09190611f45565b5090565b5b80821115611fdf57600080820160009055600182016000611fd69190611fe3565b50600201611fb5565b5090565b50805460008255906000526020600020908101906120019190611f45565b50565b600081519050919050565b600082825260208201905092915050565b6000819050602082019050919050565b6000819050919050565b61204381612030565b82525050565b600081519050919050565b600082825260208201905092915050565b60005b83811015612083578082015181840152602081019050612068565b60008484015250505050565b6000601f19601f8301169050919050565b60006120ab82612049565b6120b58185612054565b93506120c5818560208601612065565b6120ce8161208f565b840191505092915050565b60006080830160008301516120f1600086018261203a565b506020830151612104602086018261203a565b506040830151848203604086015261211c82826120a0565b9150506060830151848203606086015261213682826120a0565b9150508091505092915050565b600061214f83836120d9565b905092915050565b6000602082019050919050565b600061216f82612004565b612179818561200f565b93508360208202850161218b85612020565b8060005b858110156121c757848403895281516121a88582612143565b94506121b383612157565b925060208a0199505060018101905061218f565b50829750879550505050505092915050565b600060208201905081810360008301526121f38184612164565b905092915050565b6000604051905090565b600080fd5b600080fd5b61221881612030565b811461222357600080fd5b50565b6000813590506122358161220f565b92915050565b600080fd5b7f4e487b7100000000000000000000000000000000000000000000000000000000600052604160045260246000fd5b6122788261208f565b810181811067ffffffffffffffff8211171561229757612296612240565b5b80604052505050565b60006122aa6121fb565b90506122b6828261226f565b919050565b600067ffffffffffffffff8211156122d6576122d5612240565b5b602082029050602081019050919050565b600080fd5b60006122ff6122fa846122bb565b6122a0565b90508083825260208201905060208402830185811115612322576123216122e7565b5b835b8181101561234b57806123378882612226565b845260208401935050602081019050612324565b5050509392505050565b600082601f83011261236a5761236961223b565b5b813561237a8482602086016122ec565b91505092915050565b6000806040838503121561239a57612399612205565b5b60006123a885828601612226565b925050602083013567ffffffffffffffff8111156123c9576123c861220a565b5b6123d585828601612355565b9150509250929050565b6000602082840312156123f5576123f4612205565b5b600061240384828501612226565b91505092915050565b600081519050919050565b600082825260208201905092915050565b6000819050602082019050919050565b6000604083016000830151612450600086018261203a565b506020830151848203602086015261246882826120a0565b9150508091505092915050565b60006124818383612438565b905092915050565b6000602082019050919050565b60006124a18261240c565b6124ab8185612417565b9350836020820285016124bd85612428565b8060005b858110156124f957848403895281516124da8582612475565b94506124e583612489565b925060208a019950506001810190506124c1565b50829750879550505050505092915050565b6000604083016000830151848203600086015261252882826120d9565b915050602083015184820360208601526125428282612496565b9150508091505092915050565b60006020820190508181036000830152612569818461250b565b905092915050565b60008115159050919050565b61258681612571565b82525050565b60006020820190506125a1600083018461257d565b92915050565b6125b081612030565b82525050565b60006020820190506125cb60008301846125a7565b92915050565b600082825260208201905092915050565b60006125ed82612049565b6125f781856125d1565b9350612607818560208601612065565b6126108161208f565b840191505092915050565b600060808201905061263060008301876125a7565b61263d60208301866125a7565b818103604083015261264f81856125e2565b9050818103606083015261266381846125e2565b905095945050505050565b600073ffffffffffffffffffffffffffffffffffffffff82169050919050565b60006126998261266e565b9050919050565b6126a98161268e565b82525050565b60006020820190506126c460008301846126a0565b92915050565b600080fd5b600067ffffffffffffffff8211156126ea576126e9612240565b5b6126f38261208f565b9050602081019050919050565b82818337600083830152505050565b600061272261271d846126cf565b6122a0565b90508281526020810184848401111561273e5761273d6126ca565b5b612749848285612700565b509392505050565b600082601f8301126127665761276561223b565b5b813561277684826020860161270f565b91505092915050565b600067ffffffffffffffff82111561279a57612799612240565b5b602082029050602081019050919050565b60006127be6127b98461277f565b6122a0565b905080838252602082019050602084028301858111156127e1576127e06122e7565b5b835b8181101561282857803567ffffffffffffffff8111156128065761280561223b565b5b8086016128138982612751565b855260208501945050506020810190506127e3565b5050509392505050565b600082601f8301126128475761284661223b565b5b81356128578482602086016127ab565b91505092915050565b6000806000806080858703121561287a57612879612205565b5b600085013567ffffffffffffffff8111156128985761289761220a565b5b6128a487828801612751565b945050602085013567ffffffffffffffff8111156128c5576128c461220a565b5b6128d187828801612751565b93505060406128e287828801612226565b925050606085013567ffffffffffffffff8111156129035761290261220a565b5b61290f87828801612832565b91505092959194509250565b6000806040838503121561293257612931612205565b5b600061294085828601612226565b925050602061295185828601612226565b9150509250929050565b6129648161268e565b811461296f57600080fd5b50565b6000813590506129818161295b565b92915050565b60006020828403121561299d5761299c612205565b5b60006129ab84828501612972565b91505092915050565b60006040820190506129c960008301856125a7565b81810360208301526129db81846125e2565b90509392505050565b7f4e487b7100000000000000000000000000000000000000000000000000000000600052603260045260246000fd5b7f4e487b7100000000000000000000000000000000000000000000000000000000600052601160045260246000fd5b6000612a4d82612030565b91507fffffffffffffffffffffffffffffffffffffffffffffffffffffffffffffffff8203612a7f57612a7e612a13565b5b600182019050919050565b7f4e487b7100000000000000000000000000000000000000000000000000000000600052602260045260246000fd5b60006002820490506001821680612ad157607f821691505b602082108103612ae457612ae3612a8a565b5b50919050565b7f53657373696f6e20646f6573206e6f742065786973742e000000000000000000600082015250565b6000612b206017836125d1565b9150612b2b82612aea565b602082019050919050565b60006020820190508181036000830152612b4f81612b13565b9050919050565b7f53657373696f6e20697320636c6f7365642e0000000000000000000000000000600082015250565b6000612b8c6012836125d1565b9150612b9782612b56565b602082019050919050565b60006020820190508181036000830152612bbb81612b7f565b9050919050565b7f43686f6963652069647320646f206e6f7420657869737420666f72207468697360008201527f2073657373696f6e2e0000000000000000000000000000000000000000000000602082015250565b6000612c1e6029836125d1565b9150612c2982612bc2565b604082019050919050565b60006020820190508181036000830152612c4d81612c11565b9050919050565b7f596f75206861766520616c726561647920766f7465642e000000000000000000600082015250565b6000612c8a6017836125d1565b9150612c9582612c54565b602082019050919050565b60006020820190508181036000830152612cb981612c7d565b9050919050565b6000612ccb82612030565b9150612cd683612030565b9250828203905081811115612cee57612ced612a13565b5b92915050565b600081519050919050565b600082825260208201905092915050565b6000819050602082019050919050565b6000612d2c838361203a565b60208301905092915050565b6000602082019050919050565b6000612d5082612cf4565b612d5a8185612cff565b9350612d6583612d10565b8060005b83811015612d96578151612d7d8882612d20565b9750612d8883612d38565b925050600181019050612d69565b5085935050505092915050565b6000606082019050612db860008301866125a7565b612dc560208301856125a7565b8181036040830152612dd78184612d45565b9050949350505050565b7f5472616e7366657220616d6f756e74206973206e6f7420636f72726563742e00600082015250565b6000612e17601f836125d1565b9150612e2282612de1565b602082019050919050565b60006020820190508181036000830152612e4681612e0a565b9050919050565b60008190508160005260206000209050919050565b60006020601f8301049050919050565b600082821b905092915050565b600060088302612eaf7fffffffffffffffffffffffffffffffffffffffffffffffffffffffffffffffff82612e72565b612eb98683612e72565b95508019841693508086168417925050509392505050565b6000819050919050565b6000612ef6612ef1612eec84612030565b612ed1565b612030565b9050919050565b6000819050919050565b612f1083612edb565b612f24612f1c82612efd565b848454612e7f565b825550505050565b600090565b612f39612f2c565b612f44818484612f07565b505050565b5b81811015612f6857612f5d600082612f31565b600181019050612f4a565b5050565b601f821115612fad57612f7e81612e4d565b612f8784612e62565b81016020851015612f96578190505b612faa612fa285612e62565b830182612f49565b50505b505050565b600082821c905092915050565b6000612fd060001984600802612fb2565b1980831691505092915050565b6000612fe98383612fbf565b9150826002028217905092915050565b61300282612049565b67ffffffffffffffff81111561301b5761301a612240565b5b6130258254612ab9565b613030828285612f6c565b600060209050601f8311600181146130635760008415613051578287015190505b61305b8582612fdd565b8655506130c3565b601f19841661307186612e4d565b60005b8281101561309957848901518255600182019150602085019450602081019050613074565b868310156130b657848901516130b2601f891682612fbf565b8355505b6001600288020188555050505b505050505050565b600081519050919050565b600082825260208201905092915050565b6000819050602082019050919050565b600061310383836120a0565b905092915050565b6000602082019050919050565b6000613123826130cb565b61312d81856130d6565b93508360208202850161313f856130e7565b8060005b8581101561317b578484038952815161315c85826130f7565b94506131678361310b565b925060208a01995050600181019050613143565b50829750879550505050505092915050565b600060a0820190506131a260008301886125a7565b81810360208301526131b481876125e2565b905081810360408301526131c881866125e2565b90506131d760608301856125a7565b81810360808301526131e98184613118565b90509695505050505050565b7f4f776e61626c653a206e6577206f776e657220697320746865207a65726f206160008201527f6464726573730000000000000000000000000000000000000000000000000000602082015250565b60006132516026836125d1565b915061325c826131f5565b604082019050919050565b6000602082019050818103600083015261328081613244565b9050919050565b7f4f776e61626c653a2063616c6c6572206973206e6f7420746865206f776e6572600082015250565b60006132bd6020836125d1565b91506132c882613287565b602082019050919050565b600060208201905081810360008301526132ec816132b0565b905091905056fea2646970667358221220bd25aed572d0907e99292a27023b1932562395466bf347401b2da85c14d79e1e64736f6c63430008110033",
    "linkReferences": {},
    "deployedLinkReferences": {}
}