{
    "_format": "hh-sol-artifact-1",
    "contractName": "Donation",
    "sourceName": "contracts/Donation.sol",
    "abi": [
        {
            "anonymous": false,
            "inputs": [
                {
                    "indexed": true,
                    "internalType": "address",
                    "name": "donor",
                    "type": "address"
                },
                {
                    "indexed": false,
                    "internalType": "uint256",
                    "name": "value",
                    "type": "uint256"
                }
            ],
            "name": "NewDonation",
            "type": "event"
        },
        {
            "anonymous": false,
            "inputs": [
                {
                    "indexed": true,
                    "internalType": "address",
                    "name": "previousOwner",
                    "type": "address"
                },
                {
                    "indexed": true,
                    "internalType": "address",
                    "name": "newOwner",
                    "type": "address"
                }
            ],
            "name": "OwnershipTransferred",
            "type": "event"
        },
        {
            "inputs": [],
            "name": "donate",
            "outputs": [],
            "stateMutability": "payable",
            "type": "function"
        },
        {
            "inputs": [],
            "name": "getHighestDonation",
            "outputs": [
                {
                    "internalType": "uint256",
                    "name": "",
                    "type": "uint256"
                },
                {
                    "internalType": "address payable",
                    "name": "",
                    "type": "address"
                }
            ],
            "stateMutability": "view",
            "type": "function"
        },
        {
            "inputs": [],
            "name": "getTotalDonationsAmount",
            "outputs": [
                {
                    "internalType": "uint256",
                    "name": "",
                    "type": "uint256"
                }
            ],
            "stateMutability": "view",
            "type": "function"
        },
        {
            "inputs": [],
            "name": "owner",
            "outputs": [
                {
                    "internalType": "address",
                    "name": "",
                    "type": "address"
                }
            ],
            "stateMutability": "view",
            "type": "function"
        },
        {
            "inputs": [],
            "name": "renounceOwnership",
            "outputs": [],
            "stateMutability": "nonpayable",
            "type": "function"
        },
        {
            "inputs": [
                {
                    "internalType": "address",
                    "name": "newOwner",
                    "type": "address"
                }
            ],
            "name": "transferOwnership",
            "outputs": [],
            "stateMutability": "nonpayable",
            "type": "function"
        }
    ],
    "bytecode": "0x608060405273b815fc4f08eda9876d1abee1db5a5c20b12dea35600160006101000a81548173ffffffffffffffffffffffffffffffffffffffff021916908373ffffffffffffffffffffffffffffffffffffffff16021790555034801561006557600080fd5b5061008261007761008760201b60201c565b61008f60201b60201c565b610153565b600033905090565b60008060009054906101000a900473ffffffffffffffffffffffffffffffffffffffff169050816000806101000a81548173ffffffffffffffffffffffffffffffffffffffff021916908373ffffffffffffffffffffffffffffffffffffffff1602179055508173ffffffffffffffffffffffffffffffffffffffff168173ffffffffffffffffffffffffffffffffffffffff167f8be0079c531659141344cd1fd0a4f28419497f9722a3daafe3b4186f6b6457e060405160405180910390a35050565b61086e806101626000396000f3fe6080604052600436106100555760003560e01c8063141b88091461005a578063715018a6146100855780638da5cb5b1461009c578063ed88c68e146100c7578063efb349af146100d1578063f2fde38b146100fd575b600080fd5b34801561006657600080fd5b5061006f610126565b60405161007c91906104f3565b60405180910390f35b34801561009157600080fd5b5061009a610130565b005b3480156100a857600080fd5b506100b1610144565b6040516100be919061054f565b60405180910390f35b6100cf61016d565b005b3480156100dd57600080fd5b506100e66102db565b6040516100f492919061058b565b60405180910390f35b34801561010957600080fd5b50610124600480360381019061011f91906105e5565b61030c565b005b6000600254905090565b610138610390565b610142600061040e565b565b60008060009054906101000a900473ffffffffffffffffffffffffffffffffffffffff16905090565b600034116101b0576040517f08c379a00000000000000000000000000000000000000000000000000000000081526004016101a790610695565b60405180910390fd5b6000349050600160009054906101000a900473ffffffffffffffffffffffffffffffffffffffff1673ffffffffffffffffffffffffffffffffffffffff166108fc349081150290604051600060405180830381858888f1935050505015801561021d573d6000803e3d6000fd5b503373ffffffffffffffffffffffffffffffffffffffff167f0e04c8e83a5595ba6381972e5e9fe2926bb0a7439dace880c83ccc34b99c54773460405161026491906104f3565b60405180910390a2806002600082825461027e91906106e4565b925050819055506003543411156102d8573460038190555033600460006101000a81548173ffffffffffffffffffffffffffffffffffffffff021916908373ffffffffffffffffffffffffffffffffffffffff1602179055505b50565b600080600354600460009054906101000a900473ffffffffffffffffffffffffffffffffffffffff16915091509091565b610314610390565b600073ffffffffffffffffffffffffffffffffffffffff168173ffffffffffffffffffffffffffffffffffffffff161415610384576040517f08c379a000000000000000000000000000000000000000000000000000000000815260040161037b906107ac565b60405180910390fd5b61038d8161040e565b50565b6103986104d2565b73ffffffffffffffffffffffffffffffffffffffff166103b6610144565b73ffffffffffffffffffffffffffffffffffffffff161461040c576040517f08c379a000000000000000000000000000000000000000000000000000000000815260040161040390610818565b60405180910390fd5b565b60008060009054906101000a900473ffffffffffffffffffffffffffffffffffffffff169050816000806101000a81548173ffffffffffffffffffffffffffffffffffffffff021916908373ffffffffffffffffffffffffffffffffffffffff1602179055508173ffffffffffffffffffffffffffffffffffffffff168173ffffffffffffffffffffffffffffffffffffffff167f8be0079c531659141344cd1fd0a4f28419497f9722a3daafe3b4186f6b6457e060405160405180910390a35050565b600033905090565b6000819050919050565b6104ed816104da565b82525050565b600060208201905061050860008301846104e4565b92915050565b600073ffffffffffffffffffffffffffffffffffffffff82169050919050565b60006105398261050e565b9050919050565b6105498161052e565b82525050565b60006020820190506105646000830184610540565b92915050565b60006105758261050e565b9050919050565b6105858161056a565b82525050565b60006040820190506105a060008301856104e4565b6105ad602083018461057c565b9392505050565b600080fd5b6105c28161052e565b81146105cd57600080fd5b50565b6000813590506105df816105b9565b92915050565b6000602082840312156105fb576105fa6105b4565b5b6000610609848285016105d0565b91505092915050565b600082825260208201905092915050565b7f5472616e7366657220616d6f756e742068617320746f2062652067726561746560008201527f72207468616e20302e0000000000000000000000000000000000000000000000602082015250565b600061067f602983610612565b915061068a82610623565b604082019050919050565b600060208201905081810360008301526106ae81610672565b9050919050565b7f4e487b7100000000000000000000000000000000000000000000000000000000600052601160045260246000fd5b60006106ef826104da565b91506106fa836104da565b9250827fffffffffffffffffffffffffffffffffffffffffffffffffffffffffffffffff0382111561072f5761072e6106b5565b5b828201905092915050565b7f4f776e61626c653a206e6577206f776e657220697320746865207a65726f206160008201527f6464726573730000000000000000000000000000000000000000000000000000602082015250565b6000610796602683610612565b91506107a18261073a565b604082019050919050565b600060208201905081810360008301526107c581610789565b9050919050565b7f4f776e61626c653a2063616c6c6572206973206e6f7420746865206f776e6572600082015250565b6000610802602083610612565b915061080d826107cc565b602082019050919050565b60006020820190508181036000830152610831816107f5565b905091905056fea2646970667358221220a1b4fdf27049c510c8a1684271ad785815a84044446246cd8e6d38dce29efca464736f6c63430008090033",
    "linkReferences": {},
    "deployedLinkReferences": {}
}