{
    "_format": "hh-sol-artifact-1",
    "contractName": "VoteFactory",
    "sourceName": "contracts/VoteFactory.sol",
    "abi": [
        {
            "anonymous": false,
            "inputs": [
                {
                    "indexed": false,
                    "internalType": "uint256",
                    "name": "sessionId",
                    "type": "uint256"
                },
                {
                    "indexed": false,
                    "internalType": "string",
                    "name": "label",
                    "type": "string"
                },
                {
                    "indexed": false,
                    "internalType": "string",
                    "name": "description",
                    "type": "string"
                },
                {
                    "indexed": false,
                    "internalType": "uint256",
                    "name": "endDateTime",
                    "type": "uint256"
                },
                {
                    "indexed": false,
                    "internalType": "string[]",
                    "name": "choiceIds",
                    "type": "string[]"
                }
            ],
            "name": "NewSession",
            "type": "event"
        },
        {
            "anonymous": false,
            "inputs": [
                {
                    "indexed": false,
                    "internalType": "uint256",
                    "name": "voteId",
                    "type": "uint256"
                },
                {
                    "indexed": false,
                    "internalType": "uint256",
                    "name": "sessionId",
                    "type": "uint256"
                },
                {
                    "indexed": false,
                    "internalType": "uint256[]",
                    "name": "choiceIds",
                    "type": "uint256[]"
                }
            ],
            "name": "NewVote",
            "type": "event"
        },
        {
            "anonymous": false,
            "inputs": [
                {
                    "indexed": true,
                    "internalType": "address",
                    "name": "previousOwner",
                    "type": "address"
                },
                {
                    "indexed": true,
                    "internalType": "address",
                    "name": "newOwner",
                    "type": "address"
                }
            ],
            "name": "OwnershipTransferred",
            "type": "event"
        },
        {
            "inputs": [
                {
                    "internalType": "uint256",
                    "name": "",
                    "type": "uint256"
                }
            ],
            "name": "choices",
            "outputs": [
                {
                    "internalType": "uint256",
                    "name": "choiceId",
                    "type": "uint256"
                },
                {
                    "internalType": "string",
                    "name": "label",
                    "type": "string"
                }
            ],
            "stateMutability": "view",
            "type": "function"
        },
        {
            "inputs": [
                {
                    "internalType": "string",
                    "name": "_label",
                    "type": "string"
                },
                {
                    "internalType": "string",
                    "name": "_description",
                    "type": "string"
                },
                {
                    "internalType": "uint256",
                    "name": "_endDateTime",
                    "type": "uint256"
                },
                {
                    "internalType": "string[]",
                    "name": "_choices",
                    "type": "string[]"
                }
            ],
            "name": "createSession",
            "outputs": [],
            "stateMutability": "nonpayable",
            "type": "function"
        },
        {
            "inputs": [
                {
                    "internalType": "uint256",
                    "name": "_sessionId",
                    "type": "uint256"
                },
                {
                    "internalType": "uint256[]",
                    "name": "_choiceIds",
                    "type": "uint256[]"
                }
            ],
            "name": "createVote",
            "outputs": [],
            "stateMutability": "nonpayable",
            "type": "function"
        },
        {
            "inputs": [
                {
                    "internalType": "uint256",
                    "name": "_sessionId",
                    "type": "uint256"
                }
            ],
            "name": "deleteSession",
            "outputs": [],
            "stateMutability": "nonpayable",
            "type": "function"
        },
        {
            "inputs": [],
            "name": "getClosedSessionsWhereSenderHasVoted",
            "outputs": [
                {
                    "components": [
                        {
                            "components": [
                                {
                                    "internalType": "uint256",
                                    "name": "sessionId",
                                    "type": "uint256"
                                },
                                {
                                    "internalType": "uint256",
                                    "name": "endDateTime",
                                    "type": "uint256"
                                },
                                {
                                    "internalType": "string",
                                    "name": "label",
                                    "type": "string"
                                },
                                {
                                    "internalType": "string",
                                    "name": "description",
                                    "type": "string"
                                }
                            ],
                            "internalType": "struct SessionFactory.Session",
                            "name": "session",
                            "type": "tuple"
                        },
                        {
                            "components": [
                                {
                                    "internalType": "uint256",
                                    "name": "choiceId",
                                    "type": "uint256"
                                },
                                {
                                    "internalType": "string",
                                    "name": "label",
                                    "type": "string"
                                }
                            ],
                            "internalType": "struct ChoiceFactory.Choice[]",
                            "name": "choices",
                            "type": "tuple[]"
                        },
                        {
                            "components": [
                                {
                                    "internalType": "uint256",
                                    "name": "sessionId",
                                    "type": "uint256"
                                },
                                {
                                    "internalType": "uint256[]",
                                    "name": "choiceIds",
                                    "type": "uint256[]"
                                }
                            ],
                            "internalType": "struct VoteFactory.Vote",
                            "name": "vote",
                            "type": "tuple"
                        },
                        {
                            "internalType": "bool",
                            "name": "hasVoted",
                            "type": "bool"
                        },
                        {
                            "internalType": "bool",
                            "name": "isClosed",
                            "type": "bool"
                        }
                    ],
                    "internalType": "struct VoteFactory.SessionInfoForSender[]",
                    "name": "",
                    "type": "tuple[]"
                }
            ],
            "stateMutability": "view",
            "type": "function"
        },
        {
            "inputs": [],
            "name": "getClosedSessionsWhereSenderIsCreator",
            "outputs": [
                {
                    "components": [
                        {
                            "components": [
                                {
                                    "internalType": "uint256",
                                    "name": "sessionId",
                                    "type": "uint256"
                                },
                                {
                                    "internalType": "uint256",
                                    "name": "endDateTime",
                                    "type": "uint256"
                                },
                                {
                                    "internalType": "string",
                                    "name": "label",
                                    "type": "string"
                                },
                                {
                                    "internalType": "string",
                                    "name": "description",
                                    "type": "string"
                                }
                            ],
                            "internalType": "struct SessionFactory.Session",
                            "name": "session",
                            "type": "tuple"
                        },
                        {
                            "components": [
                                {
                                    "internalType": "uint256",
                                    "name": "choiceId",
                                    "type": "uint256"
                                },
                                {
                                    "internalType": "string",
                                    "name": "label",
                                    "type": "string"
                                }
                            ],
                            "internalType": "struct ChoiceFactory.Choice[]",
                            "name": "choices",
                            "type": "tuple[]"
                        },
                        {
                            "components": [
                                {
                                    "internalType": "uint256",
                                    "name": "sessionId",
                                    "type": "uint256"
                                },
                                {
                                    "internalType": "uint256[]",
                                    "name": "choiceIds",
                                    "type": "uint256[]"
                                }
                            ],
                            "internalType": "struct VoteFactory.Vote",
                            "name": "vote",
                            "type": "tuple"
                        },
                        {
                            "internalType": "bool",
                            "name": "hasVoted",
                            "type": "bool"
                        },
                        {
                            "internalType": "bool",
                            "name": "isClosed",
                            "type": "bool"
                        }
                    ],
                    "internalType": "struct VoteFactory.SessionInfoForSender[]",
                    "name": "",
                    "type": "tuple[]"
                }
            ],
            "stateMutability": "view",
            "type": "function"
        },
        {
            "inputs": [],
            "name": "getOpenedSessions",
            "outputs": [
                {
                    "components": [
                        {
                            "internalType": "uint256",
                            "name": "sessionId",
                            "type": "uint256"
                        },
                        {
                            "internalType": "uint256",
                            "name": "endDateTime",
                            "type": "uint256"
                        },
                        {
                            "internalType": "string",
                            "name": "label",
                            "type": "string"
                        },
                        {
                            "internalType": "string",
                            "name": "description",
                            "type": "string"
                        }
                    ],
                    "internalType": "struct SessionFactory.Session[]",
                    "name": "",
                    "type": "tuple[]"
                }
            ],
            "stateMutability": "view",
            "type": "function"
        },
        {
            "inputs": [],
            "name": "getOpenedSessionsForSender",
            "outputs": [
                {
                    "components": [
                        {
                            "components": [
                                {
                                    "internalType": "uint256",
                                    "name": "sessionId",
                                    "type": "uint256"
                                },
                                {
                                    "internalType": "uint256",
                                    "name": "endDateTime",
                                    "type": "uint256"
                                },
                                {
                                    "internalType": "string",
                                    "name": "label",
                                    "type": "string"
                                },
                                {
                                    "internalType": "string",
                                    "name": "description",
                                    "type": "string"
                                }
                            ],
                            "internalType": "struct SessionFactory.Session",
                            "name": "session",
                            "type": "tuple"
                        },
                        {
                            "components": [
                                {
                                    "internalType": "uint256",
                                    "name": "choiceId",
                                    "type": "uint256"
                                },
                                {
                                    "internalType": "string",
                                    "name": "label",
                                    "type": "string"
                                }
                            ],
                            "internalType": "struct ChoiceFactory.Choice[]",
                            "name": "choices",
                            "type": "tuple[]"
                        },
                        {
                            "components": [
                                {
                                    "internalType": "uint256",
                                    "name": "sessionId",
                                    "type": "uint256"
                                },
                                {
                                    "internalType": "uint256[]",
                                    "name": "choiceIds",
                                    "type": "uint256[]"
                                }
                            ],
                            "internalType": "struct VoteFactory.Vote",
                            "name": "vote",
                            "type": "tuple"
                        },
                        {
                            "internalType": "bool",
                            "name": "hasVoted",
                            "type": "bool"
                        },
                        {
                            "internalType": "bool",
                            "name": "isClosed",
                            "type": "bool"
                        }
                    ],
                    "internalType": "struct VoteFactory.SessionInfoForSender[]",
                    "name": "",
                    "type": "tuple[]"
                }
            ],
            "stateMutability": "view",
            "type": "function"
        },
        {
            "inputs": [
                {
                    "internalType": "uint256",
                    "name": "_sessionId",
                    "type": "uint256"
                }
            ],
            "name": "getSession",
            "outputs": [
                {
                    "components": [
                        {
                            "components": [
                                {
                                    "internalType": "uint256",
                                    "name": "sessionId",
                                    "type": "uint256"
                                },
                                {
                                    "internalType": "uint256",
                                    "name": "endDateTime",
                                    "type": "uint256"
                                },
                                {
                                    "internalType": "string",
                                    "name": "label",
                                    "type": "string"
                                },
                                {
                                    "internalType": "string",
                                    "name": "description",
                                    "type": "string"
                                }
                            ],
                            "internalType": "struct SessionFactory.Session",
                            "name": "session",
                            "type": "tuple"
                        },
                        {
                            "components": [
                                {
                                    "internalType": "uint256",
                                    "name": "choiceId",
                                    "type": "uint256"
                                },
                                {
                                    "internalType": "string",
                                    "name": "label",
                                    "type": "string"
                                }
                            ],
                            "internalType": "struct ChoiceFactory.Choice[]",
                            "name": "choices",
                            "type": "tuple[]"
                        }
                    ],
                    "internalType": "struct SessionFactory.SessionWithChoice",
                    "name": "",
                    "type": "tuple"
                }
            ],
            "stateMutability": "view",
            "type": "function"
        },
        {
            "inputs": [
                {
                    "internalType": "uint256",
                    "name": "_sessionId",
                    "type": "uint256"
                }
            ],
            "name": "getSessionForSender",
            "outputs": [
                {
                    "components": [
                        {
                            "components": [
                                {
                                    "internalType": "uint256",
                                    "name": "sessionId",
                                    "type": "uint256"
                                },
                                {
                                    "internalType": "uint256",
                                    "name": "endDateTime",
                                    "type": "uint256"
                                },
                                {
                                    "internalType": "string",
                                    "name": "label",
                                    "type": "string"
                                },
                                {
                                    "internalType": "string",
                                    "name": "description",
                                    "type": "string"
                                }
                            ],
                            "internalType": "struct SessionFactory.Session",
                            "name": "session",
                            "type": "tuple"
                        },
                        {
                            "components": [
                                {
                                    "internalType": "uint256",
                                    "name": "choiceId",
                                    "type": "uint256"
                                },
                                {
                                    "internalType": "string",
                                    "name": "label",
                                    "type": "string"
                                }
                            ],
                            "internalType": "struct ChoiceFactory.Choice[]",
                            "name": "choices",
                            "type": "tuple[]"
                        },
                        {
                            "components": [
                                {
                                    "internalType": "uint256",
                                    "name": "sessionId",
                                    "type": "uint256"
                                },
                                {
                                    "internalType": "uint256[]",
                                    "name": "choiceIds",
                                    "type": "uint256[]"
                                }
                            ],
                            "internalType": "struct VoteFactory.Vote",
                            "name": "vote",
                            "type": "tuple"
                        },
                        {
                            "internalType": "bool",
                            "name": "hasVoted",
                            "type": "bool"
                        },
                        {
                            "internalType": "bool",
                            "name": "isClosed",
                            "type": "bool"
                        }
                    ],
                    "internalType": "struct VoteFactory.SessionInfoForSender",
                    "name": "",
                    "type": "tuple"
                }
            ],
            "stateMutability": "view",
            "type": "function"
        },
        {
            "inputs": [],
            "name": "getSessions",
            "outputs": [
                {
                    "components": [
                        {
                            "internalType": "uint256",
                            "name": "sessionId",
                            "type": "uint256"
                        },
                        {
                            "internalType": "uint256",
                            "name": "endDateTime",
                            "type": "uint256"
                        },
                        {
                            "internalType": "string",
                            "name": "label",
                            "type": "string"
                        },
                        {
                            "internalType": "string",
                            "name": "description",
                            "type": "string"
                        }
                    ],
                    "internalType": "struct SessionFactory.Session[]",
                    "name": "",
                    "type": "tuple[]"
                }
            ],
            "stateMutability": "view",
            "type": "function"
        },
        {
            "inputs": [
                {
                    "internalType": "uint256",
                    "name": "_sessionId",
                    "type": "uint256"
                }
            ],
            "name": "isOpen",
            "outputs": [
                {
                    "internalType": "bool",
                    "name": "",
                    "type": "bool"
                }
            ],
            "stateMutability": "view",
            "type": "function"
        },
        {
            "inputs": [],
            "name": "owner",
            "outputs": [
                {
                    "internalType": "address",
                    "name": "",
                    "type": "address"
                }
            ],
            "stateMutability": "view",
            "type": "function"
        },
        {
            "inputs": [],
            "name": "renounceOwnership",
            "outputs": [],
            "stateMutability": "nonpayable",
            "type": "function"
        },
        {
            "inputs": [],
            "name": "sessionCount",
            "outputs": [
                {
                    "internalType": "uint256",
                    "name": "",
                    "type": "uint256"
                }
            ],
            "stateMutability": "view",
            "type": "function"
        },
        {
            "inputs": [
                {
                    "internalType": "uint256",
                    "name": "",
                    "type": "uint256"
                },
                {
                    "internalType": "uint256",
                    "name": "",
                    "type": "uint256"
                }
            ],
            "name": "sessionToChoices",
            "outputs": [
                {
                    "internalType": "uint256",
                    "name": "",
                    "type": "uint256"
                }
            ],
            "stateMutability": "view",
            "type": "function"
        },
        {
            "inputs": [
                {
                    "internalType": "uint256",
                    "name": "",
                    "type": "uint256"
                }
            ],
            "name": "sessionToOwner",
            "outputs": [
                {
                    "internalType": "address",
                    "name": "",
                    "type": "address"
                }
            ],
            "stateMutability": "view",
            "type": "function"
        },
        {
            "inputs": [
                {
                    "internalType": "uint256",
                    "name": "",
                    "type": "uint256"
                }
            ],
            "name": "sessions",
            "outputs": [
                {
                    "internalType": "uint256",
                    "name": "sessionId",
                    "type": "uint256"
                },
                {
                    "internalType": "uint256",
                    "name": "endDateTime",
                    "type": "uint256"
                },
                {
                    "internalType": "string",
                    "name": "label",
                    "type": "string"
                },
                {
                    "internalType": "string",
                    "name": "description",
                    "type": "string"
                }
            ],
            "stateMutability": "view",
            "type": "function"
        },
        {
            "inputs": [
                {
                    "internalType": "address",
                    "name": "newOwner",
                    "type": "address"
                }
            ],
            "name": "transferOwnership",
            "outputs": [],
            "stateMutability": "nonpayable",
            "type": "function"
        },
        {
            "inputs": [
                {
                    "internalType": "uint256",
                    "name": "_sessionId",
                    "type": "uint256"
                },
                {
                    "internalType": "string",
                    "name": "label",
                    "type": "string"
                },
                {
                    "internalType": "string",
                    "name": "description",
                    "type": "string"
                },
                {
                    "internalType": "string[]",
                    "name": "choices",
                    "type": "string[]"
                }
            ],
            "name": "updateSession",
            "outputs": [],
            "stateMutability": "nonpayable",
            "type": "function"
        },
        {
            "inputs": [],
            "name": "voteCount",
            "outputs": [
                {
                    "internalType": "uint256",
                    "name": "",
                    "type": "uint256"
                }
            ],
            "stateMutability": "view",
            "type": "function"
        },
        {
            "inputs": [
                {
                    "internalType": "uint256",
                    "name": "",
                    "type": "uint256"
                }
            ],
            "name": "votes",
            "outputs": [
                {
                    "internalType": "uint256",
                    "name": "sessionId",
                    "type": "uint256"
                }
            ],
            "stateMutability": "view",
            "type": "function"
        }
    ],
    "bytecode": "0x608060405260046002553480156200001657600080fd5b50620000376200002b6200003d60201b60201c565b6200004560201b60201c565b62000109565b600033905090565b60008060009054906101000a900473ffffffffffffffffffffffffffffffffffffffff169050816000806101000a81548173ffffffffffffffffffffffffffffffffffffffff021916908373ffffffffffffffffffffffffffffffffffffffff1602179055508173ffffffffffffffffffffffffffffffffffffffff168173ffffffffffffffffffffffffffffffffffffffff167f8be0079c531659141344cd1fd0a4f28419497f9722a3daafe3b4186f6b6457e060405160405180910390a35050565b613f7180620001196000396000f3fe608060405234801561001057600080fd5b50600436106101425760003560e01c8063782a6ad6116100b8578063a9faac441161007c578063a9faac441461037c578063bcdb8670146103ac578063c6384071146103ca578063e2231201146103e8578063f2fde38b14610404578063f6fd7fde1461042057610142565b8063782a6ad6146102c157806383c4b7a3146102df5780638da5cb5b146103125780639c841e62146103305780639dc489081461034c57610142565b80634d6861a61161010a5780634d6861a6146101ff5780635df813301461022f57806361503e451461025f57806367677ce51461027d578063715018a61461029957806373cd8336146102a357610142565b80630ae7c547146101475780630f693caf146101655780631ff3d24a146101815780633eb94ac3146101b1578063402ff0db146101cf575b600080fd5b61014f610451565b60405161015c9190612cf3565b60405180910390f35b61017f600480360381019061017a9190612e9d565b6106a4565b005b61019b60048036038101906101969190612ef9565b610944565b6040516101a891906131b0565b60405180910390f35b6101b96109ac565b6040516101c69190613318565b60405180910390f35b6101e960048036038101906101e49190612ef9565b610b5d565b6040516101f6919061337e565b60405180910390f35b61021960048036038101906102149190612ef9565b610e91565b60405161022691906133af565b60405180910390f35b61024960048036038101906102449190612ef9565b610ec2565b60405161025691906133d9565b60405180910390f35b610267610ef0565b6040516102749190612cf3565b60405180910390f35b6102976004803603810190610292919061358a565b611087565b005b6102a161125a565b005b6102ab61126e565b6040516102b891906133d9565b60405180910390f35b6102c961127b565b6040516102d69190613318565b60405180910390f35b6102f960048036038101906102f49190612ef9565b611485565b604051610309949392919061368f565b60405180910390f35b61031a6115d5565b6040516103279190613723565b60405180910390f35b61034a6004803603810190610345919061373e565b6115fe565b005b610366600480360381019061036191906137f9565b611754565b60405161037391906133d9565b60405180910390f35b61039660048036038101906103919190612ef9565b611785565b6040516103a39190613723565b60405180910390f35b6103b46117b8565b6040516103c19190613318565b60405180910390f35b6103d261192e565b6040516103df91906133d9565b60405180910390f35b61040260048036038101906103fd9190612ef9565b61193b565b005b61041e60048036038101906104199190613865565b611af6565b005b61043a60048036038101906104359190612ef9565b611b7a565b604051610448929190613892565b60405180910390f35b6060600061045d611c36565b67ffffffffffffffff81111561047657610475612d5a565b5b6040519080825280602002602001820160405280156104af57816020015b61049c61280f565b8152602001906001900390816104945790505b5090506000805b60038054905081101561069b576104f1600382815481106104da576104d96138c2565b5b906000526020600020906004020160000154610e91565b15610688576003818154811061050a576105096138c2565b5b9060005260206000209060040201604051806080016040529081600082015481526020016001820154815260200160028201805461054790613920565b80601f016020809104026020016040519081016040528092919081815260200182805461057390613920565b80156105c05780601f10610595576101008083540402835291602001916105c0565b820191906000526020600020905b8154815290600101906020018083116105a357829003601f168201915b505050505081526020016003820180546105d990613920565b80601f016020809104026020016040519081016040528092919081815260200182805461060590613920565b80156106525780601f1061062757610100808354040283529160200191610652565b820191906000526020600020905b81548152906001019060200180831161063557829003601f168201915b50505050508152505083838151811061066e5761066d6138c2565b5b6020026020010181905250818061068490613981565b9250505b808061069390613981565b9150506104b6565b50819250505090565b81816106af82611caa565b6106ee576040517f08c379a00000000000000000000000000000000000000000000000000000000081526004016106e590613a16565b60405180910390fd5b6106f782611cbb565b15610737576040517f08c379a000000000000000000000000000000000000000000000000000000000815260040161072e90613a82565b60405180910390fd5b6107418282611cce565b610780576040517f08c379a000000000000000000000000000000000000000000000000000000000815260040161077790613b14565b60405180910390fd5b61078982611d9f565b156107c9576040517f08c379a00000000000000000000000000000000000000000000000000000000081526004016107c090613b80565b60405180910390fd5b6006604051806040016040528086815260200185815250908060018154018082558091505060019003906000526020600020906002020160009091909190915060008201518160000155602082015181600101908051906020019061082f929190612837565b505050600060016006805490506108469190613ba0565b9050336007600083815260200190815260200160002060006101000a81548173ffffffffffffffffffffffffffffffffffffffff021916908373ffffffffffffffffffffffffffffffffffffffff1602179055506006600860003373ffffffffffffffffffffffffffffffffffffffff1673ffffffffffffffffffffffffffffffffffffffff1681526020019081526020016000209080546108e9929190612884565b508460096000838152602001908152602001600020819055507f83f89aa3151a6342b09e093d51aede8abf5947bebe813d3f0c067a7d0236e4bf81868660405161093593929190613c43565b60405180910390a15050505050565b61094c6128fd565b600061095783610b5d565b90506040518060a00160405280826000015181526020018260200151815260200161098185611e83565b815260200161098f85611d9f565b1515815260200161099f85611cbb565b1515815250915050919050565b606060006109b8611f83565b905060006109c4612208565b67ffffffffffffffff8111156109dd576109dc612d5a565b5b604051908082528060200260200182016040528015610a1657816020015b610a036128fd565b8152602001906001900390816109fb5790505b5090506000805b8351811015610b5357610a4d848281518110610a3c57610a3b6138c2565b5b602002602001015160000151611d9f565b15610b40576040518060a00160405280858381518110610a7057610a6f6138c2565b5b60200260200101518152602001600067ffffffffffffffff811115610a9857610a97612d5a565b5b604051908082528060200260200182016040528015610ad157816020015b610abe61293c565b815260200190600190039081610ab65790505b508152602001610afe868481518110610aed57610aec6138c2565b5b602002602001015160000151611e83565b815260200160011515815260200160011515815250838381518110610b2657610b256138c2565b5b60200260200101819052508180610b3c90613981565b9250505b8080610b4b90613981565b915050610a1d565b5081935050505090565b610b65612956565b600060025467ffffffffffffffff811115610b8357610b82612d5a565b5b604051908082528060200260200182016040528015610bbc57816020015b610ba961293c565b815260200190600190039081610ba15790505b50905060005b6005600085815260200190815260200160002080549050811015610d09576001600560008681526020019081526020016000208281548110610c0757610c066138c2565b5b906000526020600020015481548110610c2357610c226138c2565b5b906000526020600020906002020160405180604001604052908160008201548152602001600182018054610c5690613920565b80601f0160208091040260200160405190810160405280929190818152602001828054610c8290613920565b8015610ccf5780601f10610ca457610100808354040283529160200191610ccf565b820191906000526020600020905b815481529060010190602001808311610cb257829003601f168201915b505050505081525050828281518110610ceb57610cea6138c2565b5b60200260200101819052508080610d0190613981565b915050610bc2565b506000604051806040016040528060038681548110610d2b57610d2a6138c2565b5b90600052602060002090600402016040518060800160405290816000820154815260200160018201548152602001600282018054610d6890613920565b80601f0160208091040260200160405190810160405280929190818152602001828054610d9490613920565b8015610de15780601f10610db657610100808354040283529160200191610de1565b820191906000526020600020905b815481529060010190602001808311610dc457829003601f168201915b50505050508152602001600382018054610dfa90613920565b80601f0160208091040260200160405190810160405280929190818152602001828054610e2690613920565b8015610e735780601f10610e4857610100808354040283529160200191610e73565b820191906000526020600020905b815481529060010190602001808311610e5657829003601f168201915b50505050508152505081526020018381525090508092505050919050565b60004260038381548110610ea857610ea76138c2565b5b906000526020600020906004020160010154119050919050565b60068181548110610ed257600080fd5b90600052602060002090600202016000915090508060000154905081565b60606003805480602002602001604051908101604052809291908181526020016000905b8282101561107e57838290600052602060002090600402016040518060800160405290816000820154815260200160018201548152602001600282018054610f5b90613920565b80601f0160208091040260200160405190810160405280929190818152602001828054610f8790613920565b8015610fd45780601f10610fa957610100808354040283529160200191610fd4565b820191906000526020600020905b815481529060010190602001808311610fb757829003601f168201915b50505050508152602001600382018054610fed90613920565b80601f016020809104026020016040519081016040528092919081815260200182805461101990613920565b80156110665780601f1061103b57610100808354040283529160200191611066565b820191906000526020600020905b81548152906001019060200180831161104957829003601f168201915b50505050508152505081526020019060010190610f14565b50505050905090565b3373ffffffffffffffffffffffffffffffffffffffff166004600086815260200190815260200160002060009054906101000a900473ffffffffffffffffffffffffffffffffffffffff1673ffffffffffffffffffffffffffffffffffffffff1614611128576040517f08c379a000000000000000000000000000000000000000000000000000000000815260040161111f90613cf3565b60405180910390fd5b826003858154811061113d5761113c6138c2565b5b90600052602060002090600402016002019080519060200190611161929190612976565b508160038581548110611177576111766138c2565b5b9060005260206000209060040201600301908051906020019061119b929190612976565b5060005b6005600086815260200190815260200160002080549050811015611253578181815181106111d0576111cf6138c2565b5b602002602001015160016005600088815260200190815260200160002083815481106111ff576111fe6138c2565b5b90600052602060002001548154811061121b5761121a6138c2565b5b9060005260206000209060020201600101908051906020019061123f929190612976565b50808061124b90613981565b91505061119f565b5050505050565b61126261227e565b61126c60006122fc565b565b6000600380549050905090565b60606000611287611f83565b905060006112936123c0565b67ffffffffffffffff8111156112ac576112ab612d5a565b5b6040519080825280602002602001820160405280156112e557816020015b6112d26128fd565b8152602001906001900390816112ca5790505b5090506000805b835181101561147b573373ffffffffffffffffffffffffffffffffffffffff1660046000868481518110611323576113226138c2565b5b602002602001015160000151815260200190815260200160002060009054906101000a900473ffffffffffffffffffffffffffffffffffffffff1673ffffffffffffffffffffffffffffffffffffffff161415611468576040518060a00160405280858381518110611398576113976138c2565b5b60200260200101518152602001600067ffffffffffffffff8111156113c0576113bf612d5a565b5b6040519080825280602002602001820160405280156113f957816020015b6113e661293c565b8152602001906001900390816113de5790505b508152602001611426868481518110611415576114146138c2565b5b602002602001015160000151611e83565b81526020016000151581526020016001151581525083838151811061144e5761144d6138c2565b5b6020026020010181905250818061146490613981565b9250505b808061147390613981565b9150506112ec565b5081935050505090565b6003818154811061149557600080fd5b90600052602060002090600402016000915090508060000154908060010154908060020180546114c490613920565b80601f01602080910402602001604051908101604052809291908181526020018280546114f090613920565b801561153d5780601f106115125761010080835404028352916020019161153d565b820191906000526020600020905b81548152906001019060200180831161152057829003601f168201915b50505050509080600301805461155290613920565b80601f016020809104026020016040519081016040528092919081815260200182805461157e90613920565b80156115cb5780601f106115a0576101008083540402835291602001916115cb565b820191906000526020600020905b8154815290600101906020018083116115ae57829003601f168201915b5050505050905084565b60008060009054906101000a900473ffffffffffffffffffffffffffffffffffffffff16905090565b6000600380549050905060006040518060800160405280838152602001858152602001878152602001868152509050600381908060018154018082558091505060019003906000526020600020906004020160009091909190915060008201518160000155602082015181600101556040820151816002019080519060200190611689929190612976565b5060608201518160030190805190602001906116a6929190612976565b505050336004600084815260200190815260200160002060006101000a81548173ffffffffffffffffffffffffffffffffffffffff021916908373ffffffffffffffffffffffffffffffffffffffff160217905550611705838361248f565b7fc15b3d50eeeed090d36acebfceb7fba18ecfdb2f92791ec72fb665041f71527c8287878761173387612515565b604051611744959493929190613dd5565b60405180910390a1505050505050565b6005602052816000526040600020818154811061177057600080fd5b90600052602060002001600091509150505481565b60046020528060005260406000206000915054906101000a900473ffffffffffffffffffffffffffffffffffffffff1681565b60606117c26129fc565b60006117cc610451565b90506000815167ffffffffffffffff8111156117eb576117ea612d5a565b5b60405190808252806020026020018201604052801561182457816020015b6118116128fd565b8152602001906001900390816118095790505b50905060005b8251811015611924576040518060a00160405280848381518110611851576118506138c2565b5b60200260200101518152602001600067ffffffffffffffff81111561187957611878612d5a565b5b6040519080825280602002602001820160405280156118b257816020015b61189f61293c565b8152602001906001900390816118975790505b5081526020018581526020016118e58584815181106118d4576118d36138c2565b5b602002602001015160000151611d9f565b1515815260200160001515815250828281518110611906576119056138c2565b5b6020026020010181905250808061191c90613981565b91505061182a565b5080935050505090565b6000600680549050905090565b3373ffffffffffffffffffffffffffffffffffffffff166004600083815260200190815260200160002060009054906101000a900473ffffffffffffffffffffffffffffffffffffffff1673ffffffffffffffffffffffffffffffffffffffff16146119dc576040517f08c379a00000000000000000000000000000000000000000000000000000000081526004016119d390613cf3565b60405180910390fd5b60005b6005600083815260200190815260200160002080549050811015611a4857611a35600560008481526020019081526020016000208281548110611a2557611a246138c2565b5b90600052602060002001546126a4565b8080611a4090613981565b9150506119df565b50600560008281526020019081526020016000206000611a689190612a16565b6004600082815260200190815260200160002060006101000a81549073ffffffffffffffffffffffffffffffffffffffff021916905560038181548110611ab257611ab16138c2565b5b90600052602060002090600402016000808201600090556001820160009055600282016000611ae19190612a37565b600382016000611af19190612a37565b505050565b611afe61227e565b600073ffffffffffffffffffffffffffffffffffffffff168173ffffffffffffffffffffffffffffffffffffffff161415611b6e576040517f08c379a0000000000000000000000000000000000000000000000000000000008152600401611b6590613eaf565b60405180910390fd5b611b77816122fc565b50565b60018181548110611b8a57600080fd5b9060005260206000209060020201600091509050806000015490806001018054611bb390613920565b80601f0160208091040260200160405190810160405280929190818152602001828054611bdf90613920565b8015611c2c5780601f10611c0157610100808354040283529160200191611c2c565b820191906000526020600020905b815481529060010190602001808311611c0f57829003601f168201915b5050505050905082565b6000806000905060005b600380549050811015611ca257611c7b60038281548110611c6457611c636138c2565b5b906000526020600020906004020160000154610e91565b15611c8f578180611c8b90613981565b9250505b8080611c9a90613981565b915050611c40565b508091505090565b600060038054905082109050919050565b6000611cc682610e91565b159050919050565b600080600090505b8251811015611d93576000805b6005600087815260200190815260200160002080549050811015611d6e57600560008781526020019081526020016000208181548110611d2657611d256138c2565b5b9060005260206000200154858481518110611d4457611d436138c2565b5b60200260200101511415611d5b5760019150611d6e565b8080611d6690613981565b915050611ce3565b5080611d7f57600092505050611d99565b508080611d8b90613981565b915050611cd6565b50600190505b92915050565b600080600090505b600860003373ffffffffffffffffffffffffffffffffffffffff1673ffffffffffffffffffffffffffffffffffffffff16815260200190815260200160002080549050811015611e785782600860003373ffffffffffffffffffffffffffffffffffffffff1673ffffffffffffffffffffffffffffffffffffffff1681526020019081526020016000208281548110611e4357611e426138c2565b5b9060005260206000209060020201600001541415611e65576001915050611e7e565b8080611e7090613981565b915050611da7565b50600090505b919050565b611e8b6129fc565b611e936129fc565b60005b600680549050811015611f79578360068281548110611eb857611eb76138c2565b5b9060005260206000209060020201600001541415611f665760068181548110611ee457611ee36138c2565b5b90600052602060002090600202016040518060400160405290816000820154815260200160018201805480602002602001604051908101604052809291908181526020018280548015611f5657602002820191906000526020600020905b815481526020019060010190808311611f42575b5050505050815250509150611f79565b8080611f7190613981565b915050611e96565b5080915050919050565b60606000611f8f6126e4565b67ffffffffffffffff811115611fa857611fa7612d5a565b5b604051908082528060200260200182016040528015611fe157816020015b611fce61280f565b815260200190600190039081611fc65790505b5090506000805b6003805490508110156121ff576120236003828154811061200c5761200b6138c2565b5b906000526020600020906004020160000154610e91565b1580156120555750600060038281548110612041576120406138c2565b5b906000526020600020906004020160010154115b156121ec576003818154811061206e5761206d6138c2565b5b906000526020600020906004020160405180608001604052908160008201548152602001600182015481526020016002820180546120ab90613920565b80601f01602080910402602001604051908101604052809291908181526020018280546120d790613920565b80156121245780601f106120f957610100808354040283529160200191612124565b820191906000526020600020905b81548152906001019060200180831161210757829003601f168201915b5050505050815260200160038201805461213d90613920565b80601f016020809104026020016040519081016040528092919081815260200182805461216990613920565b80156121b65780601f1061218b576101008083540402835291602001916121b6565b820191906000526020600020905b81548152906001019060200180831161219957829003601f168201915b5050505050815250508383815181106121d2576121d16138c2565b5b602002602001018190525081806121e890613981565b9250505b80806121f790613981565b915050611fe8565b50819250505090565b600080600090506000612219611f83565b905060005b81518110156122755761224e82828151811061223d5761223c6138c2565b5b602002602001015160000151611d9f565b1561226257828061225e90613981565b9350505b808061226d90613981565b91505061221e565b50819250505090565b61228661278a565b73ffffffffffffffffffffffffffffffffffffffff166122a46115d5565b73ffffffffffffffffffffffffffffffffffffffff16146122fa576040517f08c379a00000000000000000000000000000000000000000000000000000000081526004016122f190613f1b565b60405180910390fd5b565b60008060009054906101000a900473ffffffffffffffffffffffffffffffffffffffff169050816000806101000a81548173ffffffffffffffffffffffffffffffffffffffff021916908373ffffffffffffffffffffffffffffffffffffffff1602179055508173ffffffffffffffffffffffffffffffffffffffff168173ffffffffffffffffffffffffffffffffffffffff167f8be0079c531659141344cd1fd0a4f28419497f9722a3daafe3b4186f6b6457e060405160405180910390a35050565b6000806000905060006123d1611f83565b905060005b8151811015612486573373ffffffffffffffffffffffffffffffffffffffff166004600084848151811061240d5761240c6138c2565b5b602002602001015160000151815260200190815260200160002060009054906101000a900473ffffffffffffffffffffffffffffffffffffffff1673ffffffffffffffffffffffffffffffffffffffff16141561247357828061246f90613981565b9350505b808061247e90613981565b9150506123d6565b50819250505090565b60005b82518110156125105760006124c08483815181106124b3576124b26138c2565b5b6020026020010151612792565b90506005600084815260200190815260200160002081908060018154018082558091505060019003906000526020600020016000909190919091505550808061250890613981565b915050612492565b505050565b6060600060025467ffffffffffffffff81111561253557612534612d5a565b5b60405190808252806020026020018201604052801561256857816020015b60608152602001906001900390816125535790505b50905060005b600560008581526020019081526020016000208054905081101561269a5760016005600086815260200190815260200160002082815481106125b3576125b26138c2565b5b9060005260206000200154815481106125cf576125ce6138c2565b5b906000526020600020906002020160010180546125eb90613920565b80601f016020809104026020016040519081016040528092919081815260200182805461261790613920565b80156126645780601f1061263957610100808354040283529160200191612664565b820191906000526020600020905b81548152906001019060200180831161264757829003601f168201915b505050505082828151811061267c5761267b6138c2565b5b6020026020010181905250808061269290613981565b91505061256e565b5080915050919050565b600181815481106126b8576126b76138c2565b5b90600052602060002090600202016000808201600090556001820160006126df9190612a37565b505050565b6000806000905060005b6003805490508110156127825761272960038281548110612712576127116138c2565b5b906000526020600020906004020160000154610e91565b15801561275b5750600060038281548110612747576127466138c2565b5b906000526020600020906004020160010154115b1561276f57818061276b90613981565b9250505b808061277a90613981565b9150506126ee565b508091505090565b600033905090565b600080600180549050905060016040518060400160405280838152602001858152509080600181540180825580915050600190039060005260206000209060020201600090919091909150600082015181600001556020820151816001019080519060200190612803929190612976565b50505080915050919050565b6040518060800160405280600081526020016000815260200160608152602001606081525090565b828054828255906000526020600020908101928215612873579160200282015b82811115612872578251825591602001919060010190612857565b5b5090506128809190612a77565b5090565b8280548282559060005260206000209060020281019282156128ec5760005260206000209160020282015b828111156128eb5782826000820154816000015560018201816001019080546128d9929190612a94565b505050916002019190600201906128af565b5b5090506128f99190612ae6565b5090565b6040518060a0016040528061291061280f565b8152602001606081526020016129246129fc565b81526020016000151581526020016000151581525090565b604051806040016040528060008152602001606081525090565b604051806040016040528061296961280f565b8152602001606081525090565b82805461298290613920565b90600052602060002090601f0160209004810192826129a457600085556129eb565b82601f106129bd57805160ff19168380011785556129eb565b828001600101855582156129eb579182015b828111156129ea5782518255916020019190600101906129cf565b5b5090506129f89190612a77565b5090565b604051806040016040528060008152602001606081525090565b5080546000825590600052602060002090810190612a349190612a77565b50565b508054612a4390613920565b6000825580601f10612a555750612a74565b601f016020900490600052602060002090810190612a739190612a77565b5b50565b5b80821115612a90576000816000905550600101612a78565b5090565b828054828255906000526020600020908101928215612ad55760005260206000209182015b82811115612ad4578254825591600101919060010190612ab9565b5b509050612ae29190612a77565b5090565b5b80821115612b1157600080820160009055600182016000612b089190612a16565b50600201612ae7565b5090565b600081519050919050565b600082825260208201905092915050565b6000819050602082019050919050565b6000819050919050565b612b5481612b41565b82525050565b600081519050919050565b600082825260208201905092915050565b60005b83811015612b94578082015181840152602081019050612b79565b83811115612ba3576000848401525b50505050565b6000601f19601f8301169050919050565b6000612bc582612b5a565b612bcf8185612b65565b9350612bdf818560208601612b76565b612be881612ba9565b840191505092915050565b6000608083016000830151612c0b6000860182612b4b565b506020830151612c1e6020860182612b4b565b5060408301518482036040860152612c368282612bba565b91505060608301518482036060860152612c508282612bba565b9150508091505092915050565b6000612c698383612bf3565b905092915050565b6000602082019050919050565b6000612c8982612b15565b612c938185612b20565b935083602082028501612ca585612b31565b8060005b85811015612ce15784840389528151612cc28582612c5d565b9450612ccd83612c71565b925060208a01995050600181019050612ca9565b50829750879550505050505092915050565b60006020820190508181036000830152612d0d8184612c7e565b905092915050565b6000604051905090565b600080fd5b600080fd5b612d3281612b41565b8114612d3d57600080fd5b50565b600081359050612d4f81612d29565b92915050565b600080fd5b7f4e487b7100000000000000000000000000000000000000000000000000000000600052604160045260246000fd5b612d9282612ba9565b810181811067ffffffffffffffff82111715612db157612db0612d5a565b5b80604052505050565b6000612dc4612d15565b9050612dd08282612d89565b919050565b600067ffffffffffffffff821115612df057612def612d5a565b5b602082029050602081019050919050565b600080fd5b6000612e19612e1484612dd5565b612dba565b90508083825260208201905060208402830185811115612e3c57612e3b612e01565b5b835b81811015612e655780612e518882612d40565b845260208401935050602081019050612e3e565b5050509392505050565b600082601f830112612e8457612e83612d55565b5b8135612e94848260208601612e06565b91505092915050565b60008060408385031215612eb457612eb3612d1f565b5b6000612ec285828601612d40565b925050602083013567ffffffffffffffff811115612ee357612ee2612d24565b5b612eef85828601612e6f565b9150509250929050565b600060208284031215612f0f57612f0e612d1f565b5b6000612f1d84828501612d40565b91505092915050565b600081519050919050565b600082825260208201905092915050565b6000819050602082019050919050565b6000604083016000830151612f6a6000860182612b4b565b5060208301518482036020860152612f828282612bba565b9150508091505092915050565b6000612f9b8383612f52565b905092915050565b6000602082019050919050565b6000612fbb82612f26565b612fc58185612f31565b935083602082028501612fd785612f42565b8060005b858110156130135784840389528151612ff48582612f8f565b9450612fff83612fa3565b925060208a01995050600181019050612fdb565b50829750879550505050505092915050565b600081519050919050565b600082825260208201905092915050565b6000819050602082019050919050565b600061305d8383612b4b565b60208301905092915050565b6000602082019050919050565b600061308182613025565b61308b8185613030565b935061309683613041565b8060005b838110156130c75781516130ae8882613051565b97506130b983613069565b92505060018101905061309a565b5085935050505092915050565b60006040830160008301516130ec6000860182612b4b565b50602083015184820360208601526131048282613076565b9150508091505092915050565b60008115159050919050565b61312681613111565b82525050565b600060a08301600083015184820360008601526131498282612bf3565b915050602083015184820360208601526131638282612fb0565b9150506040830151848203604086015261317d82826130d4565b9150506060830151613192606086018261311d565b5060808301516131a5608086018261311d565b508091505092915050565b600060208201905081810360008301526131ca818461312c565b905092915050565b600081519050919050565b600082825260208201905092915050565b6000819050602082019050919050565b600060a083016000830151848203600086015261321b8282612bf3565b915050602083015184820360208601526132358282612fb0565b9150506040830151848203604086015261324f82826130d4565b9150506060830151613264606086018261311d565b506080830151613277608086018261311d565b508091505092915050565b600061328e83836131fe565b905092915050565b6000602082019050919050565b60006132ae826131d2565b6132b881856131dd565b9350836020820285016132ca856131ee565b8060005b8581101561330657848403895281516132e78582613282565b94506132f283613296565b925060208a019950506001810190506132ce565b50829750879550505050505092915050565b6000602082019050818103600083015261333281846132a3565b905092915050565b600060408301600083015184820360008601526133578282612bf3565b915050602083015184820360208601526133718282612fb0565b9150508091505092915050565b60006020820190508181036000830152613398818461333a565b905092915050565b6133a981613111565b82525050565b60006020820190506133c460008301846133a0565b92915050565b6133d381612b41565b82525050565b60006020820190506133ee60008301846133ca565b92915050565b600080fd5b600067ffffffffffffffff82111561341457613413612d5a565b5b61341d82612ba9565b9050602081019050919050565b82818337600083830152505050565b600061344c613447846133f9565b612dba565b905082815260208101848484011115613468576134676133f4565b5b61347384828561342a565b509392505050565b600082601f8301126134905761348f612d55565b5b81356134a0848260208601613439565b91505092915050565b600067ffffffffffffffff8211156134c4576134c3612d5a565b5b602082029050602081019050919050565b60006134e86134e3846134a9565b612dba565b9050808382526020820190506020840283018581111561350b5761350a612e01565b5b835b8181101561355257803567ffffffffffffffff8111156135305761352f612d55565b5b80860161353d898261347b565b8552602085019450505060208101905061350d565b5050509392505050565b600082601f83011261357157613570612d55565b5b81356135818482602086016134d5565b91505092915050565b600080600080608085870312156135a4576135a3612d1f565b5b60006135b287828801612d40565b945050602085013567ffffffffffffffff8111156135d3576135d2612d24565b5b6135df8782880161347b565b935050604085013567ffffffffffffffff811115613600576135ff612d24565b5b61360c8782880161347b565b925050606085013567ffffffffffffffff81111561362d5761362c612d24565b5b6136398782880161355c565b91505092959194509250565b600082825260208201905092915050565b600061366182612b5a565b61366b8185613645565b935061367b818560208601612b76565b61368481612ba9565b840191505092915050565b60006080820190506136a460008301876133ca565b6136b160208301866133ca565b81810360408301526136c38185613656565b905081810360608301526136d78184613656565b905095945050505050565b600073ffffffffffffffffffffffffffffffffffffffff82169050919050565b600061370d826136e2565b9050919050565b61371d81613702565b82525050565b60006020820190506137386000830184613714565b92915050565b6000806000806080858703121561375857613757612d1f565b5b600085013567ffffffffffffffff81111561377657613775612d24565b5b6137828782880161347b565b945050602085013567ffffffffffffffff8111156137a3576137a2612d24565b5b6137af8782880161347b565b93505060406137c087828801612d40565b925050606085013567ffffffffffffffff8111156137e1576137e0612d24565b5b6137ed8782880161355c565b91505092959194509250565b600080604083850312156138105761380f612d1f565b5b600061381e85828601612d40565b925050602061382f85828601612d40565b9150509250929050565b61384281613702565b811461384d57600080fd5b50565b60008135905061385f81613839565b92915050565b60006020828403121561387b5761387a612d1f565b5b600061388984828501613850565b91505092915050565b60006040820190506138a760008301856133ca565b81810360208301526138b98184613656565b90509392505050565b7f4e487b7100000000000000000000000000000000000000000000000000000000600052603260045260246000fd5b7f4e487b7100000000000000000000000000000000000000000000000000000000600052602260045260246000fd5b6000600282049050600182168061393857607f821691505b6020821081141561394c5761394b6138f1565b5b50919050565b7f4e487b7100000000000000000000000000000000000000000000000000000000600052601160045260246000fd5b600061398c82612b41565b91507fffffffffffffffffffffffffffffffffffffffffffffffffffffffffffffffff8214156139bf576139be613952565b5b600182019050919050565b7f53657373696f6e20646f6573206e6f742065786973742e000000000000000000600082015250565b6000613a00601783613645565b9150613a0b826139ca565b602082019050919050565b60006020820190508181036000830152613a2f816139f3565b9050919050565b7f53657373696f6e20697320636c6f7365642e0000000000000000000000000000600082015250565b6000613a6c601283613645565b9150613a7782613a36565b602082019050919050565b60006020820190508181036000830152613a9b81613a5f565b9050919050565b7f43686f6963652069647320646f206e6f7420657869737420666f72207468697360008201527f2073657373696f6e2e0000000000000000000000000000000000000000000000602082015250565b6000613afe602983613645565b9150613b0982613aa2565b604082019050919050565b60006020820190508181036000830152613b2d81613af1565b9050919050565b7f596f75206861766520616c726561647920766f7465642e000000000000000000600082015250565b6000613b6a601783613645565b9150613b7582613b34565b602082019050919050565b60006020820190508181036000830152613b9981613b5d565b9050919050565b6000613bab82612b41565b9150613bb683612b41565b925082821015613bc957613bc8613952565b5b828203905092915050565b600082825260208201905092915050565b6000613bf082613025565b613bfa8185613bd4565b9350613c0583613041565b8060005b83811015613c36578151613c1d8882613051565b9750613c2883613069565b925050600181019050613c09565b5085935050505092915050565b6000606082019050613c5860008301866133ca565b613c6560208301856133ca565b8181036040830152613c778184613be5565b9050949350505050565b7f596f7520617265206e6f7420746865206f776e6572206f66207468697320736560008201527f7373696f6e2e0000000000000000000000000000000000000000000000000000602082015250565b6000613cdd602683613645565b9150613ce882613c81565b604082019050919050565b60006020820190508181036000830152613d0c81613cd0565b9050919050565b600081519050919050565b600082825260208201905092915050565b6000819050602082019050919050565b6000613d4b8383612bba565b905092915050565b6000602082019050919050565b6000613d6b82613d13565b613d758185613d1e565b935083602082028501613d8785613d2f565b8060005b85811015613dc35784840389528151613da48582613d3f565b9450613daf83613d53565b925060208a01995050600181019050613d8b565b50829750879550505050505092915050565b600060a082019050613dea60008301886133ca565b8181036020830152613dfc8187613656565b90508181036040830152613e108186613656565b9050613e1f60608301856133ca565b8181036080830152613e318184613d60565b90509695505050505050565b7f4f776e61626c653a206e6577206f776e657220697320746865207a65726f206160008201527f6464726573730000000000000000000000000000000000000000000000000000602082015250565b6000613e99602683613645565b9150613ea482613e3d565b604082019050919050565b60006020820190508181036000830152613ec881613e8c565b9050919050565b7f4f776e61626c653a2063616c6c6572206973206e6f7420746865206f776e6572600082015250565b6000613f05602083613645565b9150613f1082613ecf565b602082019050919050565b60006020820190508181036000830152613f3481613ef8565b905091905056fea26469706673582212201681fd24c05468d11ac8a50eeceaa1345bf8c08412e66b20b9ff97736185ec5c64736f6c63430008090033",
    "linkReferences": {},
    "deployedLinkReferences": {}
}