{
    "_format": "hh-sol-artifact-1",
    "contractName": "VoteResults",
    "sourceName": "contracts/VoteResults.sol",
    "abi": [
        {
            "anonymous": false,
            "inputs": [
                {
                    "indexed": false,
                    "internalType": "uint256",
                    "name": "sessionId",
                    "type": "uint256"
                },
                {
                    "indexed": false,
                    "internalType": "string",
                    "name": "label",
                    "type": "string"
                },
                {
                    "indexed": false,
                    "internalType": "string",
                    "name": "description",
                    "type": "string"
                },
                {
                    "indexed": false,
                    "internalType": "uint256",
                    "name": "endDateTime",
                    "type": "uint256"
                },
                {
                    "indexed": false,
                    "internalType": "string[]",
                    "name": "choiceIds",
                    "type": "string[]"
                }
            ],
            "name": "NewSession",
            "type": "event"
        },
        {
            "anonymous": false,
            "inputs": [
                {
                    "indexed": false,
                    "internalType": "uint256",
                    "name": "voteId",
                    "type": "uint256"
                },
                {
                    "indexed": false,
                    "internalType": "uint256",
                    "name": "sessionId",
                    "type": "uint256"
                },
                {
                    "indexed": false,
                    "internalType": "uint256[]",
                    "name": "choiceIds",
                    "type": "uint256[]"
                }
            ],
            "name": "NewVote",
            "type": "event"
        },
        {
            "anonymous": false,
            "inputs": [
                {
                    "indexed": true,
                    "internalType": "address",
                    "name": "previousOwner",
                    "type": "address"
                },
                {
                    "indexed": true,
                    "internalType": "address",
                    "name": "newOwner",
                    "type": "address"
                }
            ],
            "name": "OwnershipTransferred",
            "type": "event"
        },
        {
            "inputs": [
                {
                    "internalType": "uint256",
                    "name": "",
                    "type": "uint256"
                }
            ],
            "name": "choices",
            "outputs": [
                {
                    "internalType": "uint256",
                    "name": "choiceId",
                    "type": "uint256"
                },
                {
                    "internalType": "string",
                    "name": "label",
                    "type": "string"
                }
            ],
            "stateMutability": "view",
            "type": "function"
        },
        {
            "inputs": [
                {
                    "internalType": "string",
                    "name": "_label",
                    "type": "string"
                },
                {
                    "internalType": "string",
                    "name": "_description",
                    "type": "string"
                },
                {
                    "internalType": "uint256",
                    "name": "_endDateTime",
                    "type": "uint256"
                },
                {
                    "internalType": "string[]",
                    "name": "_choices",
                    "type": "string[]"
                }
            ],
            "name": "createSession",
            "outputs": [],
            "stateMutability": "nonpayable",
            "type": "function"
        },
        {
            "inputs": [
                {
                    "internalType": "uint256",
                    "name": "_sessionId",
                    "type": "uint256"
                },
                {
                    "internalType": "uint256[]",
                    "name": "_choiceIds",
                    "type": "uint256[]"
                }
            ],
            "name": "createVote",
            "outputs": [],
            "stateMutability": "nonpayable",
            "type": "function"
        },
        {
            "inputs": [
                {
                    "internalType": "uint256",
                    "name": "_sessionId",
                    "type": "uint256"
                }
            ],
            "name": "deleteSession",
            "outputs": [],
            "stateMutability": "nonpayable",
            "type": "function"
        },
        {
            "inputs": [
                {
                    "internalType": "uint256",
                    "name": "_sessionId",
                    "type": "uint256"
                }
            ],
            "name": "getAllVotesBySessionId",
            "outputs": [
                {
                    "components": [
                        {
                            "internalType": "uint256",
                            "name": "sessionId",
                            "type": "uint256"
                        },
                        {
                            "internalType": "uint256[]",
                            "name": "choiceIds",
                            "type": "uint256[]"
                        }
                    ],
                    "internalType": "struct VoteFactory.Vote[]",
                    "name": "",
                    "type": "tuple[]"
                }
            ],
            "stateMutability": "view",
            "type": "function"
        },
        {
            "inputs": [
                {
                    "internalType": "uint256",
                    "name": "_sessionId",
                    "type": "uint256"
                }
            ],
            "name": "getChoiceBySessionId",
            "outputs": [
                {
                    "internalType": "uint256[]",
                    "name": "",
                    "type": "uint256[]"
                }
            ],
            "stateMutability": "view",
            "type": "function"
        },
        {
            "inputs": [
                {
                    "internalType": "uint256",
                    "name": "_sessionId",
                    "type": "uint256"
                }
            ],
            "name": "getChoiceIdsBySessionId",
            "outputs": [
                {
                    "internalType": "uint256[]",
                    "name": "",
                    "type": "uint256[]"
                }
            ],
            "stateMutability": "view",
            "type": "function"
        },
        {
            "inputs": [],
            "name": "getClosedSessionsWhereSenderHasVoted",
            "outputs": [
                {
                    "components": [
                        {
                            "components": [
                                {
                                    "internalType": "uint256",
                                    "name": "sessionId",
                                    "type": "uint256"
                                },
                                {
                                    "internalType": "uint256",
                                    "name": "endDateTime",
                                    "type": "uint256"
                                },
                                {
                                    "internalType": "string",
                                    "name": "label",
                                    "type": "string"
                                },
                                {
                                    "internalType": "string",
                                    "name": "description",
                                    "type": "string"
                                }
                            ],
                            "internalType": "struct SessionFactory.Session",
                            "name": "session",
                            "type": "tuple"
                        },
                        {
                            "components": [
                                {
                                    "internalType": "uint256",
                                    "name": "choiceId",
                                    "type": "uint256"
                                },
                                {
                                    "internalType": "string",
                                    "name": "label",
                                    "type": "string"
                                }
                            ],
                            "internalType": "struct ChoiceFactory.Choice[]",
                            "name": "choices",
                            "type": "tuple[]"
                        },
                        {
                            "components": [
                                {
                                    "internalType": "uint256",
                                    "name": "sessionId",
                                    "type": "uint256"
                                },
                                {
                                    "internalType": "uint256[]",
                                    "name": "choiceIds",
                                    "type": "uint256[]"
                                }
                            ],
                            "internalType": "struct VoteFactory.Vote",
                            "name": "vote",
                            "type": "tuple"
                        },
                        {
                            "internalType": "bool",
                            "name": "hasVoted",
                            "type": "bool"
                        },
                        {
                            "internalType": "bool",
                            "name": "isClosed",
                            "type": "bool"
                        }
                    ],
                    "internalType": "struct VoteFactory.SessionInfoForSender[]",
                    "name": "",
                    "type": "tuple[]"
                }
            ],
            "stateMutability": "view",
            "type": "function"
        },
        {
            "inputs": [],
            "name": "getClosedSessionsWhereSenderIsCreator",
            "outputs": [
                {
                    "components": [
                        {
                            "components": [
                                {
                                    "internalType": "uint256",
                                    "name": "sessionId",
                                    "type": "uint256"
                                },
                                {
                                    "internalType": "uint256",
                                    "name": "endDateTime",
                                    "type": "uint256"
                                },
                                {
                                    "internalType": "string",
                                    "name": "label",
                                    "type": "string"
                                },
                                {
                                    "internalType": "string",
                                    "name": "description",
                                    "type": "string"
                                }
                            ],
                            "internalType": "struct SessionFactory.Session",
                            "name": "session",
                            "type": "tuple"
                        },
                        {
                            "components": [
                                {
                                    "internalType": "uint256",
                                    "name": "choiceId",
                                    "type": "uint256"
                                },
                                {
                                    "internalType": "string",
                                    "name": "label",
                                    "type": "string"
                                }
                            ],
                            "internalType": "struct ChoiceFactory.Choice[]",
                            "name": "choices",
                            "type": "tuple[]"
                        },
                        {
                            "components": [
                                {
                                    "internalType": "uint256",
                                    "name": "sessionId",
                                    "type": "uint256"
                                },
                                {
                                    "internalType": "uint256[]",
                                    "name": "choiceIds",
                                    "type": "uint256[]"
                                }
                            ],
                            "internalType": "struct VoteFactory.Vote",
                            "name": "vote",
                            "type": "tuple"
                        },
                        {
                            "internalType": "bool",
                            "name": "hasVoted",
                            "type": "bool"
                        },
                        {
                            "internalType": "bool",
                            "name": "isClosed",
                            "type": "bool"
                        }
                    ],
                    "internalType": "struct VoteFactory.SessionInfoForSender[]",
                    "name": "",
                    "type": "tuple[]"
                }
            ],
            "stateMutability": "view",
            "type": "function"
        },
        {
            "inputs": [],
            "name": "getOpenedSessions",
            "outputs": [
                {
                    "components": [
                        {
                            "internalType": "uint256",
                            "name": "sessionId",
                            "type": "uint256"
                        },
                        {
                            "internalType": "uint256",
                            "name": "endDateTime",
                            "type": "uint256"
                        },
                        {
                            "internalType": "string",
                            "name": "label",
                            "type": "string"
                        },
                        {
                            "internalType": "string",
                            "name": "description",
                            "type": "string"
                        }
                    ],
                    "internalType": "struct SessionFactory.Session[]",
                    "name": "",
                    "type": "tuple[]"
                }
            ],
            "stateMutability": "view",
            "type": "function"
        },
        {
            "inputs": [],
            "name": "getOpenedSessionsForSender",
            "outputs": [
                {
                    "components": [
                        {
                            "components": [
                                {
                                    "internalType": "uint256",
                                    "name": "sessionId",
                                    "type": "uint256"
                                },
                                {
                                    "internalType": "uint256",
                                    "name": "endDateTime",
                                    "type": "uint256"
                                },
                                {
                                    "internalType": "string",
                                    "name": "label",
                                    "type": "string"
                                },
                                {
                                    "internalType": "string",
                                    "name": "description",
                                    "type": "string"
                                }
                            ],
                            "internalType": "struct SessionFactory.Session",
                            "name": "session",
                            "type": "tuple"
                        },
                        {
                            "components": [
                                {
                                    "internalType": "uint256",
                                    "name": "choiceId",
                                    "type": "uint256"
                                },
                                {
                                    "internalType": "string",
                                    "name": "label",
                                    "type": "string"
                                }
                            ],
                            "internalType": "struct ChoiceFactory.Choice[]",
                            "name": "choices",
                            "type": "tuple[]"
                        },
                        {
                            "components": [
                                {
                                    "internalType": "uint256",
                                    "name": "sessionId",
                                    "type": "uint256"
                                },
                                {
                                    "internalType": "uint256[]",
                                    "name": "choiceIds",
                                    "type": "uint256[]"
                                }
                            ],
                            "internalType": "struct VoteFactory.Vote",
                            "name": "vote",
                            "type": "tuple"
                        },
                        {
                            "internalType": "bool",
                            "name": "hasVoted",
                            "type": "bool"
                        },
                        {
                            "internalType": "bool",
                            "name": "isClosed",
                            "type": "bool"
                        }
                    ],
                    "internalType": "struct VoteFactory.SessionInfoForSender[]",
                    "name": "",
                    "type": "tuple[]"
                }
            ],
            "stateMutability": "view",
            "type": "function"
        },
        {
            "inputs": [
                {
                    "internalType": "uint256",
                    "name": "_sessionId",
                    "type": "uint256"
                }
            ],
            "name": "getSession",
            "outputs": [
                {
                    "components": [
                        {
                            "components": [
                                {
                                    "internalType": "uint256",
                                    "name": "sessionId",
                                    "type": "uint256"
                                },
                                {
                                    "internalType": "uint256",
                                    "name": "endDateTime",
                                    "type": "uint256"
                                },
                                {
                                    "internalType": "string",
                                    "name": "label",
                                    "type": "string"
                                },
                                {
                                    "internalType": "string",
                                    "name": "description",
                                    "type": "string"
                                }
                            ],
                            "internalType": "struct SessionFactory.Session",
                            "name": "session",
                            "type": "tuple"
                        },
                        {
                            "components": [
                                {
                                    "internalType": "uint256",
                                    "name": "choiceId",
                                    "type": "uint256"
                                },
                                {
                                    "internalType": "string",
                                    "name": "label",
                                    "type": "string"
                                }
                            ],
                            "internalType": "struct ChoiceFactory.Choice[]",
                            "name": "choices",
                            "type": "tuple[]"
                        }
                    ],
                    "internalType": "struct SessionFactory.SessionWithChoice",
                    "name": "",
                    "type": "tuple"
                }
            ],
            "stateMutability": "view",
            "type": "function"
        },
        {
            "inputs": [
                {
                    "internalType": "uint256",
                    "name": "_sessionId",
                    "type": "uint256"
                }
            ],
            "name": "getSessionForSender",
            "outputs": [
                {
                    "components": [
                        {
                            "components": [
                                {
                                    "internalType": "uint256",
                                    "name": "sessionId",
                                    "type": "uint256"
                                },
                                {
                                    "internalType": "uint256",
                                    "name": "endDateTime",
                                    "type": "uint256"
                                },
                                {
                                    "internalType": "string",
                                    "name": "label",
                                    "type": "string"
                                },
                                {
                                    "internalType": "string",
                                    "name": "description",
                                    "type": "string"
                                }
                            ],
                            "internalType": "struct SessionFactory.Session",
                            "name": "session",
                            "type": "tuple"
                        },
                        {
                            "components": [
                                {
                                    "internalType": "uint256",
                                    "name": "choiceId",
                                    "type": "uint256"
                                },
                                {
                                    "internalType": "string",
                                    "name": "label",
                                    "type": "string"
                                }
                            ],
                            "internalType": "struct ChoiceFactory.Choice[]",
                            "name": "choices",
                            "type": "tuple[]"
                        },
                        {
                            "components": [
                                {
                                    "internalType": "uint256",
                                    "name": "sessionId",
                                    "type": "uint256"
                                },
                                {
                                    "internalType": "uint256[]",
                                    "name": "choiceIds",
                                    "type": "uint256[]"
                                }
                            ],
                            "internalType": "struct VoteFactory.Vote",
                            "name": "vote",
                            "type": "tuple"
                        },
                        {
                            "internalType": "bool",
                            "name": "hasVoted",
                            "type": "bool"
                        },
                        {
                            "internalType": "bool",
                            "name": "isClosed",
                            "type": "bool"
                        }
                    ],
                    "internalType": "struct VoteFactory.SessionInfoForSender",
                    "name": "",
                    "type": "tuple"
                }
            ],
            "stateMutability": "view",
            "type": "function"
        },
        {
            "inputs": [
                {
                    "internalType": "uint256",
                    "name": "_sessionId",
                    "type": "uint256"
                }
            ],
            "name": "getSessionResults",
            "outputs": [
                {
                    "components": [
                        {
                            "components": [
                                {
                                    "components": [
                                        {
                                            "internalType": "uint256",
                                            "name": "sessionId",
                                            "type": "uint256"
                                        },
                                        {
                                            "internalType": "uint256",
                                            "name": "endDateTime",
                                            "type": "uint256"
                                        },
                                        {
                                            "internalType": "string",
                                            "name": "label",
                                            "type": "string"
                                        },
                                        {
                                            "internalType": "string",
                                            "name": "description",
                                            "type": "string"
                                        }
                                    ],
                                    "internalType": "struct SessionFactory.Session",
                                    "name": "session",
                                    "type": "tuple"
                                },
                                {
                                    "components": [
                                        {
                                            "internalType": "uint256",
                                            "name": "choiceId",
                                            "type": "uint256"
                                        },
                                        {
                                            "internalType": "string",
                                            "name": "label",
                                            "type": "string"
                                        }
                                    ],
                                    "internalType": "struct ChoiceFactory.Choice[]",
                                    "name": "choices",
                                    "type": "tuple[]"
                                },
                                {
                                    "components": [
                                        {
                                            "internalType": "uint256",
                                            "name": "sessionId",
                                            "type": "uint256"
                                        },
                                        {
                                            "internalType": "uint256[]",
                                            "name": "choiceIds",
                                            "type": "uint256[]"
                                        }
                                    ],
                                    "internalType": "struct VoteFactory.Vote",
                                    "name": "vote",
                                    "type": "tuple"
                                },
                                {
                                    "internalType": "bool",
                                    "name": "hasVoted",
                                    "type": "bool"
                                },
                                {
                                    "internalType": "bool",
                                    "name": "isClosed",
                                    "type": "bool"
                                }
                            ],
                            "internalType": "struct VoteFactory.SessionInfoForSender",
                            "name": "session",
                            "type": "tuple"
                        },
                        {
                            "internalType": "uint256[4][4]",
                            "name": "result",
                            "type": "uint256[4][4]"
                        },
                        {
                            "internalType": "uint256[]",
                            "name": "choiceIdWinners",
                            "type": "uint256[]"
                        },
                        {
                            "internalType": "int256[]",
                            "name": "choiceIds",
                            "type": "int256[]"
                        },
                        {
                            "components": [
                                {
                                    "internalType": "uint256",
                                    "name": "sessionId",
                                    "type": "uint256"
                                },
                                {
                                    "internalType": "uint256[]",
                                    "name": "choiceIds",
                                    "type": "uint256[]"
                                }
                            ],
                            "internalType": "struct VoteFactory.Vote[]",
                            "name": "votes",
                            "type": "tuple[]"
                        }
                    ],
                    "internalType": "struct VoteResults.Result",
                    "name": "",
                    "type": "tuple"
                }
            ],
            "stateMutability": "view",
            "type": "function"
        },
        {
            "inputs": [],
            "name": "getSessions",
            "outputs": [
                {
                    "components": [
                        {
                            "internalType": "uint256",
                            "name": "sessionId",
                            "type": "uint256"
                        },
                        {
                            "internalType": "uint256",
                            "name": "endDateTime",
                            "type": "uint256"
                        },
                        {
                            "internalType": "string",
                            "name": "label",
                            "type": "string"
                        },
                        {
                            "internalType": "string",
                            "name": "description",
                            "type": "string"
                        }
                    ],
                    "internalType": "struct SessionFactory.Session[]",
                    "name": "",
                    "type": "tuple[]"
                }
            ],
            "stateMutability": "view",
            "type": "function"
        },
        {
            "inputs": [
                {
                    "internalType": "uint256",
                    "name": "_sessionId",
                    "type": "uint256"
                }
            ],
            "name": "isOpen",
            "outputs": [
                {
                    "internalType": "bool",
                    "name": "",
                    "type": "bool"
                }
            ],
            "stateMutability": "view",
            "type": "function"
        },
        {
            "inputs": [],
            "name": "owner",
            "outputs": [
                {
                    "internalType": "address",
                    "name": "",
                    "type": "address"
                }
            ],
            "stateMutability": "view",
            "type": "function"
        },
        {
            "inputs": [],
            "name": "renounceOwnership",
            "outputs": [],
            "stateMutability": "nonpayable",
            "type": "function"
        },
        {
            "inputs": [],
            "name": "sessionCount",
            "outputs": [
                {
                    "internalType": "uint256",
                    "name": "",
                    "type": "uint256"
                }
            ],
            "stateMutability": "view",
            "type": "function"
        },
        {
            "inputs": [
                {
                    "internalType": "uint256",
                    "name": "",
                    "type": "uint256"
                },
                {
                    "internalType": "uint256",
                    "name": "",
                    "type": "uint256"
                }
            ],
            "name": "sessionToChoices",
            "outputs": [
                {
                    "internalType": "uint256",
                    "name": "",
                    "type": "uint256"
                }
            ],
            "stateMutability": "view",
            "type": "function"
        },
        {
            "inputs": [
                {
                    "internalType": "uint256",
                    "name": "",
                    "type": "uint256"
                }
            ],
            "name": "sessionToOwner",
            "outputs": [
                {
                    "internalType": "address",
                    "name": "",
                    "type": "address"
                }
            ],
            "stateMutability": "view",
            "type": "function"
        },
        {
            "inputs": [
                {
                    "internalType": "uint256",
                    "name": "",
                    "type": "uint256"
                }
            ],
            "name": "sessions",
            "outputs": [
                {
                    "internalType": "uint256",
                    "name": "sessionId",
                    "type": "uint256"
                },
                {
                    "internalType": "uint256",
                    "name": "endDateTime",
                    "type": "uint256"
                },
                {
                    "internalType": "string",
                    "name": "label",
                    "type": "string"
                },
                {
                    "internalType": "string",
                    "name": "description",
                    "type": "string"
                }
            ],
            "stateMutability": "view",
            "type": "function"
        },
        {
            "inputs": [
                {
                    "internalType": "address",
                    "name": "newOwner",
                    "type": "address"
                }
            ],
            "name": "transferOwnership",
            "outputs": [],
            "stateMutability": "nonpayable",
            "type": "function"
        },
        {
            "inputs": [
                {
                    "internalType": "uint256",
                    "name": "_sessionId",
                    "type": "uint256"
                },
                {
                    "internalType": "string",
                    "name": "label",
                    "type": "string"
                },
                {
                    "internalType": "string",
                    "name": "description",
                    "type": "string"
                },
                {
                    "internalType": "string[]",
                    "name": "choices",
                    "type": "string[]"
                }
            ],
            "name": "updateSession",
            "outputs": [],
            "stateMutability": "nonpayable",
            "type": "function"
        },
        {
            "inputs": [],
            "name": "voteCount",
            "outputs": [
                {
                    "internalType": "uint256",
                    "name": "",
                    "type": "uint256"
                }
            ],
            "stateMutability": "view",
            "type": "function"
        },
        {
            "inputs": [
                {
                    "internalType": "uint256",
                    "name": "",
                    "type": "uint256"
                }
            ],
            "name": "votes",
            "outputs": [
                {
                    "internalType": "uint256",
                    "name": "sessionId",
                    "type": "uint256"
                }
            ],
            "stateMutability": "view",
            "type": "function"
        }
    ],
    "bytecode": "0x608060405260046002553480156200001657600080fd5b50620000223362000028565b62000078565b600080546001600160a01b038381166001600160a01b0319831681178455604051919092169283917f8be0079c531659141344cd1fd0a4f28419497f9722a3daafe3b4186f6b6457e09190a35050565b61486f80620000886000396000f3fe608060405234801561001057600080fd5b50600436106101ae5760003560e01c8063782a6ad6116100ee578063aedc703311610097578063c638407111610071578063c6384071146103c4578063e2231201146103cc578063f2fde38b146103df578063f6fd7fde146103f257600080fd5b8063aedc70331461037c578063b525bb771461039c578063bcdb8670146103bc57600080fd5b80639c841e62116100c85780639c841e621461032d5780639dc4890814610340578063a9faac441461035357600080fd5b8063782a6ad6146102dd57806383c4b7a3146102e55780638da5cb5b1461030857600080fd5b8063499f842c1161015b57806361503e451161013557806361503e45146102b257806367677ce5146102ba578063715018a6146102cd57806373cd8336146102d557600080fd5b8063499f842c1461025b5780634d6861a61461026e5780635df813301461029157600080fd5b80631ff3d24a1161018c5780631ff3d24a146102065780633eb94ac314610226578063402ff0db1461023b57600080fd5b80630ae7c547146101b35780630f693caf146101d15780631f9b1900146101e6575b600080fd5b6101bb610413565b6040516101c89190613f49565b60405180910390f35b6101e46101df366004614016565b610680565b005b6101f96101f43660046140b8565b610941565b6040516101c8919061410c565b6102196102143660046140b8565b610a06565b6040516101c89190614226565b61022e610a6c565b6040516101c89190614239565b61024e6102493660046140b8565b610c20565b6040516101c8919061428e565b6101f96102693660046140b8565b610f4e565b61028161027c3660046140b8565b610fb0565b60405190151581526020016101c8565b6102a461029f3660046140b8565b610fe0565b6040519081526020016101c8565b6101bb611006565b6101e46102c83660046143c2565b61119d565b6101e4611336565b6003546102a4565b61022e61134a565b6102f86102f33660046140b8565b611504565b6040516101c89493929190614454565b6000546001600160a01b03165b6040516001600160a01b0390911681526020016101c8565b6101e461033b366004614490565b611654565b6102a461034e366004614509565b6117b5565b6103156103613660046140b8565b6004602052600090815260409020546001600160a01b031681565b61038f61038a3660046140b8565b6117e6565b6040516101c89190614580565b6103af6103aa3660046140b8565b611940565b6040516101c89190614653565b61022e611ab4565b6006546102a4565b6101e46103da3660046140b8565b611c34565b6101e46103ed366004614666565b611d98565b6104056104003660046140b8565b611e28565b6040516101c892919061468f565b6060600061041f611ee0565b67ffffffffffffffff81111561043757610437613fab565b60405190808252806020026020018201604052801561049357816020015b6104806040518060800160405280600081526020016000815260200160608152602001606081525090565b8152602001906001900390816104555790505b5090506000805b600354811015610678576104d1600382815481106104ba576104ba6146a8565b906000526020600020906004020160000154610fb0565b1561066657600381815481106104e9576104e96146a8565b90600052602060002090600402016040518060800160405290816000820154815260200160018201548152602001600282018054610526906146be565b80601f0160208091040260200160405190810160405280929190818152602001828054610552906146be565b801561059f5780601f106105745761010080835404028352916020019161059f565b820191906000526020600020905b81548152906001019060200180831161058257829003601f168201915b505050505081526020016003820180546105b8906146be565b80601f01602080910402602001604051908101604052809291908181526020018280546105e4906146be565b80156106315780601f1061060657610100808354040283529160200191610631565b820191906000526020600020905b81548152906001019060200180831161061457829003601f168201915b50505050508152505083838151811061064c5761064c6146a8565b6020026020010181905250818061066290614709565b9250505b8061067081614709565b91505061049a565b509092915050565b818161068d826003541190565b6106de5760405162461bcd60e51b815260206004820152601760248201527f53657373696f6e20646f6573206e6f742065786973742e00000000000000000060448201526064015b60405180910390fd5b6106e782611f30565b156107345760405162461bcd60e51b815260206004820152601260248201527f53657373696f6e20697320636c6f7365642e000000000000000000000000000060448201526064016106d5565b61073e8282611f42565b6107b05760405162461bcd60e51b815260206004820152602960248201527f43686f6963652069647320646f206e6f7420657869737420666f72207468697360448201527f2073657373696f6e2e000000000000000000000000000000000000000000000060648201526084016106d5565b6107b982611fff565b156108065760405162461bcd60e51b815260206004820152601760248201527f596f75206861766520616c726561647920766f7465642e00000000000000000060448201526064016106d5565b60408051808201909152848152602080820185815260068054600181018255600091909152835160029091027ff652222313e28459528d920b65115c16c04f3efc82aaedc97be59f3f377c0d3f810191825591518051919361088d937ff652222313e28459528d920b65115c16c04f3efc82aaedc97be59f3f377c0d400192910190613b46565b5050600654600091506108a290600190614724565b6000818152600760209081526040808320805473ffffffffffffffffffffffffffffffffffffffff191633908117909155835260089091529020600680549293506108ec92613b91565b5060008181526009602052604090819020869055517f83f89aa3151a6342b09e093d51aede8abf5947bebe813d3f0c067a7d0236e4bf906109329083908890889061473b565b60405180910390a15050505050565b6060600060025467ffffffffffffffff81111561096057610960613fab565b604051908082528060200260200182016040528015610989578160200160208202803683370190505b50905060005b6000848152600560205260409020548110156109ff5760008481526005602052604090208054829081106109c5576109c56146a8565b90600052602060002001548282815181106109e2576109e26146a8565b6020908102919091010152806109f781614709565b91505061098f565b5092915050565b610a0e613bfe565b6000610a1983610c20565b90506040518060a001604052808260000151815260200182602001518152602001610a438561207a565b8152602001610a5185611fff565b15158152602001610a6185611f30565b151590529392505050565b60606000610a78612184565b90506000610a84612403565b67ffffffffffffffff811115610a9c57610a9c613fab565b604051908082528060200260200182016040528015610ad557816020015b610ac2613bfe565b815260200190600190039081610aba5790505b5090506000805b8351811015610c1757610b0b848281518110610afa57610afa6146a8565b602002602001015160000151611fff565b15610c05576040518060a00160405280858381518110610b2d57610b2d6146a8565b60200260200101518152602001600067ffffffffffffffff811115610b5457610b54613fab565b604051908082528060200260200182016040528015610b9a57816020015b604080518082019091526000815260606020820152815260200190600190039081610b725790505b508152602001610bc6868481518110610bb557610bb56146a8565b60200260200101516000015161207a565b81526001602082018190526040909101528351849084908110610beb57610beb6146a8565b60200260200101819052508180610c0190614709565b9250505b80610c0f81614709565b915050610adc565b50909392505050565b610c28613c71565b600060025467ffffffffffffffff811115610c4557610c45613fab565b604051908082528060200260200182016040528015610c8b57816020015b604080518082019091526000815260606020820152815260200190600190039081610c635790505b50905060005b600084815260056020526040902054811015610dcb57600084815260056020526040902080546001919083908110610ccb57610ccb6146a8565b906000526020600020015481548110610ce657610ce66146a8565b906000526020600020906002020160405180604001604052908160008201548152602001600182018054610d19906146be565b80601f0160208091040260200160405190810160405280929190818152602001828054610d45906146be565b8015610d925780601f10610d6757610100808354040283529160200191610d92565b820191906000526020600020905b815481529060010190602001808311610d7557829003601f168201915b505050505081525050828281518110610dad57610dad6146a8565b60200260200101819052508080610dc390614709565b915050610c91565b506000604051806040016040528060038681548110610dec57610dec6146a8565b90600052602060002090600402016040518060800160405290816000820154815260200160018201548152602001600282018054610e29906146be565b80601f0160208091040260200160405190810160405280929190818152602001828054610e55906146be565b8015610ea25780601f10610e7757610100808354040283529160200191610ea2565b820191906000526020600020905b815481529060010190602001808311610e8557829003601f168201915b50505050508152602001600382018054610ebb906146be565b80601f0160208091040260200160405190810160405280929190818152602001828054610ee7906146be565b8015610f345780601f10610f0957610100808354040283529160200191610f34565b820191906000526020600020905b815481529060010190602001808311610f1757829003601f168201915b505050919092525050508152602001929092525092915050565b600081815260056020908152604091829020805483518184028101840190945280845260609392830182828015610fa457602002820191906000526020600020905b815481526020019060010190808311610f90575b50505050509050919050565b60004260038381548110610fc657610fc66146a8565b906000526020600020906004020160010154119050919050565b60068181548110610ff057600080fd5b6000918252602090912060029091020154905081565b60606003805480602002602001604051908101604052809291908181526020016000905b8282101561119457838290600052602060002090600402016040518060800160405290816000820154815260200160018201548152602001600282018054611071906146be565b80601f016020809104026020016040519081016040528092919081815260200182805461109d906146be565b80156110ea5780601f106110bf576101008083540402835291602001916110ea565b820191906000526020600020905b8154815290600101906020018083116110cd57829003601f168201915b50505050508152602001600382018054611103906146be565b80601f016020809104026020016040519081016040528092919081815260200182805461112f906146be565b801561117c5780601f106111515761010080835404028352916020019161117c565b820191906000526020600020905b81548152906001019060200180831161115f57829003601f168201915b5050505050815250508152602001906001019061102a565b50505050905090565b6000848152600460205260409020546001600160a01b031633146112125760405162461bcd60e51b815260206004820152602660248201527f596f7520617265206e6f7420746865206f776e6572206f66207468697320736560448201526539b9b4b7b71760d11b60648201526084016106d5565b8260038581548110611226576112266146a8565b9060005260206000209060040201600201908051906020019061124a929190613cb4565b50816003858154811061125f5761125f6146a8565b90600052602060002090600402016003019080519060200190611283929190613cb4565b5060005b60008581526005602052604090205481101561132f578181815181106112af576112af6146a8565b602002602001015160016005600088815260200190815260200160002083815481106112dd576112dd6146a8565b9060005260206000200154815481106112f8576112f86146a8565b9060005260206000209060020201600101908051906020019061131c929190613cb4565b508061132781614709565b915050611287565b5050505050565b61133e612457565b61134860006124b1565b565b60606000611356612184565b9050600061136261250e565b67ffffffffffffffff81111561137a5761137a613fab565b6040519080825280602002602001820160405280156113b357816020015b6113a0613bfe565b8152602001906001900390816113985790505b5090506000805b8351811015610c1757336001600160a01b0316600460008684815181106113e3576113e36146a8565b602090810291909101810151518252810191909152604001600020546001600160a01b031614156114f2576040518060a0016040528085838151811061142b5761142b6146a8565b60200260200101518152602001600067ffffffffffffffff81111561145257611452613fab565b60405190808252806020026020018201604052801561149857816020015b6040805180820190915260008152606060208201528152602001906001900390816114705790505b5081526020016114b3868481518110610bb557610bb56146a8565b815260006020820152600160409091015283518490849081106114d8576114d86146a8565b602002602001018190525081806114ee90614709565b9250505b806114fc81614709565b9150506113ba565b6003818154811061151457600080fd5b9060005260206000209060040201600091509050806000015490806001015490806002018054611543906146be565b80601f016020809104026020016040519081016040528092919081815260200182805461156f906146be565b80156115bc5780601f10611591576101008083540402835291602001916115bc565b820191906000526020600020905b81548152906001019060200180831161159f57829003601f168201915b5050505050908060030180546115d1906146be565b80601f01602080910402602001604051908101604052809291908181526020018280546115fd906146be565b801561164a5780601f1061161f5761010080835404028352916020019161164a565b820191906000526020600020905b81548152906001019060200180831161162d57829003601f168201915b5050505050905084565b60038054604080516080810182528281526020808201878152928201898152606083018990526001850186556000959095528151600485027fc2575a0e9e593c00f959f8c92f12db2869c3395a3b0502d05e2516446f71f85b810191825593517fc2575a0e9e593c00f959f8c92f12db2869c3395a3b0502d05e2516446f71f85c85015594518051949592948594611712937fc2575a0e9e593c00f959f8c92f12db2869c3395a3b0502d05e2516446f71f85d909101920190613cb4565b506060820151805161172e916003840191602090910190613cb4565b5050506000828152600460205260409020805473ffffffffffffffffffffffffffffffffffffffff1916331790556117668383612593565b7fc15b3d50eeeed090d36acebfceb7fba18ecfdb2f92791ec72fb665041f71527c82878787611794876125f5565b6040516117a595949392919061475a565b60405180910390a1505050505050565b600560205281600052604060002081815481106117d157600080fd5b90600052602060002001600091509150505481565b6117ee613d27565b60006117f983610941565b9050600061180684611940565b905060006118138361276c565b905081516000141561188c576040518060a0016040528061183387610a06565b8152602001611842848661280b565b81526020016000604051908082528060200260200182016040528015611872578160200160208202803683370190505b508152602001828152602001838152509350505050919050565b600061189783612a7a565b9050600060405180608001604052808381526020016040518060200160405280868152508152602001600081526020016118de604051806020016040528087815250612b87565b9052905060006118ed82612cb8565b90506040518060a001604052806119038a610a06565b8152602001611912878961280b565b8152602001826000015181526020018260400151600001518152602001868152509650505050505050919050565b6060600061194d83612ec2565b67ffffffffffffffff81111561196557611965613fab565b6040519080825280602002602001820160405280156119ab57816020015b6040805180820190915260008152606060208201528152602001906001900390816119835790505b5090506000805b600654811015610c175784600682815481106119d0576119d06146a8565b9060005260206000209060020201600001541415611aa257600681815481106119fb576119fb6146a8565b90600052602060002090600202016040518060400160405290816000820154815260200160018201805480602002602001604051908101604052809291908181526020018280548015611a6d57602002820191906000526020600020905b815481526020019060010190808311611a59575b505050505081525050838381518110611a8857611a886146a8565b60200260200101819052508180611a9e90614709565b9250505b80611aac81614709565b9150506119b2565b6060611ad3604051806040016040528060008152602001606081525090565b6000611add610413565b90506000815167ffffffffffffffff811115611afb57611afb613fab565b604051908082528060200260200182016040528015611b3457816020015b611b21613bfe565b815260200190600190039081611b195790505b50905060005b8251811015611c2c576040518060a00160405280848381518110611b6057611b606146a8565b60200260200101518152602001600067ffffffffffffffff811115611b8757611b87613fab565b604051908082528060200260200182016040528015611bcd57816020015b604080518082019091526000815260606020820152815260200190600190039081611ba55790505b508152602001858152602001611bee858481518110610afa57610afa6146a8565b1515815260200160001515815250828281518110611c0e57611c0e6146a8565b60200260200101819052508080611c2490614709565b915050611b3a565b509392505050565b6000818152600460205260409020546001600160a01b03163314611ca95760405162461bcd60e51b815260206004820152602660248201527f596f7520617265206e6f7420746865206f776e6572206f66207468697320736560448201526539b9b4b7b71760d11b60648201526084016106d5565b60005b600082815260056020526040902054811015611d095760008281526005602052604090208054611cf7919083908110611ce757611ce76146a8565b9060005260206000200154612f1d565b80611d0181614709565b915050611cac565b506000818152600560205260408120611d2191613d62565b6000818152600460205260409020805473ffffffffffffffffffffffffffffffffffffffff191690556003805482908110611d5e57611d5e6146a8565b6000918252602082206004909102018181556001810182905590611d856002830182613d80565b611d93600383016000613d80565b505050565b611da0612457565b6001600160a01b038116611e1c5760405162461bcd60e51b815260206004820152602660248201527f4f776e61626c653a206e6577206f776e657220697320746865207a65726f206160448201527f646472657373000000000000000000000000000000000000000000000000000060648201526084016106d5565b611e25816124b1565b50565b60018181548110611e3857600080fd5b60009182526020909120600290910201805460018201805491935090611e5d906146be565b80601f0160208091040260200160405190810160405280929190818152602001828054611e89906146be565b8015611ed65780601f10611eab57610100808354040283529160200191611ed6565b820191906000526020600020905b815481529060010190602001808311611eb957829003601f168201915b5050505050905082565b600080805b600354811015611f2a57611f05600382815481106104ba576104ba6146a8565b15611f185781611f1481614709565b9250505b80611f2281614709565b915050611ee5565b50919050565b6000611f3b82610fb0565b1592915050565b6000805b8251811015611ff3576000805b600086815260056020526040902054811015611fcf576000868152600560205260409020805482908110611f8957611f896146a8565b9060005260206000200154858481518110611fa657611fa66146a8565b60200260200101511415611fbd5760019150611fcf565b80611fc781614709565b915050611f53565b5080611fe057600092505050611ff9565b5080611feb81614709565b915050611f46565b50600190505b92915050565b6000805b336000908152600860205260409020548110156120715733600090815260086020526040902080548491908390811061203e5761203e6146a8565b906000526020600020906002020160000154141561205f5750600192915050565b8061206981614709565b915050612003565b50600092915050565b60408051808201909152600081526060602082015260408051808201909152600081526060602082015260005b6006548110156109ff5783600682815481106120c5576120c56146a8565b906000526020600020906002020160000154141561217257600681815481106120f0576120f06146a8565b9060005260206000209060020201604051806040016040529081600082015481526020016001820180548060200260200160405190810160405280929190818152602001828054801561216257602002820191906000526020600020905b81548152602001906001019080831161214e575b50505050508152505091506109ff565b8061217c81614709565b9150506120a7565b60606000612190612f50565b67ffffffffffffffff8111156121a8576121a8613fab565b60405190808252806020026020018201604052801561220457816020015b6121f16040518060800160405280600081526020016000815260200160608152602001606081525090565b8152602001906001900390816121c65790505b5090506000805b6003548110156106785761222b600382815481106104ba576104ba6146a8565b15801561225c5750600060038281548110612248576122486146a8565b906000526020600020906004020160010154115b156123f15760038181548110612274576122746146a8565b906000526020600020906004020160405180608001604052908160008201548152602001600182015481526020016002820180546122b1906146be565b80601f01602080910402602001604051908101604052809291908181526020018280546122dd906146be565b801561232a5780601f106122ff5761010080835404028352916020019161232a565b820191906000526020600020905b81548152906001019060200180831161230d57829003601f168201915b50505050508152602001600382018054612343906146be565b80601f016020809104026020016040519081016040528092919081815260200182805461236f906146be565b80156123bc5780601f10612391576101008083540402835291602001916123bc565b820191906000526020600020905b81548152906001019060200180831161239f57829003601f168201915b5050505050815250508383815181106123d7576123d76146a8565b602002602001018190525081806123ed90614709565b9250505b806123fb81614709565b91505061220b565b6000808061240f612184565b905060005b815181101561067857612432828281518110610afa57610afa6146a8565b15612445578261244181614709565b9350505b8061244f81614709565b915050612414565b6000546001600160a01b031633146113485760405162461bcd60e51b815260206004820181905260248201527f4f776e61626c653a2063616c6c6572206973206e6f7420746865206f776e657260448201526064016106d5565b600080546001600160a01b0383811673ffffffffffffffffffffffffffffffffffffffff19831681178455604051919092169283917f8be0079c531659141344cd1fd0a4f28419497f9722a3daafe3b4186f6b6457e09190a35050565b6000808061251a612184565b905060005b815181101561067857336001600160a01b031660046000848481518110612548576125486146a8565b602090810291909101810151518252810191909152604001600020546001600160a01b03161415612581578261257d81614709565b9350505b8061258b81614709565b91505061251f565b60005b8251811015611d935760006125c38483815181106125b6576125b66146a8565b6020026020010151612fcb565b6000848152600560209081526040822080546001810182559083529120015550806125ed81614709565b915050612596565b6060600060025467ffffffffffffffff81111561261457612614613fab565b60405190808252806020026020018201604052801561264757816020015b60608152602001906001900390816126325790505b50905060005b6000848152600560205260409020548110156109ff57600084815260056020526040902080546001919083908110612687576126876146a8565b9060005260206000200154815481106126a2576126a26146a8565b906000526020600020906002020160010180546126be906146be565b80601f01602080910402602001604051908101604052809291908181526020018280546126ea906146be565b80156127375780601f1061270c57610100808354040283529160200191612737565b820191906000526020600020905b81548152906001019060200180831161271a57829003601f168201915b505050505082828151811061274e5761274e6146a8565b6020026020010181905250808061276490614709565b91505061264d565b60606000825167ffffffffffffffff81111561278a5761278a613fab565b6040519080825280602002602001820160405280156127b3578160200160208202803683370190505b50905060005b83518110156109ff578381815181106127d4576127d46146a8565b60200260200101518282815181106127ee576127ee6146a8565b60209081029190910101528061280381614709565b9150506127b9565b612813613dba565b61281b613dba565b60005b8451811015611c2c5760005b85828151811061283c5761283c6146a8565b60200260200101516020015151811015612a675784600081518110612863576128636146a8565b602002602001015186838151811061287d5761287d6146a8565b602002602001015160200151828151811061289a5761289a6146a8565b602002602001015114156128cf57825181600481106128bb576128bb6146a8565b602002018051906128cb82614709565b9052505b846001815181106128e2576128e26146a8565b60200260200101518683815181106128fc576128fc6146a8565b6020026020010151602001518281518110612919576129196146a8565b60200260200101511415612951576020830151816004811061293d5761293d6146a8565b6020020180519061294d82614709565b9052505b84600281518110612964576129646146a8565b602002602001015186838151811061297e5761297e6146a8565b602002602001015160200151828151811061299b5761299b6146a8565b602002602001015114156129d357604083015181600481106129bf576129bf6146a8565b602002018051906129cf82614709565b9052505b846003815181106129e6576129e66146a8565b6020026020010151868381518110612a0057612a006146a8565b6020026020010151602001518281518110612a1d57612a1d6146a8565b60200260200101511415612a555760608301518160048110612a4157612a416146a8565b60200201805190612a5182614709565b9052505b80612a5f81614709565b91505061282a565b5080612a7281614709565b91505061281e565b60606000825167ffffffffffffffff811115612a9857612a98613fab565b604051908082528060200260200182016040528015612ade57816020015b604080518082019091526000815260606020820152815260200190600190039081612ab65790505b50905060005b83518110156109ff57838181518110612aff57612aff6146a8565b602002602001015160000151828281518110612b1d57612b1d6146a8565b60200260200101516000018181525050612b53848281518110612b4257612b426146a8565b60200260200101516020015161276c565b828281518110612b6557612b656146a8565b6020026020010151602001819052508080612b7f90614709565b915050612ae4565b60606000805b835151811015612bdb578351805182908110612bab57612bab6146a8565b602002602001015160001914612bc95781612bc581614709565b9250505b80612bd381614709565b915050612b8d565b5060008167ffffffffffffffff811115612bf757612bf7613fab565b604051908082528060200260200182016040528015612c20578160200160208202803683370190505b5090506000805b855151811015612cae578551805182908110612c4557612c456146a8565b602002602001015160001914612c9c578551805182908110612c6957612c696146a8565b6020026020010151838381518110612c8357612c836146a8565b602090810291909101015281612c9881614709565b9250505b80612ca681614709565b915050612c27565b5090949350505050565b612cc0613de7565b6000612cd3836020015160000151613059565b90508060011415612d15576040518060600160405280612cf685602001516130a9565b8152602001846000015181526020018460200151815250915050919050565b6000612d378460000151856020015160000151866040015187606001516131d0565b90506000612d448261335e565b90506000612d5a866020015160000151836135a8565b9050612d6a818760600151613660565b60608701528151612de457856040015160031415612dbc576040518060600160405280612d9a88602001516130a9565b8152602001876000015181526020018760200151815250945050505050919050565b6040860151612dcc9060016147ef565b6040870152612dda86612cb8565b9695505050505050565b8382511415612e1257856040015160031415612dbc576040518060600160405280612d9a88602001516130a9565b815160011415612e6657612e2f828760000151886020015161374e565b86526020860151612e419083906138dd565b6020870181905260006040880152612e5890612b87565b6060870152612dda86612cb8565b8382511015612e8f57856040015160031415612dbc57612e2f828760000151886020015161374e565b50506040805160006060820190815260808201835281528551602080830191909152959095015190850152509192915050565b600080805b6006548110156109ff578360068281548110612ee557612ee56146a8565b9060005260206000209060020201600001541415612f0b5781612f0781614709565b9250505b80612f1581614709565b915050612ec7565b60018181548110612f3057612f306146a8565b60009182526020822060029091020181815590611d936001830182613d80565b600080805b600354811015611f2a57612f75600382815481106104ba576104ba6146a8565b158015612fa65750600060038281548110612f9257612f926146a8565b906000526020600020906004020160010154115b15612fb95781612fb581614709565b9250505b80612fc381614709565b915050612f55565b60018054604080518082019091528181526020808201858152838501855560009485528251600285027fb10e2d527612073b26eecdfd717e6a320cf44b4afac2b0732d9fcbe2b7fa0cf6810191825591518051919361304f937fb10e2d527612073b26eecdfd717e6a320cf44b4afac2b0732d9fcbe2b7fa0cf70192910190613cb4565b5091949350505050565b600080805b83518110156109ff57838181518110613079576130796146a8565b602002602001015160001914613097578161309381614709565b9250505b806130a181614709565b91505061305e565b60606000805b8351518110156130fd5783518051829081106130cd576130cd6146a8565b6020026020010151600019146130eb57816130e781614709565b9250505b806130f581614709565b9150506130af565b5060008167ffffffffffffffff81111561311957613119613fab565b604051908082528060200260200182016040528015613142578160200160208202803683370190505b5090506000805b855151811015612cae578551805182908110613167576131676146a8565b6020026020010151600019146131be57855180518290811061318b5761318b6146a8565b60200260200101518383815181106131a5576131a56146a8565b6020908102919091010152816131ba81614709565b9250505b806131c881614709565b915050613149565b60606000845167ffffffffffffffff8111156131ee576131ee613fab565b604051908082528060200260200182016040528015613217578160200160208202803683370190505b50905060005b865181101561335457600087828151811061323a5761323a6146a8565b6020026020010151905060005b875181101561333f576000888281518110613264576132646146a8565b60200260200101511215801561329857506132988689838151811061328b5761328b6146a8565b602002602001015161394d565b1561330b578781815181106132af576132af6146a8565b6020026020010151826020015188815181106132cd576132cd6146a8565b60200260200101511415613306578381815181106132ed576132ed6146a8565b60200260200101805180919061330290614807565b9052505b61332d565b600019848281518110613320576133206146a8565b6020026020010181815250505b8061333781614709565b915050613247565b5050808061334c90614709565b91505061321d565b5095945050505050565b606060015b82518110156133ed578260008151811061337f5761337f6146a8565b6020026020010151838281518110613399576133996146a8565b6020026020010151146133ab576133ed565b600183516133b99190614724565b8114156133db5760408051600080825260208201909252815b50949350505050565b806133e581614709565b915050613363565b50600082600081518110613403576134036146a8565b6020026020010151905060005b835181101561349a57600084828151811061342d5761342d6146a8565b60200260200101511215801561345b575081848281518110613451576134516146a8565b6020026020010151125b806134665750600082125b156134885783818151811061347d5761347d6146a8565b602002602001015191505b8061349281614709565b915050613410565b506000805b84518110156134e957828582815181106134bb576134bb6146a8565b602002602001015114156134d757816134d381614709565b9250505b806134e181614709565b91505061349f565b5060008167ffffffffffffffff81111561350557613505613fab565b60405190808252806020026020018201604052801561352e578160200160208202803683370190505b5090506000805b865181101561359d5784878281518110613551576135516146a8565b6020026020010151141561358b5780838381518110613572576135726146a8565b60209081029190910101528161358781614709565b9250505b8061359581614709565b915050613535565b509095945050505050565b60606000825167ffffffffffffffff8111156135c6576135c6613fab565b6040519080825280602002602001820160405280156135ef578160200160208202803683370190505b50905060005b8351811015611c2c5784848281518110613611576136116146a8565b602002602001015181518110613629576136296146a8565b6020026020010151828281518110613643576136436146a8565b60209081029190910101528061365881614709565b9150506135f5565b60606000835167ffffffffffffffff81111561367e5761367e613fab565b6040519080825280602002602001820160405280156136a7578160200160208202803683370190505b50905060005b8451811015611c2c5760008582815181106136ca576136ca6146a8565b6020026020010151905060005b85518110156137395760008682815181106136f4576136f46146a8565b60200260200101519050808314156137265780858581518110613719576137196146a8565b6020026020010181815250505b508061373181614709565b9150506136d7565b5050808061374690614709565b9150506136ad565b6060613759846139a1565b93506000835167ffffffffffffffff81111561377757613777613fab565b6040519080825280602002602001820160405280156137bd57816020015b6040805180820190915260008152606060208201528152602001906001900390816137955790505b50905060005b84518110156133d25760008582815181106137e0576137e06146a8565b6020026020010151905060005b87518110156138aa576000866000015189838151811061380f5761380f6146a8565b602002602001015181518110613827576138276146a8565b6020026020010151905080600019146138975760005b836020015151811015613895578184602001518281518110613861576138616146a8565b602002602001015114156138835761387d846020015182613aa5565b60208501525b8061388d81614709565b91505061383d565b505b50806138a281614709565b9150506137ed565b50808383815181106138be576138be6146a8565b60200260200101819052505080806138d590614709565b9150506137c3565b60408051602081019091526060815260005b835181101561067857600084828151811061390c5761390c6146a8565b602002602001015190506000198460000151828151811061392f5761392f6146a8565b6020908102919091010152508061394581614709565b9150506138ef565b6000805b8351811015613997578284828151811061396d5761396d6146a8565b60200260200101511415613985576001915050611ff9565b8061398f81614709565b915050613951565b5060009392505050565b606060005b8251811015613a9e5760006139bc8260016147ef565b90505b8351811015613a8b578381815181106139da576139da6146a8565b60200260200101518483815181106139f4576139f46146a8565b60200260200101511015613a79576000848381518110613a1657613a166146a8565b60200260200101519050848281518110613a3257613a326146a8565b6020026020010151858481518110613a4c57613a4c6146a8565b60200260200101818152505080858381518110613a6b57613a6b6146a8565b602002602001018181525050505b80613a8381614709565b9150506139bf565b5080613a9681614709565b9150506139a6565b5090919050565b6060815b60018451613ab79190614724565b811015613b115783613aca8260016147ef565b81518110613ada57613ada6146a8565b6020026020010151848281518110613af457613af46146a8565b602090810291909101015280613b0981614709565b915050613aa9565b506000198360018551613b249190614724565b81518110613b3457613b346146a8565b60209081029190910101525090919050565b828054828255906000526020600020908101928215613b81579160200282015b82811115613b81578251825591602001919060010190613b66565b50613b8d929150613e1b565b5090565b828054828255906000526020600020906002028101928215613bf25760005260206000209160020282015b82811115613bf257825482556001808401805485928592613be09291840191613e30565b50505091600201919060020190613bbc565b50613b8d929150613e70565b6040518060a00160405280613c346040518060800160405280600081526020016000815260200160608152602001606081525090565b815260200160608152602001613c5d604051806040016040528060008152602001606081525090565b815260006020820181905260409091015290565b6040518060400160405280613ca76040518060800160405280600081526020016000815260200160608152602001606081525090565b8152602001606081525090565b828054613cc0906146be565b90600052602060002090601f016020900481019282613ce25760008555613b81565b82601f10613cfb57805160ff1916838001178555613b81565b82800160010185558215613b815791820182811115613b81578251825591602001919060010190613b66565b6040518060a00160405280613d3a613bfe565b8152602001613d47613dba565b81526020016060815260200160608152602001606081525090565b5080546000825590600052602060002090810190611e259190613e1b565b508054613d8c906146be565b6000825580601f10613d9c575050565b601f016020900490600052602060002090810190611e259190613e1b565b60405180608001604052806004905b613dd1613e93565b815260200190600190039081613dc95790505090565b60405180606001604052806060815260200160608152602001613e166040518060200160405280606081525090565b905290565b5b80821115613b8d5760008155600101613e1c565b828054828255906000526020600020908101928215613b815760005260206000209182015b82811115613b81578254825591600101919060010190613e55565b80821115613b8d576000808255613e8a6001830182613d62565b50600201613e70565b60405180608001604052806004906020820280368337509192915050565b6000815180845260005b81811015613ed757602081850181015186830182015201613ebb565b81811115613ee9576000602083870101525b50601f01601f19169290920160200192915050565b80518252602081015160208301526000604082015160806040850152613f276080850182613eb1565b905060608301518482036060860152613f408282613eb1565b95945050505050565b6000602080830181845280855180835260408601915060408160051b870101925083870160005b82811015613f9e57603f19888603018452613f8c858351613efe565b94509285019290850190600101613f70565b5092979650505050505050565b634e487b7160e01b600052604160045260246000fd5b604051601f8201601f1916810167ffffffffffffffff81118282101715613fea57613fea613fab565b604052919050565b600067ffffffffffffffff82111561400c5761400c613fab565b5060051b60200190565b6000806040838503121561402957600080fd5b8235915060208084013567ffffffffffffffff81111561404857600080fd5b8401601f8101861361405957600080fd5b803561406c61406782613ff2565b613fc1565b81815260059190911b8201830190838101908883111561408b57600080fd5b928401925b828410156140a957833582529284019290840190614090565b80955050505050509250929050565b6000602082840312156140ca57600080fd5b5035919050565b600081518084526020808501945080840160005b83811015614101578151875295820195908201906001016140e5565b509495945050505050565b60208152600061411f60208301846140d1565b9392505050565b600082825180855260208086019550808260051b84010181860160005b8481101561418557858303601f19018952815180518452840151604085850181905261417181860183613eb1565b9a86019a9450505090830190600101614143565b5090979650505050505050565b8051825260006020820151604060208501526141b160408501826140d1565b949350505050565b6000815160a084526141ce60a0850182613efe565b9050602083015184820360208601526141e78282614126565b915050604083015184820360408601526142018282614192565b9150506060830151151560608501526080830151151560808501528091505092915050565b60208152600061411f60208301846141b9565b6000602080830181845280855180835260408601915060408160051b870101925083870160005b82811015613f9e57603f1988860301845261427c8583516141b9565b94509285019290850190600101614260565b6020815260008251604060208401526142aa6060840182613efe565b90506020840151601f19848303016040850152613f408282614126565b600082601f8301126142d857600080fd5b813567ffffffffffffffff8111156142f2576142f2613fab565b614305601f8201601f1916602001613fc1565b81815284602083860101111561431a57600080fd5b816020850160208301376000918101602001919091529392505050565b600082601f83011261434857600080fd5b8135602061435861406783613ff2565b82815260059290921b8401810191818101908684111561437757600080fd5b8286015b848110156143b757803567ffffffffffffffff81111561439b5760008081fd5b6143a98986838b01016142c7565b84525091830191830161437b565b509695505050505050565b600080600080608085870312156143d857600080fd5b84359350602085013567ffffffffffffffff808211156143f757600080fd5b614403888389016142c7565b9450604087013591508082111561441957600080fd5b614425888389016142c7565b9350606087013591508082111561443b57600080fd5b5061444887828801614337565b91505092959194509250565b8481528360208201526080604082015260006144736080830185613eb1565b82810360608401526144858185613eb1565b979650505050505050565b600080600080608085870312156144a657600080fd5b843567ffffffffffffffff808211156144be57600080fd5b6144ca888389016142c7565b955060208701359150808211156144e057600080fd5b6144ec888389016142c7565b945060408701359350606087013591508082111561443b57600080fd5b6000806040838503121561451c57600080fd5b50508035926020909101359150565b600081518084526020808501808196508360051b8101915082860160005b85811015614573578284038952614561848351614192565b98850198935090840190600101614549565b5091979650505050505050565b600060208083528351610280808386015261459f6102a08601836141b9565b915082860151604086016000805b60048082106145bc57506145f4565b845184845b838110156145dd5782518252918a0191908a01906001016145c1565b5050509387019350608092909201916001016145ad565b5050505060408601519250601f19808684030161024087015261461783856140d1565b935060608701519250808685030161026087015261463584846140d1565b9350608087015192508086850301828701525050613f40828261452b565b60208152600061411f602083018461452b565b60006020828403121561467857600080fd5b81356001600160a01b038116811461411f57600080fd5b8281526040602082015260006141b16040830184613eb1565b634e487b7160e01b600052603260045260246000fd5b600181811c908216806146d257607f821691505b60208210811415611f2a57634e487b7160e01b600052602260045260246000fd5b634e487b7160e01b600052601160045260246000fd5b600060001982141561471d5761471d6146f3565b5060010190565b600082821015614736576147366146f3565b500390565b838152826020820152606060408201526000613f4060608301846140d1565b8581526000602060a08184015261477460a0840188613eb1565b83810360408501526147868188613eb1565b905085606085015283810360808501528085518083528383019150838160051b84010184880160005b838110156147dd57601f198684030185526147cb838351613eb1565b948701949250908601906001016147af565b50909c9b505050505050505050505050565b60008219821115614802576148026146f3565b500190565b60007f7fffffffffffffffffffffffffffffffffffffffffffffffffffffffffffffff82141561471d5761471d6146f356fea26469706673582212206cf1bab820d5f8db24b8c6cb4b1161485d899313e5db4d439f8df47bfcb191a964736f6c63430008090033",
    "linkReferences": {},
    "deployedLinkReferences": {}
}