{
    "_format": "hh-sol-artifact-1",
    "contractName": "VoteResults",
    "sourceName": "contracts/VoteResults.sol",
    "abi": [
        {
            "anonymous": false,
            "inputs": [
                {
                    "indexed": false,
                    "internalType": "uint256",
                    "name": "sessionId",
                    "type": "uint256"
                },
                {
                    "indexed": false,
                    "internalType": "string",
                    "name": "label",
                    "type": "string"
                },
                {
                    "indexed": false,
                    "internalType": "string",
                    "name": "description",
                    "type": "string"
                },
                {
                    "indexed": false,
                    "internalType": "uint256",
                    "name": "endDateTime",
                    "type": "uint256"
                },
                {
                    "indexed": false,
                    "internalType": "string[]",
                    "name": "choiceIds",
                    "type": "string[]"
                }
            ],
            "name": "NewSession",
            "type": "event"
        },
        {
            "anonymous": false,
            "inputs": [
                {
                    "indexed": false,
                    "internalType": "uint256",
                    "name": "voteId",
                    "type": "uint256"
                },
                {
                    "indexed": false,
                    "internalType": "uint256",
                    "name": "sessionId",
                    "type": "uint256"
                },
                {
                    "indexed": false,
                    "internalType": "uint256[]",
                    "name": "choiceIds",
                    "type": "uint256[]"
                }
            ],
            "name": "NewVote",
            "type": "event"
        },
        {
            "anonymous": false,
            "inputs": [
                {
                    "indexed": true,
                    "internalType": "address",
                    "name": "previousOwner",
                    "type": "address"
                },
                {
                    "indexed": true,
                    "internalType": "address",
                    "name": "newOwner",
                    "type": "address"
                }
            ],
            "name": "OwnershipTransferred",
            "type": "event"
        },
        {
            "inputs": [
                {
                    "internalType": "uint256",
                    "name": "",
                    "type": "uint256"
                }
            ],
            "name": "choices",
            "outputs": [
                {
                    "internalType": "uint256",
                    "name": "choiceId",
                    "type": "uint256"
                },
                {
                    "internalType": "string",
                    "name": "label",
                    "type": "string"
                }
            ],
            "stateMutability": "view",
            "type": "function"
        },
        {
            "inputs": [
                {
                    "internalType": "string",
                    "name": "_label",
                    "type": "string"
                },
                {
                    "internalType": "string",
                    "name": "_description",
                    "type": "string"
                },
                {
                    "internalType": "uint256",
                    "name": "_endDateTime",
                    "type": "uint256"
                },
                {
                    "internalType": "string[]",
                    "name": "_choices",
                    "type": "string[]"
                }
            ],
            "name": "createSession",
            "outputs": [],
            "stateMutability": "nonpayable",
            "type": "function"
        },
        {
            "inputs": [
                {
                    "internalType": "uint256",
                    "name": "_sessionId",
                    "type": "uint256"
                },
                {
                    "internalType": "uint256[]",
                    "name": "_choiceIds",
                    "type": "uint256[]"
                }
            ],
            "name": "createVote",
            "outputs": [],
            "stateMutability": "nonpayable",
            "type": "function"
        },
        {
            "inputs": [
                {
                    "internalType": "uint256",
                    "name": "_sessionId",
                    "type": "uint256"
                }
            ],
            "name": "deleteSession",
            "outputs": [],
            "stateMutability": "nonpayable",
            "type": "function"
        },
        {
            "inputs": [
                {
                    "internalType": "uint256",
                    "name": "_sessionId",
                    "type": "uint256"
                }
            ],
            "name": "getAllVotesBySessionId",
            "outputs": [
                {
                    "components": [
                        {
                            "internalType": "uint256",
                            "name": "sessionId",
                            "type": "uint256"
                        },
                        {
                            "internalType": "uint256[]",
                            "name": "choiceIds",
                            "type": "uint256[]"
                        }
                    ],
                    "internalType": "struct VoteFactory.Vote[]",
                    "name": "",
                    "type": "tuple[]"
                }
            ],
            "stateMutability": "view",
            "type": "function"
        },
        {
            "inputs": [
                {
                    "internalType": "uint256",
                    "name": "_sessionId",
                    "type": "uint256"
                }
            ],
            "name": "getChoiceBySessionId",
            "outputs": [
                {
                    "internalType": "uint256[]",
                    "name": "",
                    "type": "uint256[]"
                }
            ],
            "stateMutability": "view",
            "type": "function"
        },
        {
            "inputs": [],
            "name": "getClosedSessionsWhereSenderHasVoted",
            "outputs": [
                {
                    "components": [
                        {
                            "components": [
                                {
                                    "internalType": "uint256",
                                    "name": "sessionId",
                                    "type": "uint256"
                                },
                                {
                                    "internalType": "uint256",
                                    "name": "endDateTime",
                                    "type": "uint256"
                                },
                                {
                                    "internalType": "string",
                                    "name": "label",
                                    "type": "string"
                                },
                                {
                                    "internalType": "string",
                                    "name": "description",
                                    "type": "string"
                                }
                            ],
                            "internalType": "struct SessionFactory.Session",
                            "name": "session",
                            "type": "tuple"
                        },
                        {
                            "components": [
                                {
                                    "internalType": "uint256",
                                    "name": "choiceId",
                                    "type": "uint256"
                                },
                                {
                                    "internalType": "string",
                                    "name": "label",
                                    "type": "string"
                                }
                            ],
                            "internalType": "struct ChoiceFactory.Choice[]",
                            "name": "choices",
                            "type": "tuple[]"
                        },
                        {
                            "components": [
                                {
                                    "internalType": "uint256",
                                    "name": "sessionId",
                                    "type": "uint256"
                                },
                                {
                                    "internalType": "uint256[]",
                                    "name": "choiceIds",
                                    "type": "uint256[]"
                                }
                            ],
                            "internalType": "struct VoteFactory.Vote",
                            "name": "vote",
                            "type": "tuple"
                        },
                        {
                            "internalType": "bool",
                            "name": "hasVoted",
                            "type": "bool"
                        },
                        {
                            "internalType": "bool",
                            "name": "isClosed",
                            "type": "bool"
                        }
                    ],
                    "internalType": "struct VoteFactory.SessionInfoForSender[]",
                    "name": "",
                    "type": "tuple[]"
                }
            ],
            "stateMutability": "view",
            "type": "function"
        },
        {
            "inputs": [],
            "name": "getClosedSessionsWhereSenderIsCreator",
            "outputs": [
                {
                    "components": [
                        {
                            "components": [
                                {
                                    "internalType": "uint256",
                                    "name": "sessionId",
                                    "type": "uint256"
                                },
                                {
                                    "internalType": "uint256",
                                    "name": "endDateTime",
                                    "type": "uint256"
                                },
                                {
                                    "internalType": "string",
                                    "name": "label",
                                    "type": "string"
                                },
                                {
                                    "internalType": "string",
                                    "name": "description",
                                    "type": "string"
                                }
                            ],
                            "internalType": "struct SessionFactory.Session",
                            "name": "session",
                            "type": "tuple"
                        },
                        {
                            "components": [
                                {
                                    "internalType": "uint256",
                                    "name": "choiceId",
                                    "type": "uint256"
                                },
                                {
                                    "internalType": "string",
                                    "name": "label",
                                    "type": "string"
                                }
                            ],
                            "internalType": "struct ChoiceFactory.Choice[]",
                            "name": "choices",
                            "type": "tuple[]"
                        },
                        {
                            "components": [
                                {
                                    "internalType": "uint256",
                                    "name": "sessionId",
                                    "type": "uint256"
                                },
                                {
                                    "internalType": "uint256[]",
                                    "name": "choiceIds",
                                    "type": "uint256[]"
                                }
                            ],
                            "internalType": "struct VoteFactory.Vote",
                            "name": "vote",
                            "type": "tuple"
                        },
                        {
                            "internalType": "bool",
                            "name": "hasVoted",
                            "type": "bool"
                        },
                        {
                            "internalType": "bool",
                            "name": "isClosed",
                            "type": "bool"
                        }
                    ],
                    "internalType": "struct VoteFactory.SessionInfoForSender[]",
                    "name": "",
                    "type": "tuple[]"
                }
            ],
            "stateMutability": "view",
            "type": "function"
        },
        {
            "inputs": [],
            "name": "getOpenedSessions",
            "outputs": [
                {
                    "components": [
                        {
                            "internalType": "uint256",
                            "name": "sessionId",
                            "type": "uint256"
                        },
                        {
                            "internalType": "uint256",
                            "name": "endDateTime",
                            "type": "uint256"
                        },
                        {
                            "internalType": "string",
                            "name": "label",
                            "type": "string"
                        },
                        {
                            "internalType": "string",
                            "name": "description",
                            "type": "string"
                        }
                    ],
                    "internalType": "struct SessionFactory.Session[]",
                    "name": "",
                    "type": "tuple[]"
                }
            ],
            "stateMutability": "view",
            "type": "function"
        },
        {
            "inputs": [],
            "name": "getOpenedSessionsForSender",
            "outputs": [
                {
                    "components": [
                        {
                            "components": [
                                {
                                    "internalType": "uint256",
                                    "name": "sessionId",
                                    "type": "uint256"
                                },
                                {
                                    "internalType": "uint256",
                                    "name": "endDateTime",
                                    "type": "uint256"
                                },
                                {
                                    "internalType": "string",
                                    "name": "label",
                                    "type": "string"
                                },
                                {
                                    "internalType": "string",
                                    "name": "description",
                                    "type": "string"
                                }
                            ],
                            "internalType": "struct SessionFactory.Session",
                            "name": "session",
                            "type": "tuple"
                        },
                        {
                            "components": [
                                {
                                    "internalType": "uint256",
                                    "name": "choiceId",
                                    "type": "uint256"
                                },
                                {
                                    "internalType": "string",
                                    "name": "label",
                                    "type": "string"
                                }
                            ],
                            "internalType": "struct ChoiceFactory.Choice[]",
                            "name": "choices",
                            "type": "tuple[]"
                        },
                        {
                            "components": [
                                {
                                    "internalType": "uint256",
                                    "name": "sessionId",
                                    "type": "uint256"
                                },
                                {
                                    "internalType": "uint256[]",
                                    "name": "choiceIds",
                                    "type": "uint256[]"
                                }
                            ],
                            "internalType": "struct VoteFactory.Vote",
                            "name": "vote",
                            "type": "tuple"
                        },
                        {
                            "internalType": "bool",
                            "name": "hasVoted",
                            "type": "bool"
                        },
                        {
                            "internalType": "bool",
                            "name": "isClosed",
                            "type": "bool"
                        }
                    ],
                    "internalType": "struct VoteFactory.SessionInfoForSender[]",
                    "name": "",
                    "type": "tuple[]"
                }
            ],
            "stateMutability": "view",
            "type": "function"
        },
        {
            "inputs": [
                {
                    "internalType": "uint256",
                    "name": "_sessionId",
                    "type": "uint256"
                }
            ],
            "name": "getSession",
            "outputs": [
                {
                    "components": [
                        {
                            "components": [
                                {
                                    "internalType": "uint256",
                                    "name": "sessionId",
                                    "type": "uint256"
                                },
                                {
                                    "internalType": "uint256",
                                    "name": "endDateTime",
                                    "type": "uint256"
                                },
                                {
                                    "internalType": "string",
                                    "name": "label",
                                    "type": "string"
                                },
                                {
                                    "internalType": "string",
                                    "name": "description",
                                    "type": "string"
                                }
                            ],
                            "internalType": "struct SessionFactory.Session",
                            "name": "session",
                            "type": "tuple"
                        },
                        {
                            "components": [
                                {
                                    "internalType": "uint256",
                                    "name": "choiceId",
                                    "type": "uint256"
                                },
                                {
                                    "internalType": "string",
                                    "name": "label",
                                    "type": "string"
                                }
                            ],
                            "internalType": "struct ChoiceFactory.Choice[]",
                            "name": "choices",
                            "type": "tuple[]"
                        }
                    ],
                    "internalType": "struct SessionFactory.SessionWithChoice",
                    "name": "",
                    "type": "tuple"
                }
            ],
            "stateMutability": "view",
            "type": "function"
        },
        {
            "inputs": [
                {
                    "internalType": "uint256",
                    "name": "_sessionId",
                    "type": "uint256"
                }
            ],
            "name": "getSessionForSender",
            "outputs": [
                {
                    "components": [
                        {
                            "components": [
                                {
                                    "internalType": "uint256",
                                    "name": "sessionId",
                                    "type": "uint256"
                                },
                                {
                                    "internalType": "uint256",
                                    "name": "endDateTime",
                                    "type": "uint256"
                                },
                                {
                                    "internalType": "string",
                                    "name": "label",
                                    "type": "string"
                                },
                                {
                                    "internalType": "string",
                                    "name": "description",
                                    "type": "string"
                                }
                            ],
                            "internalType": "struct SessionFactory.Session",
                            "name": "session",
                            "type": "tuple"
                        },
                        {
                            "components": [
                                {
                                    "internalType": "uint256",
                                    "name": "choiceId",
                                    "type": "uint256"
                                },
                                {
                                    "internalType": "string",
                                    "name": "label",
                                    "type": "string"
                                }
                            ],
                            "internalType": "struct ChoiceFactory.Choice[]",
                            "name": "choices",
                            "type": "tuple[]"
                        },
                        {
                            "components": [
                                {
                                    "internalType": "uint256",
                                    "name": "sessionId",
                                    "type": "uint256"
                                },
                                {
                                    "internalType": "uint256[]",
                                    "name": "choiceIds",
                                    "type": "uint256[]"
                                }
                            ],
                            "internalType": "struct VoteFactory.Vote",
                            "name": "vote",
                            "type": "tuple"
                        },
                        {
                            "internalType": "bool",
                            "name": "hasVoted",
                            "type": "bool"
                        },
                        {
                            "internalType": "bool",
                            "name": "isClosed",
                            "type": "bool"
                        }
                    ],
                    "internalType": "struct VoteFactory.SessionInfoForSender",
                    "name": "",
                    "type": "tuple"
                }
            ],
            "stateMutability": "view",
            "type": "function"
        },
        {
            "inputs": [],
            "name": "getSessions",
            "outputs": [
                {
                    "components": [
                        {
                            "internalType": "uint256",
                            "name": "sessionId",
                            "type": "uint256"
                        },
                        {
                            "internalType": "uint256",
                            "name": "endDateTime",
                            "type": "uint256"
                        },
                        {
                            "internalType": "string",
                            "name": "label",
                            "type": "string"
                        },
                        {
                            "internalType": "string",
                            "name": "description",
                            "type": "string"
                        }
                    ],
                    "internalType": "struct SessionFactory.Session[]",
                    "name": "",
                    "type": "tuple[]"
                }
            ],
            "stateMutability": "view",
            "type": "function"
        },
        {
            "inputs": [
                {
                    "internalType": "uint256",
                    "name": "_sessionId",
                    "type": "uint256"
                }
            ],
            "name": "getWinnerBySessionId",
            "outputs": [
                {
                    "components": [
                        {
                            "components": [
                                {
                                    "components": [
                                        {
                                            "internalType": "uint256",
                                            "name": "sessionId",
                                            "type": "uint256"
                                        },
                                        {
                                            "internalType": "uint256",
                                            "name": "endDateTime",
                                            "type": "uint256"
                                        },
                                        {
                                            "internalType": "string",
                                            "name": "label",
                                            "type": "string"
                                        },
                                        {
                                            "internalType": "string",
                                            "name": "description",
                                            "type": "string"
                                        }
                                    ],
                                    "internalType": "struct SessionFactory.Session",
                                    "name": "session",
                                    "type": "tuple"
                                },
                                {
                                    "components": [
                                        {
                                            "internalType": "uint256",
                                            "name": "choiceId",
                                            "type": "uint256"
                                        },
                                        {
                                            "internalType": "string",
                                            "name": "label",
                                            "type": "string"
                                        }
                                    ],
                                    "internalType": "struct ChoiceFactory.Choice[]",
                                    "name": "choices",
                                    "type": "tuple[]"
                                },
                                {
                                    "components": [
                                        {
                                            "internalType": "uint256",
                                            "name": "sessionId",
                                            "type": "uint256"
                                        },
                                        {
                                            "internalType": "uint256[]",
                                            "name": "choiceIds",
                                            "type": "uint256[]"
                                        }
                                    ],
                                    "internalType": "struct VoteFactory.Vote",
                                    "name": "vote",
                                    "type": "tuple"
                                },
                                {
                                    "internalType": "bool",
                                    "name": "hasVoted",
                                    "type": "bool"
                                },
                                {
                                    "internalType": "bool",
                                    "name": "isClosed",
                                    "type": "bool"
                                }
                            ],
                            "internalType": "struct VoteFactory.SessionInfoForSender",
                            "name": "session",
                            "type": "tuple"
                        },
                        {
                            "internalType": "uint256[4][4]",
                            "name": "result",
                            "type": "uint256[4][4]"
                        },
                        {
                            "internalType": "uint256",
                            "name": "choiceIdWinner",
                            "type": "uint256"
                        }
                    ],
                    "internalType": "struct VoteResults.Result",
                    "name": "",
                    "type": "tuple"
                }
            ],
            "stateMutability": "view",
            "type": "function"
        },
        {
            "inputs": [
                {
                    "internalType": "uint256",
                    "name": "_sessionId",
                    "type": "uint256"
                }
            ],
            "name": "isOpen",
            "outputs": [
                {
                    "internalType": "bool",
                    "name": "",
                    "type": "bool"
                }
            ],
            "stateMutability": "view",
            "type": "function"
        },
        {
            "inputs": [],
            "name": "owner",
            "outputs": [
                {
                    "internalType": "address",
                    "name": "",
                    "type": "address"
                }
            ],
            "stateMutability": "view",
            "type": "function"
        },
        {
            "inputs": [],
            "name": "renounceOwnership",
            "outputs": [],
            "stateMutability": "nonpayable",
            "type": "function"
        },
        {
            "inputs": [],
            "name": "sessionCount",
            "outputs": [
                {
                    "internalType": "uint256",
                    "name": "",
                    "type": "uint256"
                }
            ],
            "stateMutability": "view",
            "type": "function"
        },
        {
            "inputs": [
                {
                    "internalType": "uint256",
                    "name": "",
                    "type": "uint256"
                },
                {
                    "internalType": "uint256",
                    "name": "",
                    "type": "uint256"
                }
            ],
            "name": "sessionToChoices",
            "outputs": [
                {
                    "internalType": "uint256",
                    "name": "",
                    "type": "uint256"
                }
            ],
            "stateMutability": "view",
            "type": "function"
        },
        {
            "inputs": [
                {
                    "internalType": "uint256",
                    "name": "",
                    "type": "uint256"
                }
            ],
            "name": "sessionToOwner",
            "outputs": [
                {
                    "internalType": "address",
                    "name": "",
                    "type": "address"
                }
            ],
            "stateMutability": "view",
            "type": "function"
        },
        {
            "inputs": [
                {
                    "internalType": "uint256",
                    "name": "",
                    "type": "uint256"
                }
            ],
            "name": "sessions",
            "outputs": [
                {
                    "internalType": "uint256",
                    "name": "sessionId",
                    "type": "uint256"
                },
                {
                    "internalType": "uint256",
                    "name": "endDateTime",
                    "type": "uint256"
                },
                {
                    "internalType": "string",
                    "name": "label",
                    "type": "string"
                },
                {
                    "internalType": "string",
                    "name": "description",
                    "type": "string"
                }
            ],
            "stateMutability": "view",
            "type": "function"
        },
        {
            "inputs": [
                {
                    "internalType": "address",
                    "name": "newOwner",
                    "type": "address"
                }
            ],
            "name": "transferOwnership",
            "outputs": [],
            "stateMutability": "nonpayable",
            "type": "function"
        },
        {
            "inputs": [
                {
                    "internalType": "uint256",
                    "name": "_sessionId",
                    "type": "uint256"
                },
                {
                    "internalType": "string",
                    "name": "label",
                    "type": "string"
                },
                {
                    "internalType": "string",
                    "name": "description",
                    "type": "string"
                },
                {
                    "internalType": "string[]",
                    "name": "choices",
                    "type": "string[]"
                }
            ],
            "name": "updateSession",
            "outputs": [],
            "stateMutability": "nonpayable",
            "type": "function"
        },
        {
            "inputs": [],
            "name": "voteCount",
            "outputs": [
                {
                    "internalType": "uint256",
                    "name": "",
                    "type": "uint256"
                }
            ],
            "stateMutability": "view",
            "type": "function"
        },
        {
            "inputs": [
                {
                    "internalType": "uint256",
                    "name": "",
                    "type": "uint256"
                }
            ],
            "name": "votes",
            "outputs": [
                {
                    "internalType": "uint256",
                    "name": "sessionId",
                    "type": "uint256"
                }
            ],
            "stateMutability": "view",
            "type": "function"
        }
    ],
    "bytecode": "0x608060405260046002553480156200001657600080fd5b50620000376200002b6200003d60201b60201c565b6200004560201b60201c565b62000109565b600033905090565b60008060009054906101000a900473ffffffffffffffffffffffffffffffffffffffff169050816000806101000a81548173ffffffffffffffffffffffffffffffffffffffff021916908373ffffffffffffffffffffffffffffffffffffffff1602179055508173ffffffffffffffffffffffffffffffffffffffff168173ffffffffffffffffffffffffffffffffffffffff167f8be0079c531659141344cd1fd0a4f28419497f9722a3daafe3b4186f6b6457e060405160405180910390a35050565b61544f80620001196000396000f3fe608060405234801561001057600080fd5b50600436106101735760003560e01c8063782a6ad6116100de578063b525bb7711610097578063c638407111610071578063c63840711461048b578063e2231201146104a9578063f2fde38b146104c5578063f6fd7fde146104e157610173565b8063b525bb771461040d578063bcdb86701461043d578063c1698ffa1461045b57610173565b8063782a6ad61461032257806383c4b7a3146103405780638da5cb5b146103735780639c841e62146103915780639dc48908146103ad578063a9faac44146103dd57610173565b80634d6861a6116101305780634d6861a6146102605780635df813301461029057806361503e45146102c057806367677ce5146102de578063715018a6146102fa57806373cd83361461030457610173565b80630ae7c547146101785780630f693caf146101965780631ff3d24a146101b25780633eb94ac3146101e2578063402ff0db14610200578063499f842c14610230575b600080fd5b610180610512565b60405161018d9190613f37565b60405180910390f35b6101b060048036038101906101ab91906140e1565b610765565b005b6101cc60048036038101906101c7919061413d565b610a05565b6040516101d991906143f4565b60405180910390f35b6101ea610a6d565b6040516101f7919061455c565b60405180910390f35b61021a6004803603810190610215919061413d565b610c1e565b60405161022791906145c2565b60405180910390f35b61024a6004803603810190610245919061413d565b610f52565b6040516102579190614653565b60405180910390f35b61027a6004803603810190610275919061413d565b610fbd565b6040516102879190614684565b60405180910390f35b6102aa60048036038101906102a5919061413d565b610fee565b6040516102b791906146ae565b60405180910390f35b6102c861101c565b6040516102d59190613f37565b60405180910390f35b6102f860048036038101906102f3919061485f565b6111b3565b005b610302611386565b005b61030c61139a565b60405161031991906146ae565b60405180910390f35b61032a6113a7565b604051610337919061455c565b60405180910390f35b61035a6004803603810190610355919061413d565b6115b1565b60405161036a9493929190614964565b60405180910390f35b61037b611701565b60405161038891906149f8565b60405180910390f35b6103ab60048036038101906103a69190614a13565b61172a565b005b6103c760048036038101906103c29190614ace565b611880565b6040516103d491906146ae565b60405180910390f35b6103f760048036038101906103f2919061413d565b6118b1565b60405161040491906149f8565b60405180910390f35b6104276004803603810190610422919061413d565b6118e4565b6040516104349190614bd0565b60405180910390f35b610445611a5e565b604051610452919061455c565b60405180910390f35b6104756004803603810190610470919061413d565b611bd4565b6040516104829190614d64565b60405180910390f35b610493611d1c565b6040516104a091906146ae565b60405180910390f35b6104c360048036038101906104be919061413d565b611d29565b005b6104df60048036038101906104da9190614db2565b611ee4565b005b6104fb60048036038101906104f6919061413d565b611f68565b604051610509929190614ddf565b60405180910390f35b6060600061051e612024565b67ffffffffffffffff81111561053757610536613f9e565b5b60405190808252806020026020018201604052801561057057816020015b61055d6139d7565b8152602001906001900390816105555790505b5090506000805b60038054905081101561075c576105b26003828154811061059b5761059a614e0f565b5b906000526020600020906004020160000154610fbd565b1561074957600381815481106105cb576105ca614e0f565b5b9060005260206000209060040201604051806080016040529081600082015481526020016001820154815260200160028201805461060890614e6d565b80601f016020809104026020016040519081016040528092919081815260200182805461063490614e6d565b80156106815780601f1061065657610100808354040283529160200191610681565b820191906000526020600020905b81548152906001019060200180831161066457829003601f168201915b5050505050815260200160038201805461069a90614e6d565b80601f01602080910402602001604051908101604052809291908181526020018280546106c690614e6d565b80156107135780601f106106e857610100808354040283529160200191610713565b820191906000526020600020905b8154815290600101906020018083116106f657829003601f168201915b50505050508152505083838151811061072f5761072e614e0f565b5b6020026020010181905250818061074590614ece565b9250505b808061075490614ece565b915050610577565b50819250505090565b818161077082612098565b6107af576040517f08c379a00000000000000000000000000000000000000000000000000000000081526004016107a690614f63565b60405180910390fd5b6107b8826120a9565b156107f8576040517f08c379a00000000000000000000000000000000000000000000000000000000081526004016107ef90614fcf565b60405180910390fd5b61080282826120bc565b610841576040517f08c379a000000000000000000000000000000000000000000000000000000000815260040161083890615061565b60405180910390fd5b61084a8261218d565b1561088a576040517f08c379a0000000000000000000000000000000000000000000000000000000008152600401610881906150cd565b60405180910390fd5b600660405180604001604052808681526020018581525090806001815401808255809150506001900390600052602060002090600202016000909190919091506000820151816000015560208201518160010190805190602001906108f09291906139ff565b5050506000600160068054905061090791906150ed565b9050336007600083815260200190815260200160002060006101000a81548173ffffffffffffffffffffffffffffffffffffffff021916908373ffffffffffffffffffffffffffffffffffffffff1602179055506006600860003373ffffffffffffffffffffffffffffffffffffffff1673ffffffffffffffffffffffffffffffffffffffff1681526020019081526020016000209080546109aa929190613a4c565b508460096000838152602001908152602001600020819055507f83f89aa3151a6342b09e093d51aede8abf5947bebe813d3f0c067a7d0236e4bf8186866040516109f693929190615121565b60405180910390a15050505050565b610a0d613ac5565b6000610a1883610c1e565b90506040518060a001604052808260000151815260200182602001518152602001610a4285612271565b8152602001610a508561218d565b15158152602001610a60856120a9565b1515815250915050919050565b60606000610a79612371565b90506000610a856125f6565b67ffffffffffffffff811115610a9e57610a9d613f9e565b5b604051908082528060200260200182016040528015610ad757816020015b610ac4613ac5565b815260200190600190039081610abc5790505b5090506000805b8351811015610c1457610b0e848281518110610afd57610afc614e0f565b5b60200260200101516000015161218d565b15610c01576040518060a00160405280858381518110610b3157610b30614e0f565b5b60200260200101518152602001600067ffffffffffffffff811115610b5957610b58613f9e565b5b604051908082528060200260200182016040528015610b9257816020015b610b7f613b04565b815260200190600190039081610b775790505b508152602001610bbf868481518110610bae57610bad614e0f565b5b602002602001015160000151612271565b815260200160011515815260200160011515815250838381518110610be757610be6614e0f565b5b60200260200101819052508180610bfd90614ece565b9250505b8080610c0c90614ece565b915050610ade565b5081935050505090565b610c26613b1e565b600060025467ffffffffffffffff811115610c4457610c43613f9e565b5b604051908082528060200260200182016040528015610c7d57816020015b610c6a613b04565b815260200190600190039081610c625790505b50905060005b6005600085815260200190815260200160002080549050811015610dca576001600560008681526020019081526020016000208281548110610cc857610cc7614e0f565b5b906000526020600020015481548110610ce457610ce3614e0f565b5b906000526020600020906002020160405180604001604052908160008201548152602001600182018054610d1790614e6d565b80601f0160208091040260200160405190810160405280929190818152602001828054610d4390614e6d565b8015610d905780601f10610d6557610100808354040283529160200191610d90565b820191906000526020600020905b815481529060010190602001808311610d7357829003601f168201915b505050505081525050828281518110610dac57610dab614e0f565b5b60200260200101819052508080610dc290614ece565b915050610c83565b506000604051806040016040528060038681548110610dec57610deb614e0f565b5b90600052602060002090600402016040518060800160405290816000820154815260200160018201548152602001600282018054610e2990614e6d565b80601f0160208091040260200160405190810160405280929190818152602001828054610e5590614e6d565b8015610ea25780601f10610e7757610100808354040283529160200191610ea2565b820191906000526020600020905b815481529060010190602001808311610e8557829003601f168201915b50505050508152602001600382018054610ebb90614e6d565b80601f0160208091040260200160405190810160405280929190818152602001828054610ee790614e6d565b8015610f345780601f10610f0957610100808354040283529160200191610f34565b820191906000526020600020905b815481529060010190602001808311610f1757829003601f168201915b50505050508152505081526020018381525090508092505050919050565b606060056000838152602001908152602001600020805480602002602001604051908101604052809291908181526020018280548015610fb157602002820191906000526020600020905b815481526020019060010190808311610f9d575b50505050509050919050565b60004260038381548110610fd457610fd3614e0f565b5b906000526020600020906004020160010154119050919050565b60068181548110610ffe57600080fd5b90600052602060002090600202016000915090508060000154905081565b60606003805480602002602001604051908101604052809291908181526020016000905b828210156111aa5783829060005260206000209060040201604051806080016040529081600082015481526020016001820154815260200160028201805461108790614e6d565b80601f01602080910402602001604051908101604052809291908181526020018280546110b390614e6d565b80156111005780601f106110d557610100808354040283529160200191611100565b820191906000526020600020905b8154815290600101906020018083116110e357829003601f168201915b5050505050815260200160038201805461111990614e6d565b80601f016020809104026020016040519081016040528092919081815260200182805461114590614e6d565b80156111925780601f1061116757610100808354040283529160200191611192565b820191906000526020600020905b81548152906001019060200180831161117557829003601f168201915b50505050508152505081526020019060010190611040565b50505050905090565b3373ffffffffffffffffffffffffffffffffffffffff166004600086815260200190815260200160002060009054906101000a900473ffffffffffffffffffffffffffffffffffffffff1673ffffffffffffffffffffffffffffffffffffffff1614611254576040517f08c379a000000000000000000000000000000000000000000000000000000000815260040161124b906151d1565b60405180910390fd5b826003858154811061126957611268614e0f565b5b9060005260206000209060040201600201908051906020019061128d929190613b3e565b5081600385815481106112a3576112a2614e0f565b5b906000526020600020906004020160030190805190602001906112c7929190613b3e565b5060005b600560008681526020019081526020016000208054905081101561137f578181815181106112fc576112fb614e0f565b5b6020026020010151600160056000888152602001908152602001600020838154811061132b5761132a614e0f565b5b90600052602060002001548154811061134757611346614e0f565b5b9060005260206000209060020201600101908051906020019061136b929190613b3e565b50808061137790614ece565b9150506112cb565b5050505050565b61138e61266c565b61139860006126ea565b565b6000600380549050905090565b606060006113b3612371565b905060006113bf6127ae565b67ffffffffffffffff8111156113d8576113d7613f9e565b5b60405190808252806020026020018201604052801561141157816020015b6113fe613ac5565b8152602001906001900390816113f65790505b5090506000805b83518110156115a7573373ffffffffffffffffffffffffffffffffffffffff166004600086848151811061144f5761144e614e0f565b5b602002602001015160000151815260200190815260200160002060009054906101000a900473ffffffffffffffffffffffffffffffffffffffff1673ffffffffffffffffffffffffffffffffffffffff161415611594576040518060a001604052808583815181106114c4576114c3614e0f565b5b60200260200101518152602001600067ffffffffffffffff8111156114ec576114eb613f9e565b5b60405190808252806020026020018201604052801561152557816020015b611512613b04565b81526020019060019003908161150a5790505b50815260200161155286848151811061154157611540614e0f565b5b602002602001015160000151612271565b81526020016000151581526020016001151581525083838151811061157a57611579614e0f565b5b6020026020010181905250818061159090614ece565b9250505b808061159f90614ece565b915050611418565b5081935050505090565b600381815481106115c157600080fd5b90600052602060002090600402016000915090508060000154908060010154908060020180546115f090614e6d565b80601f016020809104026020016040519081016040528092919081815260200182805461161c90614e6d565b80156116695780601f1061163e57610100808354040283529160200191611669565b820191906000526020600020905b81548152906001019060200180831161164c57829003601f168201915b50505050509080600301805461167e90614e6d565b80601f01602080910402602001604051908101604052809291908181526020018280546116aa90614e6d565b80156116f75780601f106116cc576101008083540402835291602001916116f7565b820191906000526020600020905b8154815290600101906020018083116116da57829003601f168201915b5050505050905084565b60008060009054906101000a900473ffffffffffffffffffffffffffffffffffffffff16905090565b60006003805490509050600060405180608001604052808381526020018581526020018781526020018681525090506003819080600181540180825580915050600190039060005260206000209060040201600090919091909150600082015181600001556020820151816001015560408201518160020190805190602001906117b5929190613b3e565b5060608201518160030190805190602001906117d2929190613b3e565b505050336004600084815260200190815260200160002060006101000a81548173ffffffffffffffffffffffffffffffffffffffff021916908373ffffffffffffffffffffffffffffffffffffffff160217905550611831838361287d565b7fc15b3d50eeeed090d36acebfceb7fba18ecfdb2f92791ec72fb665041f71527c8287878761185f87612903565b6040516118709594939291906152b3565b60405180910390a1505050505050565b6005602052816000526040600020818154811061189c57600080fd5b90600052602060002001600091509150505481565b60046020528060005260406000206000915054906101000a900473ffffffffffffffffffffffffffffffffffffffff1681565b606060006118f183612a92565b67ffffffffffffffff81111561190a57611909613f9e565b5b60405190808252806020026020018201604052801561194357816020015b611930613bc4565b8152602001906001900390816119285790505b5090506000805b600680549050811015611a5357846006828154811061196c5761196b614e0f565b5b9060005260206000209060020201600001541415611a40576006818154811061199857611997614e0f565b5b90600052602060002090600202016040518060400160405290816000820154815260200160018201805480602002602001604051908101604052809291908181526020018280548015611a0a57602002820191906000526020600020905b8154815260200190600101908083116119f6575b505050505081525050838381518110611a2657611a25614e0f565b5b60200260200101819052508180611a3c90614ece565b9250505b8080611a4b90614ece565b91505061194a565b508192505050919050565b6060611a68613bc4565b6000611a72610512565b90506000815167ffffffffffffffff811115611a9157611a90613f9e565b5b604051908082528060200260200182016040528015611aca57816020015b611ab7613ac5565b815260200190600190039081611aaf5790505b50905060005b8251811015611bca576040518060a00160405280848381518110611af757611af6614e0f565b5b60200260200101518152602001600067ffffffffffffffff811115611b1f57611b1e613f9e565b5b604051908082528060200260200182016040528015611b5857816020015b611b45613b04565b815260200190600190039081611b3d5790505b508152602001858152602001611b8b858481518110611b7a57611b79614e0f565b5b60200260200101516000015161218d565b1515815260200160001515815250828281518110611bac57611bab614e0f565b5b60200260200101819052508080611bc290614ece565b915050611ad0565b5080935050505090565b611bdc613bde565b600060056000848152602001908152602001600020805480602002602001604051908101604052809291908181526020018280548015611c3b57602002820191906000526020600020905b815481526020019060010190808311611c27575b505050505090506000611c4d846118e4565b90506000611c5b8284612b02565b90506000611c698285612dfd565b9050600060029050611c7e8284868885613133565b9250611c8a85836136f8565b9450611c968386612dfd565b91508080611ca390614ece565b915050611cb38284868885613133565b9250611cbf85836136f8565b9450611ccb8386612dfd565b9150611cd785836136f8565b94506000611ce4866137de565b90506000611cf189610a05565b9050604051806060016040528082815260200186815260200183815250975050505050505050919050565b6000600680549050905090565b3373ffffffffffffffffffffffffffffffffffffffff166004600083815260200190815260200160002060009054906101000a900473ffffffffffffffffffffffffffffffffffffffff1673ffffffffffffffffffffffffffffffffffffffff1614611dca576040517f08c379a0000000000000000000000000000000000000000000000000000000008152600401611dc1906151d1565b60405180910390fd5b60005b6005600083815260200190815260200160002080549050811015611e3657611e23600560008481526020019081526020016000208281548110611e1357611e12614e0f565b5b9060005260206000200154613841565b8080611e2e90614ece565b915050611dcd565b50600560008281526020019081526020016000206000611e569190613c0b565b6004600082815260200190815260200160002060006101000a81549073ffffffffffffffffffffffffffffffffffffffff021916905560038181548110611ea057611e9f614e0f565b5b90600052602060002090600402016000808201600090556001820160009055600282016000611ecf9190613c2c565b600382016000611edf9190613c2c565b505050565b611eec61266c565b600073ffffffffffffffffffffffffffffffffffffffff168173ffffffffffffffffffffffffffffffffffffffff161415611f5c576040517f08c379a0000000000000000000000000000000000000000000000000000000008152600401611f539061538d565b60405180910390fd5b611f65816126ea565b50565b60018181548110611f7857600080fd5b9060005260206000209060020201600091509050806000015490806001018054611fa190614e6d565b80601f0160208091040260200160405190810160405280929190818152602001828054611fcd90614e6d565b801561201a5780601f10611fef5761010080835404028352916020019161201a565b820191906000526020600020905b815481529060010190602001808311611ffd57829003601f168201915b5050505050905082565b6000806000905060005b600380549050811015612090576120696003828154811061205257612051614e0f565b5b906000526020600020906004020160000154610fbd565b1561207d57818061207990614ece565b9250505b808061208890614ece565b91505061202e565b508091505090565b600060038054905082109050919050565b60006120b482610fbd565b159050919050565b600080600090505b8251811015612181576000805b600560008781526020019081526020016000208054905081101561215c5760056000878152602001908152602001600020818154811061211457612113614e0f565b5b906000526020600020015485848151811061213257612131614e0f565b5b60200260200101511415612149576001915061215c565b808061215490614ece565b9150506120d1565b508061216d57600092505050612187565b50808061217990614ece565b9150506120c4565b50600190505b92915050565b600080600090505b600860003373ffffffffffffffffffffffffffffffffffffffff1673ffffffffffffffffffffffffffffffffffffffff168152602001908152602001600020805490508110156122665782600860003373ffffffffffffffffffffffffffffffffffffffff1673ffffffffffffffffffffffffffffffffffffffff168152602001908152602001600020828154811061223157612230614e0f565b5b906000526020600020906002020160000154141561225357600191505061226c565b808061225e90614ece565b915050612195565b50600090505b919050565b612279613bc4565b612281613bc4565b60005b6006805490508110156123675783600682815481106122a6576122a5614e0f565b5b906000526020600020906002020160000154141561235457600681815481106122d2576122d1614e0f565b5b9060005260206000209060020201604051806040016040529081600082015481526020016001820180548060200260200160405190810160405280929190818152602001828054801561234457602002820191906000526020600020905b815481526020019060010190808311612330575b5050505050815250509150612367565b808061235f90614ece565b915050612284565b5080915050919050565b6060600061237d613881565b67ffffffffffffffff81111561239657612395613f9e565b5b6040519080825280602002602001820160405280156123cf57816020015b6123bc6139d7565b8152602001906001900390816123b45790505b5090506000805b6003805490508110156125ed57612411600382815481106123fa576123f9614e0f565b5b906000526020600020906004020160000154610fbd565b158015612443575060006003828154811061242f5761242e614e0f565b5b906000526020600020906004020160010154115b156125da576003818154811061245c5761245b614e0f565b5b9060005260206000209060040201604051806080016040529081600082015481526020016001820154815260200160028201805461249990614e6d565b80601f01602080910402602001604051908101604052809291908181526020018280546124c590614e6d565b80156125125780601f106124e757610100808354040283529160200191612512565b820191906000526020600020905b8154815290600101906020018083116124f557829003601f168201915b5050505050815260200160038201805461252b90614e6d565b80601f016020809104026020016040519081016040528092919081815260200182805461255790614e6d565b80156125a45780601f10612579576101008083540402835291602001916125a4565b820191906000526020600020905b81548152906001019060200180831161258757829003601f168201915b5050505050815250508383815181106125c0576125bf614e0f565b5b602002602001018190525081806125d690614ece565b9250505b80806125e590614ece565b9150506123d6565b50819250505090565b600080600090506000612607612371565b905060005b81518110156126635761263c82828151811061262b5761262a614e0f565b5b60200260200101516000015161218d565b1561265057828061264c90614ece565b9350505b808061265b90614ece565b91505061260c565b50819250505090565b612674613927565b73ffffffffffffffffffffffffffffffffffffffff16612692611701565b73ffffffffffffffffffffffffffffffffffffffff16146126e8576040517f08c379a00000000000000000000000000000000000000000000000000000000081526004016126df906153f9565b60405180910390fd5b565b60008060009054906101000a900473ffffffffffffffffffffffffffffffffffffffff169050816000806101000a81548173ffffffffffffffffffffffffffffffffffffffff021916908373ffffffffffffffffffffffffffffffffffffffff1602179055508173ffffffffffffffffffffffffffffffffffffffff168173ffffffffffffffffffffffffffffffffffffffff167f8be0079c531659141344cd1fd0a4f28419497f9722a3daafe3b4186f6b6457e060405160405180910390a35050565b6000806000905060006127bf612371565b905060005b8151811015612874573373ffffffffffffffffffffffffffffffffffffffff16600460008484815181106127fb576127fa614e0f565b5b602002602001015160000151815260200190815260200160002060009054906101000a900473ffffffffffffffffffffffffffffffffffffffff1673ffffffffffffffffffffffffffffffffffffffff16141561286157828061285d90614ece565b9350505b808061286c90614ece565b9150506127c4565b50819250505090565b60005b82518110156128fe5760006128ae8483815181106128a1576128a0614e0f565b5b602002602001015161392f565b9050600560008481526020019081526020016000208190806001815401808255809150506001900390600052602060002001600090919091909150555080806128f690614ece565b915050612880565b505050565b6060600060025467ffffffffffffffff81111561292357612922613f9e565b5b60405190808252806020026020018201604052801561295657816020015b60608152602001906001900390816129415790505b50905060005b6005600085815260200190815260200160002080549050811015612a885760016005600086815260200190815260200160002082815481106129a1576129a0614e0f565b5b9060005260206000200154815481106129bd576129bc614e0f565b5b906000526020600020906002020160010180546129d990614e6d565b80601f0160208091040260200160405190810160405280929190818152602001828054612a0590614e6d565b8015612a525780601f10612a2757610100808354040283529160200191612a52565b820191906000526020600020905b815481529060010190602001808311612a3557829003601f168201915b5050505050828281518110612a6a57612a69614e0f565b5b60200260200101819052508080612a8090614ece565b91505061295c565b5080915050919050565b6000806000905060005b600680549050811015612af8578360068281548110612abe57612abd614e0f565b5b9060005260206000209060020201600001541415612ae5578180612ae190614ece565b9250505b8080612af090614ece565b915050612a9c565b5080915050919050565b612b0a613c6c565b612b12613c6c565b60005b8451811015612df25760005b858281518110612b3457612b33614e0f565b5b60200260200101516020015151811015612dde5784600081518110612b5c57612b5b614e0f565b5b6020026020010151868381518110612b7757612b76614e0f565b5b6020026020010151602001518281518110612b9557612b94614e0f565b5b60200260200101511415612be95782600060048110612bb757612bb6614e0f565b5b60200201518160048110612bce57612bcd614e0f565b5b602002018051809190612be090614ece565b81525050612dcb565b84600181518110612bfd57612bfc614e0f565b5b6020026020010151868381518110612c1857612c17614e0f565b5b6020026020010151602001518281518110612c3657612c35614e0f565b5b60200260200101511415612c8a5782600160048110612c5857612c57614e0f565b5b60200201518160048110612c6f57612c6e614e0f565b5b602002018051809190612c8190614ece565b81525050612dca565b84600281518110612c9e57612c9d614e0f565b5b6020026020010151868381518110612cb957612cb8614e0f565b5b6020026020010151602001518281518110612cd757612cd6614e0f565b5b60200260200101511415612d2b5782600260048110612cf957612cf8614e0f565b5b60200201518160048110612d1057612d0f614e0f565b5b602002018051809190612d2290614ece565b81525050612dc9565b84600381518110612d3f57612d3e614e0f565b5b6020026020010151868381518110612d5a57612d59614e0f565b5b6020026020010151602001518281518110612d7857612d77614e0f565b5b60200260200101511415612dc85782600360048110612d9a57612d99614e0f565b5b60200201518160048110612db157612db0614e0f565b5b602002018051809190612dc390614ece565b815250505b5b5b5b8080612dd690614ece565b915050612b21565b508080612dea90614ece565b915050612b15565b508091505092915050565b600080600090506000600190505b600481101561312857612e1e84826139ac565b15612e2857613115565b848260048110612e3b57612e3a614e0f565b5b6020020151600060048110612e5357612e52614e0f565b5b6020020151858260048110612e6b57612e6a614e0f565b5b6020020151600060048110612e8357612e82614e0f565b5b60200201511015612e9657809150613114565b848260048110612ea957612ea8614e0f565b5b6020020151600060048110612ec157612ec0614e0f565b5b6020020151858260048110612ed957612ed8614e0f565b5b6020020151600060048110612ef157612ef0614e0f565b5b6020020151141561311357848260048110612f0f57612f0e614e0f565b5b6020020151600160048110612f2757612f26614e0f565b5b6020020151858260048110612f3f57612f3e614e0f565b5b6020020151600160048110612f5757612f56614e0f565b5b60200201511015612f6a57809150613112565b848260048110612f7d57612f7c614e0f565b5b6020020151600160048110612f9557612f94614e0f565b5b6020020151858260048110612fad57612fac614e0f565b5b6020020151600160048110612fc557612fc4614e0f565b5b6020020151141561311157848260048110612fe357612fe2614e0f565b5b6020020151600260048110612ffb57612ffa614e0f565b5b602002015185826004811061301357613012614e0f565b5b602002015160026004811061302b5761302a614e0f565b5b6020020151101561303e57809150613110565b84826004811061305157613050614e0f565b5b602002015160026004811061306957613068614e0f565b5b602002015185826004811061308157613080614e0f565b5b602002015160026004811061309957613098614e0f565b5b6020020151141561310f578482600481106130b7576130b6614e0f565b5b60200201516003600481106130cf576130ce614e0f565b5b60200201518582600481106130e7576130e6614e0f565b5b60200201516003600481106130ff576130fe614e0f565b5b6020020151101561310e578091505b5b5b5b5b5b5b5b808061312090614ece565b915050612e0b565b508091505092915050565b61313b613c6c565b60005b84518110156136eb5783878151811061315a57613159614e0f565b5b602002602001015185828151811061317557613174614e0f565b5b60200260200101516020015160008151811061319457613193614e0f565b5b602002602001015114156136d85760028314806131b15750600383145b15613442578481815181106131c9576131c8614e0f565b5b6020026020010151602001516001815181106131e8576131e7614e0f565b5b60200260200101518460008151811061320457613203614e0f565b5b60200260200101511415613259578560006004811061322657613225614e0f565b5b602002015160006004811061323e5761323d614e0f565b5b60200201805180919061325090614ece565b81525050613441565b84818151811061326c5761326b614e0f565b5b60200260200101516020015160018151811061328b5761328a614e0f565b5b6020026020010151846001815181106132a7576132a6614e0f565b5b602002602001015114156132fc57856001600481106132c9576132c8614e0f565b5b60200201516000600481106132e1576132e0614e0f565b5b6020020180518091906132f390614ece565b81525050613440565b84818151811061330f5761330e614e0f565b5b60200260200101516020015160018151811061332e5761332d614e0f565b5b60200260200101518460028151811061334a57613349614e0f565b5b6020026020010151141561339f578560026004811061336c5761336b614e0f565b5b602002015160006004811061338457613383614e0f565b5b60200201805180919061339690614ece565b8152505061343f565b8481815181106133b2576133b1614e0f565b5b6020026020010151602001516001815181106133d1576133d0614e0f565b5b6020026020010151846003815181106133ed576133ec614e0f565b5b6020026020010151141561343e578560036004811061340f5761340e614e0f565b5b602002015160006004811061342757613426614e0f565b5b60200201805180919061343990614ece565b815250505b5b5b5b5b60038314156136d75784818151811061345e5761345d614e0f565b5b60200260200101516020015160028151811061347d5761347c614e0f565b5b60200260200101518460008151811061349957613498614e0f565b5b602002602001015114156134ee57856000600481106134bb576134ba614e0f565b5b60200201516000600481106134d3576134d2614e0f565b5b6020020180518091906134e590614ece565b815250506136d6565b84818151811061350157613500614e0f565b5b6020026020010151602001516002815181106135205761351f614e0f565b5b60200260200101518460018151811061353c5761353b614e0f565b5b60200260200101511415613591578560016004811061355e5761355d614e0f565b5b602002015160006004811061357657613575614e0f565b5b60200201805180919061358890614ece565b815250506136d5565b8481815181106135a4576135a3614e0f565b5b6020026020010151602001516002815181106135c3576135c2614e0f565b5b6020026020010151846002815181106135df576135de614e0f565b5b60200260200101511415613634578560026004811061360157613600614e0f565b5b602002015160006004811061361957613618614e0f565b5b60200201805180919061362b90614ece565b815250506136d4565b84818151811061364757613646614e0f565b5b60200260200101516020015160028151811061366657613665614e0f565b5b60200260200101518460038151811061368257613681614e0f565b5b602002602001015114156136d357856003600481106136a4576136a3614e0f565b5b60200201516000600481106136bc576136bb614e0f565b5b6020020180518091906136ce90614ece565b815250505b5b5b5b5b5b80806136e390614ece565b91505061313e565b5084905095945050505050565b60606000835167ffffffffffffffff81111561371757613716613f9e565b5b6040519080825280602002602001820160405280156137455781602001602082028036833780820191505090505b50905060005b84518110156137d35783811415613785576305f5e0ff82828151811061377457613773614e0f565b5b6020026020010181815250506137c0565b84818151811061379857613797614e0f565b5b60200260200101518282815181106137b3576137b2614e0f565b5b6020026020010181815250505b80806137cb90614ece565b91505061374b565b508091505092915050565b6000806305f5e0ff905060005b8351811015613836576305f5e0ff84828151811061380c5761380b614e0f565b5b60200260200101511461382357809250505061383c565b808061382e90614ece565b9150506137eb565b50809150505b919050565b6001818154811061385557613854614e0f565b5b906000526020600020906002020160008082016000905560018201600061387c9190613c2c565b505050565b6000806000905060005b60038054905081101561391f576138c6600382815481106138af576138ae614e0f565b5b906000526020600020906004020160000154610fbd565b1580156138f857506000600382815481106138e4576138e3614e0f565b5b906000526020600020906004020160010154115b1561390c57818061390890614ece565b9250505b808061391790614ece565b91505061388b565b508091505090565b600033905090565b6000806001805490509050600160405180604001604052808381526020018581525090806001815401808255809150506001900390600052602060002090600202016000909190919091506000820151816000015560208201518160010190805190602001906139a0929190613b3e565b50505080915050919050565b60006305f5e0ff8383815181106139c6576139c5614e0f565b5b602002602001015114905092915050565b6040518060800160405280600081526020016000815260200160608152602001606081525090565b828054828255906000526020600020908101928215613a3b579160200282015b82811115613a3a578251825591602001919060010190613a1f565b5b509050613a489190613c99565b5090565b828054828255906000526020600020906002028101928215613ab45760005260206000209160020282015b82811115613ab3578282600082015481600001556001820181600101908054613aa1929190613cb6565b50505091600201919060020190613a77565b5b509050613ac19190613d08565b5090565b6040518060a00160405280613ad86139d7565b815260200160608152602001613aec613bc4565b81526020016000151581526020016000151581525090565b604051806040016040528060008152602001606081525090565b6040518060400160405280613b316139d7565b8152602001606081525090565b828054613b4a90614e6d565b90600052602060002090601f016020900481019282613b6c5760008555613bb3565b82601f10613b8557805160ff1916838001178555613bb3565b82800160010185558215613bb3579182015b82811115613bb2578251825591602001919060010190613b97565b5b509050613bc09190613c99565b5090565b604051806040016040528060008152602001606081525090565b6040518060600160405280613bf1613ac5565b8152602001613bfe613c6c565b8152602001600081525090565b5080546000825590600052602060002090810190613c299190613c99565b50565b508054613c3890614e6d565b6000825580601f10613c4a5750613c69565b601f016020900490600052602060002090810190613c689190613c99565b5b50565b60405180608001604052806004905b613c83613d37565b815260200190600190039081613c7b5790505090565b5b80821115613cb2576000816000905550600101613c9a565b5090565b828054828255906000526020600020908101928215613cf75760005260206000209182015b82811115613cf6578254825591600101919060010190613cdb565b5b509050613d049190613c99565b5090565b5b80821115613d3357600080820160009055600182016000613d2a9190613c0b565b50600201613d09565b5090565b6040518060800160405280600490602082028036833780820191505090505090565b600081519050919050565b600082825260208201905092915050565b6000819050602082019050919050565b6000819050919050565b613d9881613d85565b82525050565b600081519050919050565b600082825260208201905092915050565b60005b83811015613dd8578082015181840152602081019050613dbd565b83811115613de7576000848401525b50505050565b6000601f19601f8301169050919050565b6000613e0982613d9e565b613e138185613da9565b9350613e23818560208601613dba565b613e2c81613ded565b840191505092915050565b6000608083016000830151613e4f6000860182613d8f565b506020830151613e626020860182613d8f565b5060408301518482036040860152613e7a8282613dfe565b91505060608301518482036060860152613e948282613dfe565b9150508091505092915050565b6000613ead8383613e37565b905092915050565b6000602082019050919050565b6000613ecd82613d59565b613ed78185613d64565b935083602082028501613ee985613d75565b8060005b85811015613f255784840389528151613f068582613ea1565b9450613f1183613eb5565b925060208a01995050600181019050613eed565b50829750879550505050505092915050565b60006020820190508181036000830152613f518184613ec2565b905092915050565b6000604051905090565b600080fd5b600080fd5b613f7681613d85565b8114613f8157600080fd5b50565b600081359050613f9381613f6d565b92915050565b600080fd5b7f4e487b7100000000000000000000000000000000000000000000000000000000600052604160045260246000fd5b613fd682613ded565b810181811067ffffffffffffffff82111715613ff557613ff4613f9e565b5b80604052505050565b6000614008613f59565b90506140148282613fcd565b919050565b600067ffffffffffffffff82111561403457614033613f9e565b5b602082029050602081019050919050565b600080fd5b600061405d61405884614019565b613ffe565b905080838252602082019050602084028301858111156140805761407f614045565b5b835b818110156140a957806140958882613f84565b845260208401935050602081019050614082565b5050509392505050565b600082601f8301126140c8576140c7613f99565b5b81356140d884826020860161404a565b91505092915050565b600080604083850312156140f8576140f7613f63565b5b600061410685828601613f84565b925050602083013567ffffffffffffffff81111561412757614126613f68565b5b614133858286016140b3565b9150509250929050565b60006020828403121561415357614152613f63565b5b600061416184828501613f84565b91505092915050565b600081519050919050565b600082825260208201905092915050565b6000819050602082019050919050565b60006040830160008301516141ae6000860182613d8f565b50602083015184820360208601526141c68282613dfe565b9150508091505092915050565b60006141df8383614196565b905092915050565b6000602082019050919050565b60006141ff8261416a565b6142098185614175565b93508360208202850161421b85614186565b8060005b85811015614257578484038952815161423885826141d3565b9450614243836141e7565b925060208a0199505060018101905061421f565b50829750879550505050505092915050565b600081519050919050565b600082825260208201905092915050565b6000819050602082019050919050565b60006142a18383613d8f565b60208301905092915050565b6000602082019050919050565b60006142c582614269565b6142cf8185614274565b93506142da83614285565b8060005b8381101561430b5781516142f28882614295565b97506142fd836142ad565b9250506001810190506142de565b5085935050505092915050565b60006040830160008301516143306000860182613d8f565b506020830151848203602086015261434882826142ba565b9150508091505092915050565b60008115159050919050565b61436a81614355565b82525050565b600060a083016000830151848203600086015261438d8282613e37565b915050602083015184820360208601526143a782826141f4565b915050604083015184820360408601526143c18282614318565b91505060608301516143d66060860182614361565b5060808301516143e96080860182614361565b508091505092915050565b6000602082019050818103600083015261440e8184614370565b905092915050565b600081519050919050565b600082825260208201905092915050565b6000819050602082019050919050565b600060a083016000830151848203600086015261445f8282613e37565b9150506020830151848203602086015261447982826141f4565b915050604083015184820360408601526144938282614318565b91505060608301516144a86060860182614361565b5060808301516144bb6080860182614361565b508091505092915050565b60006144d28383614442565b905092915050565b6000602082019050919050565b60006144f282614416565b6144fc8185614421565b93508360208202850161450e85614432565b8060005b8581101561454a578484038952815161452b85826144c6565b9450614536836144da565b925060208a01995050600181019050614512565b50829750879550505050505092915050565b6000602082019050818103600083015261457681846144e7565b905092915050565b6000604083016000830151848203600086015261459b8282613e37565b915050602083015184820360208601526145b582826141f4565b9150508091505092915050565b600060208201905081810360008301526145dc818461457e565b905092915050565b600082825260208201905092915050565b600061460082614269565b61460a81856145e4565b935061461583614285565b8060005b8381101561464657815161462d8882614295565b9750614638836142ad565b925050600181019050614619565b5085935050505092915050565b6000602082019050818103600083015261466d81846145f5565b905092915050565b61467e81614355565b82525050565b60006020820190506146996000830184614675565b92915050565b6146a881613d85565b82525050565b60006020820190506146c3600083018461469f565b92915050565b600080fd5b600067ffffffffffffffff8211156146e9576146e8613f9e565b5b6146f282613ded565b9050602081019050919050565b82818337600083830152505050565b600061472161471c846146ce565b613ffe565b90508281526020810184848401111561473d5761473c6146c9565b5b6147488482856146ff565b509392505050565b600082601f83011261476557614764613f99565b5b813561477584826020860161470e565b91505092915050565b600067ffffffffffffffff82111561479957614798613f9e565b5b602082029050602081019050919050565b60006147bd6147b88461477e565b613ffe565b905080838252602082019050602084028301858111156147e0576147df614045565b5b835b8181101561482757803567ffffffffffffffff81111561480557614804613f99565b5b8086016148128982614750565b855260208501945050506020810190506147e2565b5050509392505050565b600082601f83011261484657614845613f99565b5b81356148568482602086016147aa565b91505092915050565b6000806000806080858703121561487957614878613f63565b5b600061488787828801613f84565b945050602085013567ffffffffffffffff8111156148a8576148a7613f68565b5b6148b487828801614750565b935050604085013567ffffffffffffffff8111156148d5576148d4613f68565b5b6148e187828801614750565b925050606085013567ffffffffffffffff81111561490257614901613f68565b5b61490e87828801614831565b91505092959194509250565b600082825260208201905092915050565b600061493682613d9e565b614940818561491a565b9350614950818560208601613dba565b61495981613ded565b840191505092915050565b6000608082019050614979600083018761469f565b614986602083018661469f565b8181036040830152614998818561492b565b905081810360608301526149ac818461492b565b905095945050505050565b600073ffffffffffffffffffffffffffffffffffffffff82169050919050565b60006149e2826149b7565b9050919050565b6149f2816149d7565b82525050565b6000602082019050614a0d60008301846149e9565b92915050565b60008060008060808587031215614a2d57614a2c613f63565b5b600085013567ffffffffffffffff811115614a4b57614a4a613f68565b5b614a5787828801614750565b945050602085013567ffffffffffffffff811115614a7857614a77613f68565b5b614a8487828801614750565b9350506040614a9587828801613f84565b925050606085013567ffffffffffffffff811115614ab657614ab5613f68565b5b614ac287828801614831565b91505092959194509250565b60008060408385031215614ae557614ae4613f63565b5b6000614af385828601613f84565b9250506020614b0485828601613f84565b9150509250929050565b600081519050919050565b600082825260208201905092915050565b6000819050602082019050919050565b6000614b468383614318565b905092915050565b6000602082019050919050565b6000614b6682614b0e565b614b708185614b19565b935083602082028501614b8285614b2a565b8060005b85811015614bbe5784840389528151614b9f8582614b3a565b9450614baa83614b4e565b925060208a01995050600181019050614b86565b50829750879550505050505092915050565b60006020820190508181036000830152614bea8184614b5b565b905092915050565b600060049050919050565b600081905092915050565b6000819050919050565b600060049050919050565b600081905092915050565b6000819050919050565b6000602082019050919050565b614c4881614c12565b614c528184614c1d565b9250614c5d82614c28565b8060005b83811015614c8e578151614c758782614295565b9650614c8083614c32565b925050600181019050614c61565b505050505050565b6000614ca28383614c3f565b60808301905092915050565b6000602082019050919050565b614cc481614bf2565b614cce8184614bfd565b9250614cd982614c08565b8060005b83811015614d0a578151614cf18782614c96565b9650614cfc83614cae565b925050600181019050614cdd565b505050505050565b6000610240830160008301518482036000860152614d308282614442565b9150506020830151614d456020860182614cbb565b506040830151614d59610220860182613d8f565b508091505092915050565b60006020820190508181036000830152614d7e8184614d12565b905092915050565b614d8f816149d7565b8114614d9a57600080fd5b50565b600081359050614dac81614d86565b92915050565b600060208284031215614dc857614dc7613f63565b5b6000614dd684828501614d9d565b91505092915050565b6000604082019050614df4600083018561469f565b8181036020830152614e06818461492b565b90509392505050565b7f4e487b7100000000000000000000000000000000000000000000000000000000600052603260045260246000fd5b7f4e487b7100000000000000000000000000000000000000000000000000000000600052602260045260246000fd5b60006002820490506001821680614e8557607f821691505b60208210811415614e9957614e98614e3e565b5b50919050565b7f4e487b7100000000000000000000000000000000000000000000000000000000600052601160045260246000fd5b6000614ed982613d85565b91507fffffffffffffffffffffffffffffffffffffffffffffffffffffffffffffffff821415614f0c57614f0b614e9f565b5b600182019050919050565b7f53657373696f6e20646f6573206e6f742065786973742e000000000000000000600082015250565b6000614f4d60178361491a565b9150614f5882614f17565b602082019050919050565b60006020820190508181036000830152614f7c81614f40565b9050919050565b7f53657373696f6e20697320636c6f7365642e0000000000000000000000000000600082015250565b6000614fb960128361491a565b9150614fc482614f83565b602082019050919050565b60006020820190508181036000830152614fe881614fac565b9050919050565b7f43686f6963652069647320646f206e6f7420657869737420666f72207468697360008201527f2073657373696f6e2e0000000000000000000000000000000000000000000000602082015250565b600061504b60298361491a565b915061505682614fef565b604082019050919050565b6000602082019050818103600083015261507a8161503e565b9050919050565b7f596f75206861766520616c726561647920766f7465642e000000000000000000600082015250565b60006150b760178361491a565b91506150c282615081565b602082019050919050565b600060208201905081810360008301526150e6816150aa565b9050919050565b60006150f882613d85565b915061510383613d85565b92508282101561511657615115614e9f565b5b828203905092915050565b6000606082019050615136600083018661469f565b615143602083018561469f565b818103604083015261515581846145f5565b9050949350505050565b7f596f7520617265206e6f7420746865206f776e6572206f66207468697320736560008201527f7373696f6e2e0000000000000000000000000000000000000000000000000000602082015250565b60006151bb60268361491a565b91506151c68261515f565b604082019050919050565b600060208201905081810360008301526151ea816151ae565b9050919050565b600081519050919050565b600082825260208201905092915050565b6000819050602082019050919050565b60006152298383613dfe565b905092915050565b6000602082019050919050565b6000615249826151f1565b61525381856151fc565b9350836020820285016152658561520d565b8060005b858110156152a15784840389528151615282858261521d565b945061528d83615231565b925060208a01995050600181019050615269565b50829750879550505050505092915050565b600060a0820190506152c8600083018861469f565b81810360208301526152da818761492b565b905081810360408301526152ee818661492b565b90506152fd606083018561469f565b818103608083015261530f818461523e565b90509695505050505050565b7f4f776e61626c653a206e6577206f776e657220697320746865207a65726f206160008201527f6464726573730000000000000000000000000000000000000000000000000000602082015250565b600061537760268361491a565b91506153828261531b565b604082019050919050565b600060208201905081810360008301526153a68161536a565b9050919050565b7f4f776e61626c653a2063616c6c6572206973206e6f7420746865206f776e6572600082015250565b60006153e360208361491a565b91506153ee826153ad565b602082019050919050565b60006020820190508181036000830152615412816153d6565b905091905056fea26469706673582212202cf40be03c32525fd3dee0556df3cb1e705255e8a87408015aa17041069087b964736f6c63430008090033",
    "linkReferences": {},
    "deployedLinkReferences": {}
}